###############################################################################
#
# IAR C/C++ Compiler V9.30.1.3056 for 8051                04/Jun/2018  18:23:26
# Copyright 2004-2015 IAR Systems AB.
#
#    Core               =  plain
#    Code model         =  banked
#    Data model         =  large
#    Calling convention =  xdata reentrant
#    Constant location  =  data_rom
#    Dptr setup         =  1,16
#                          
#    Source file        =  
#        E:\z-stack1.1.2\zigbee_1.2.2a_new\smart_socket_1.2.2a\Components\stack\zdo\ZDProfile.c
#    Command line       =  
#        -f
#        E:\z-stack1.1.2\zigbee_1.2.2a_new\smart_socket_1.2.2a\Projects\zstack\HomeAutomation\SampleLight\CC2530DB\..\..\..\Tools\CC2530DB\f8wRouter.cfg
#        (-DCPU32MHZ -DROOT=__near_func -DMAC_CFG_APP_PENDING_QUEUE=TRUE
#        -DMAC_CFG_TX_DATA_MAX=5 -DMAC_CFG_TX_MAX=8 -DMAC_CFG_RX_MAX=5
#        -DRTR_NWK) -f
#        E:\z-stack1.1.2\zigbee_1.2.2a_new\smart_socket_1.2.2a\Projects\zstack\HomeAutomation\SampleLight\CC2530DB\..\..\..\Tools\CC2530DB\f8wConfig.cfg
#        (-DZIGBEEPRO -DSECURE=0 -DZG_SECURE_DYNAMIC=0 -DREFLECTOR
#        -DDEFAULT_CHANLIST=0x00000800 -DZDAPP_CONFIG_PAN_ID=0x0253
#        -DNWK_START_DELAY=100 -DEXTENDED_JOINING_RANDOM_MASK=0x007F
#        -DBEACON_REQUEST_DELAY=100 -DBEACON_REQ_DELAY_MASK=0x00FF
#        -DLINK_STATUS_JITTER_MASK=0x007F -DROUTE_EXPIRY_TIME=30
#        -DAPSC_ACK_WAIT_DURATION_POLLED=3000 -DNWK_INDIRECT_MSG_TIMEOUT=7
#        -DMAX_RREQ_ENTRIES=8 -DAPSC_MAX_FRAME_RETRIES=3
#        -DNWK_MAX_DATA_RETRIES=2 -DMAX_POLL_FAILURE_RETRIES=2 -DMAX_BCAST=9
#        -DAPS_MAX_GROUPS=16 -DMAX_RTG_ENTRIES=40 -DNWK_MAX_BINDING_ENTRIES=4
#        -DMAX_BINDING_CLUSTER_IDS=4 "-DDEFAULT_KEY={0x01, 0x03, 0x05, 0x07,
#        0x09, 0x0B, 0x0D, 0x0F, 0x00, 0x02, 0x04, 0x06, 0x08, 0x0A, 0x0C,
#        0x0D}" -DMAC_MAX_FRAME_SIZE=116 -DZDNWKMGR_MIN_TRANSMISSIONS=20
#        "-DCONST=const __code" -DGENERIC=__generic -DRFD_RCVC_ALWAYS_ON=TRUE
#        -DPOLL_RATE=1000 -DQUEUED_POLL_RATE=100 -DRESPONSE_POLL_RATE=100
#        -DREJOIN_POLL_RATE=440 -DREJOIN_BACKOFF=60000 -DREJOIN_SCAN=900000) -f
#        E:\z-stack1.1.2\zigbee_1.2.2a_new\smart_socket_1.2.2a\Projects\zstack\HomeAutomation\SampleLight\CC2530DB\..\..\..\Tools\CC2530DB\f8wZCL.cfg
#        E:\z-stack1.1.2\zigbee_1.2.2a_new\smart_socket_1.2.2a\Components\stack\zdo\ZDProfile.c
#        -D SECURE=0 -D xTC_LINKKEY_JOIN -D NV_INIT -D NV_RESTORE -D
#        xPOWER_SAVING -D NWK_AUTO_POLL -D xHOLD_AUTO_START -D xZTOOL_P1 -D
#        MT_TASK -D MT_APP_FUNC -D MT_SYS_FUNC -D MT_ZDO_FUNC -D MT_ZDO_MGMT -D
#        LCD_SUPPORTED=DEBUG -D MULTICAST_ENABLED=FALSE -D ZCL_READ -D
#        ZCL_WRITE -D ZCL_REPORT -D ZCL_EZMODE -D ZCL_BASIC -D ZCL_IDENTIFY -D
#        ZCL_ON_OFF -D ZCL_SCENES -D ZCL_GROUPS -D xZCL_LEVEL_CTRL -D
#        ZCL_DIAGNOSTIC -D FEATURE_SYSTEM_STATS -D xHAL_UART=TRUE -lC
#        E:\z-stack1.1.2\zigbee_1.2.2a_new\smart_socket_1.2.2a\Projects\zstack\HomeAutomation\SampleLight\CC2530DB\RouterEB\List
#        -lA
#        E:\z-stack1.1.2\zigbee_1.2.2a_new\smart_socket_1.2.2a\Projects\zstack\HomeAutomation\SampleLight\CC2530DB\RouterEB\List
#        --diag_suppress Pe001,Pa010 -o
#        E:\z-stack1.1.2\zigbee_1.2.2a_new\smart_socket_1.2.2a\Projects\zstack\HomeAutomation\SampleLight\CC2530DB\RouterEB\Obj
#        -e --debug --core=plain --dptr=16,1 --data_model=large
#        --code_model=banked --calling_convention=xdata_reentrant
#        --place_constants=data_rom --nr_virtual_regs 16 -I
#        E:\z-stack1.1.2\zigbee_1.2.2a_new\smart_socket_1.2.2a\Projects\zstack\HomeAutomation\SampleLight\CC2530DB\
#        -I
#        E:\z-stack1.1.2\zigbee_1.2.2a_new\smart_socket_1.2.2a\Projects\zstack\HomeAutomation\SampleLight\CC2530DB\..\Source\
#        -I
#        E:\z-stack1.1.2\zigbee_1.2.2a_new\smart_socket_1.2.2a\Projects\zstack\HomeAutomation\SampleLight\CC2530DB\..\..\Source\
#        -I
#        E:\z-stack1.1.2\zigbee_1.2.2a_new\smart_socket_1.2.2a\Projects\zstack\HomeAutomation\SampleLight\CC2530DB\..\Source\z_protocol\
#        -I
#        E:\z-stack1.1.2\zigbee_1.2.2a_new\smart_socket_1.2.2a\Projects\zstack\HomeAutomation\SampleLight\CC2530DB\..\..\..\ZMain\TI2530DB\
#        -I
#        E:\z-stack1.1.2\zigbee_1.2.2a_new\smart_socket_1.2.2a\Projects\zstack\HomeAutomation\SampleLight\CC2530DB\..\..\..\..\..\Components\hal\include\
#        -I
#        E:\z-stack1.1.2\zigbee_1.2.2a_new\smart_socket_1.2.2a\Projects\zstack\HomeAutomation\SampleLight\CC2530DB\..\..\..\..\..\Components\hal\target\CC2530EB\
#        -I
#        E:\z-stack1.1.2\zigbee_1.2.2a_new\smart_socket_1.2.2a\Projects\zstack\HomeAutomation\SampleLight\CC2530DB\..\..\..\..\..\Components\mac\include\
#        -I
#        E:\z-stack1.1.2\zigbee_1.2.2a_new\smart_socket_1.2.2a\Projects\zstack\HomeAutomation\SampleLight\CC2530DB\..\..\..\..\..\Components\mac\high_level\
#        -I
#        E:\z-stack1.1.2\zigbee_1.2.2a_new\smart_socket_1.2.2a\Projects\zstack\HomeAutomation\SampleLight\CC2530DB\..\..\..\..\..\Components\mac\low_level\srf04\
#        -I
#        E:\z-stack1.1.2\zigbee_1.2.2a_new\smart_socket_1.2.2a\Projects\zstack\HomeAutomation\SampleLight\CC2530DB\..\..\..\..\..\Components\mac\low_level\srf04\single_chip\
#        -I
#        E:\z-stack1.1.2\zigbee_1.2.2a_new\smart_socket_1.2.2a\Projects\zstack\HomeAutomation\SampleLight\CC2530DB\..\..\..\..\..\Components\mt\
#        -I
#        E:\z-stack1.1.2\zigbee_1.2.2a_new\smart_socket_1.2.2a\Projects\zstack\HomeAutomation\SampleLight\CC2530DB\..\..\..\..\..\Components\osal\include\
#        -I
#        E:\z-stack1.1.2\zigbee_1.2.2a_new\smart_socket_1.2.2a\Projects\zstack\HomeAutomation\SampleLight\CC2530DB\..\..\..\..\..\Components\services\saddr\
#        -I
#        E:\z-stack1.1.2\zigbee_1.2.2a_new\smart_socket_1.2.2a\Projects\zstack\HomeAutomation\SampleLight\CC2530DB\..\..\..\..\..\Components\services\sdata\
#        -I
#        E:\z-stack1.1.2\zigbee_1.2.2a_new\smart_socket_1.2.2a\Projects\zstack\HomeAutomation\SampleLight\CC2530DB\..\..\..\..\..\Components\stack\af\
#        -I
#        E:\z-stack1.1.2\zigbee_1.2.2a_new\smart_socket_1.2.2a\Projects\zstack\HomeAutomation\SampleLight\CC2530DB\..\..\..\..\..\Components\stack\nwk\
#        -I
#        E:\z-stack1.1.2\zigbee_1.2.2a_new\smart_socket_1.2.2a\Projects\zstack\HomeAutomation\SampleLight\CC2530DB\..\..\..\..\..\Components\stack\sapi\
#        -I
#        E:\z-stack1.1.2\zigbee_1.2.2a_new\smart_socket_1.2.2a\Projects\zstack\HomeAutomation\SampleLight\CC2530DB\..\..\..\..\..\Components\stack\sec\
#        -I
#        E:\z-stack1.1.2\zigbee_1.2.2a_new\smart_socket_1.2.2a\Projects\zstack\HomeAutomation\SampleLight\CC2530DB\..\..\..\..\..\Components\stack\sys\
#        -I
#        E:\z-stack1.1.2\zigbee_1.2.2a_new\smart_socket_1.2.2a\Projects\zstack\HomeAutomation\SampleLight\CC2530DB\..\..\..\..\..\Components\stack\zcl\
#        -I
#        E:\z-stack1.1.2\zigbee_1.2.2a_new\smart_socket_1.2.2a\Projects\zstack\HomeAutomation\SampleLight\CC2530DB\..\..\..\..\..\Components\stack\zdo\
#        -I
#        E:\z-stack1.1.2\zigbee_1.2.2a_new\smart_socket_1.2.2a\Projects\zstack\HomeAutomation\SampleLight\CC2530DB\..\..\..\..\..\Components\zmac\
#        -I
#        E:\z-stack1.1.2\zigbee_1.2.2a_new\smart_socket_1.2.2a\Projects\zstack\HomeAutomation\SampleLight\CC2530DB\..\..\..\..\..\Components\zmac\f8w\
#        -Ohz --require_prototypes
#    List file          =  
#        E:\z-stack1.1.2\zigbee_1.2.2a_new\smart_socket_1.2.2a\Projects\zstack\HomeAutomation\SampleLight\CC2530DB\RouterEB\List\ZDProfile.lst
#    Object file        =  
#        E:\z-stack1.1.2\zigbee_1.2.2a_new\smart_socket_1.2.2a\Projects\zstack\HomeAutomation\SampleLight\CC2530DB\RouterEB\Obj\ZDProfile.r51
#
###############################################################################

E:\z-stack1.1.2\zigbee_1.2.2a_new\smart_socket_1.2.2a\Components\stack\zdo\ZDProfile.c
      1          /**************************************************************************************************
      2            Filename:       ZDProfile.c
      3            Revised:        $Date: 2015-10-14 11:48:06 -0700 (Wed, 14 Oct 2015) $
      4            Revision:       $Revision: 44530 $
      5          
      6            Description:    This is the Zigbee Device Profile.
      7          
      8          
      9            Copyright 2004-2015 Texas Instruments Incorporated. All rights reserved.
     10          
     11            IMPORTANT: Your use of this Software is limited to those specific rights
     12            granted under the terms of a software license agreement between the user
     13            who downloaded the software, his/her employer (which must be your employer)
     14            and Texas Instruments Incorporated (the "License").  You may not use this
     15            Software unless you agree to abide by the terms of the License. The License
     16            limits your use, and you acknowledge, that the Software may not be modified,
     17            copied or distributed unless embedded on a Texas Instruments microcontroller
     18            or used solely and exclusively in conjunction with a Texas Instruments radio
     19            frequency transceiver, which is integrated into your product.  Other than for
     20            the foregoing purpose, you may not use, reproduce, copy, prepare derivative
     21            works of, modify, distribute, perform, display or sell this Software and/or
     22            its documentation for any purpose.
     23          
     24            YOU FURTHER ACKNOWLEDGE AND AGREE THAT THE SOFTWARE AND DOCUMENTATION ARE
     25            PROVIDED "AS IS" WITHOUT WARRANTY OF ANY KIND, EITHER EXPRESS OR IMPLIED,
     26            INCLUDING WITHOUT LIMITATION, ANY WARRANTY OF MERCHANTABILITY, TITLE,
     27            NON-INFRINGEMENT AND FITNESS FOR A PARTICULAR PURPOSE. IN NO EVENT SHALL
     28            TEXAS INSTRUMENTS OR ITS LICENSORS BE LIABLE OR OBLIGATED UNDER CONTRACT,
     29            NEGLIGENCE, STRICT LIABILITY, CONTRIBUTION, BREACH OF WARRANTY, OR OTHER
     30            LEGAL EQUITABLE THEORY ANY DIRECT OR INDIRECT DAMAGES OR EXPENSES
     31            INCLUDING BUT NOT LIMITED TO ANY INCIDENTAL, SPECIAL, INDIRECT, PUNITIVE
     32            OR CONSEQUENTIAL DAMAGES, LOST PROFITS OR LOST DATA, COST OF PROCUREMENT
     33            OF SUBSTITUTE GOODS, TECHNOLOGY, SERVICES, OR ANY CLAIMS BY THIRD PARTIES
     34            (INCLUDING BUT NOT LIMITED TO ANY DEFENSE THEREOF), OR OTHER SIMILAR COSTS.
     35          
     36            Should you have any questions regarding your right to use this Software,
     37            contact Texas Instruments Incorporated at www.TI.com.
     38          **************************************************************************************************/
     39          
     40          /*********************************************************************
     41           * INCLUDES
     42           */
     43          #include "ZComDef.h"
     44          #include "OSAL.h"
     45          #include "AF.h"
     46          #include "NLMEDE.h"
     47          #include "nwk_util.h"
     48          #include "APS.h"
     49          
     50          #include "AddrMgr.h"
     51          #include "ZDConfig.h"
     52          #include "ZDProfile.h"
     53          #include "ZDObject.h"
     54          #include "ZDNwkMgr.h"
     55          
     56          #if defined( LCD_SUPPORTED )
     57            #include "OnBoard.h"
     58          #endif
     59          
     60          #include "nwk_util.h"
     61          
     62          #if defined( MT_ZDO_FUNC )
     63            #include "MT_ZDO.h"
     64          #endif
     65          
     66          /*********************************************************************
     67           * MACROS
     68           */
     69          
     70          #define ZADDR_TO_AFADDR( pZADDR, AFADDR ) {                            \
     71            (AFADDR).endPoint = ZDP_AF_ENDPOINT;                                 \
     72            (AFADDR).addrMode = (afAddrMode_t)(pZADDR)->addrMode;                \
     73            (AFADDR).addr.shortAddr = (pZADDR)->addr.shortAddr;                  \
     74          }
     75          
     76          #define FillAndSendBuffer( TRANSSEQ, ADDR, ID, LEN, BUF ) {     \
     77            afStatus_t stat;                                    \
     78            ZDP_TmpBuf = (BUF)+1;                               \
     79            stat = fillAndSend( (TRANSSEQ), (ADDR), (ID), (LEN) );          \
     80            osal_mem_free( (BUF) );                             \
     81            ZDP_TmpBuf = ZDP_Buf+1;                             \
     82            return stat;                                        \
     83          }
     84          
     85          #define FillAndSendTxOptions( TRANSSEQ, ADDR, ID, LEN, TxO ) {  \
     86            afStatus_t stat;                                    \
     87            ZDP_TxOptions = (TxO);                              \
     88            stat = fillAndSend( (TRANSSEQ), (ADDR), (ID), (LEN) );          \
     89            ZDP_TxOptions = AF_TX_OPTIONS_NONE;                 \
     90            return stat;                                        \
     91          }
     92          
     93          #define FillAndSendBufferTxOptions( TRANSSEQ, ADDR, ID, LEN, BUF, TxO ) { \
     94            afStatus_t stat;                                    \
     95            ZDP_TmpBuf = (BUF)+1;                               \
     96            ZDP_TxOptions = (TxO);                              \
     97            stat = fillAndSend( (TRANSSEQ), (ADDR), (ID), (LEN) );          \
     98            osal_mem_free( (BUF) );                             \
     99            ZDP_TmpBuf = ZDP_Buf+1;                             \
    100            ZDP_TxOptions = AF_TX_OPTIONS_NONE;                 \
    101            return stat;                                        \
    102          }
    103          
    104          /*********************************************************************
    105           * CONSTANTS
    106           */
    107          
    108          #define ZDP_BUF_SZ          80
    109          

   \                                 In  segment CODE_C, align 1
    110          CONST byte ZDP_AF_ENDPOINT = 0;
   \                     ZDP_AF_ENDPOINT:
   \   000000   00           DB 0
    111          
    112          // Routing table options
    113          #define ZP_RTG_RECORD       0x04       // Routing table indication that a route record is needed
    114          #define ZP_MTO_ROUTE_RC     0x08       // Concentrator with routing cache
    115          #define ZP_MTO_ROUTE_NRC    0x10       // Concentrator with limited cache
    116          
    117          
    118          /*********************************************************************
    119           * TYPEDEFS
    120           */
    121          typedef struct
    122          {
    123            void *next;
    124            uint8 taskID;
    125            uint16 clusterID;
    126          } ZDO_MsgCB_t;
    127          
    128          
    129          /*********************************************************************
    130           * GLOBAL VARIABLES
    131           */
    132          

   \                                 In  segment XDATA_Z, align 1, keep-with-next
    133          byte ZDP_TransID = 0;
   \                     ZDP_TransID:
   \   000000                DS 1
   \   000001                REQUIRE __INIT_XDATA_Z
    134          
    135          /*********************************************************************
    136           * EXTERNAL VARIABLES
    137           */
    138          
    139          extern endPointDesc_t ZDApp_epDesc;
    140          
    141          /*********************************************************************
    142           * EXTERNAL FUNCTIONS
    143           */
    144          
    145          /*********************************************************************
    146           * LOCAL FUNCTIONS
    147           */
    148          
    149          static afStatus_t fillAndSend( uint8 *transSeq, zAddrType_t *addr, cId_t clusterID, byte len );
    150          uint8 ZDO_SendMsgCBs( zdoIncomingMsg_t *inMsg );
    151          void zdpProcessAddrReq( zdoIncomingMsg_t *inMsg );
    152          
    153          /*********************************************************************
    154           * LOCAL VARIABLES
    155           */
    156          

   \                                 In  segment XDATA_Z, align 1, keep-with-next
    157          static uint8  ZDP_Buf[ ZDP_BUF_SZ ];
   \                     ZDP_Buf:
   \   000000                DS 80
   \   000050                REQUIRE __INIT_XDATA_Z

   \                                 In  segment XDATA_I, align 1, keep-with-next
    158          static uint8 *ZDP_TmpBuf = ZDP_Buf+1;
   \                     ZDP_TmpBuf:
   \   000000                DS 2
   \   000002                REQUIRE `?<Initializer for ZDP_TmpBuf>`
   \   000002                REQUIRE __INIT_XDATA_I
    159          

   \                                 In  segment XDATA_Z, align 1, keep-with-next
    160          byte ZDP_TxOptions = AF_TX_OPTIONS_NONE;
   \                     ZDP_TxOptions:
   \   000000                DS 1
   \   000001                REQUIRE __INIT_XDATA_Z

   \                                 In  segment XDATA_Z, align 1, keep-with-next
    161          ZDO_MsgCB_t *zdoMsgCBs = (ZDO_MsgCB_t *)NULL;
   \                     zdoMsgCBs:
   \   000000                DS 2
   \   000002                REQUIRE __INIT_XDATA_Z
    162          
    163          /*********************************************************************
    164           * ZDO Message Processing table
    165           */
    166          
    167          typedef void (*pfnZDPMsgProcessor)( zdoIncomingMsg_t *inMsg );
    168          
    169          typedef struct
    170          {
    171            uint16                clusterID;
    172            pfnZDPMsgProcessor    pFn;
    173          } zdpMsgProcItem_t;
    174          

   \                                 In  segment CODE_C, align 1
    175          CONST zdpMsgProcItem_t zdpMsgProcs[] =
   \                     zdpMsgProcs:
   \   000000   0000         DW 0
   \   000002   ....         DW `??zdpProcessAddrReq::?relay`
   \   000004   1300         DW 19
   \   000006   ....         DW `??ZDO_ProcessDeviceAnnce::?relay`
   \   000008   1F00         DW 31
   \   00000A   ....         DW `??ZDO_ProcessParentAnnce::?relay`
   \   00000C   1F80         DW 32799
   \   00000E   ....         DW `??ZDO_ProcessParentAnnceRsp::?relay`
   \   000010   0100         DW 1
   \   000012   ....         DW `??zdpProcessAddrReq::?relay`
   \   000014   0200         DW 2
   \   000016   ....         DW `??ZDO_ProcessNodeDescReq::?relay`
   \   000018   0300         DW 3
   \   00001A   ....         DW `??ZDO_ProcessPowerDescReq::?relay`
   \   00001C   0400         DW 4
   \   00001E   ....         DW `??ZDO_ProcessSimpleDescReq::?relay`
   \   000020   0500         DW 5
   \   000022   ....         DW `??ZDO_ProcessActiveEPReq::?relay`
   \   000024   0600         DW 6
   \   000026   ....         DW `??ZDO_ProcessMatchDescReq::?relay`
   \   000028   3000         DW 48
   \   00002A   ....         DW `??ZDO_ProcessMgmtNwkDiscReq::?relay`
   \   00002C   3100         DW 49
   \   00002E   ....         DW `??ZDO_ProcessMgmtLqiReq::?relay`
   \   000030   3200         DW 50
   \   000032   ....         DW `??ZDO_ProcessMgmtRtgReq::?relay`
   \   000034   3300         DW 51
   \   000036   ....         DW `??ZDO_ProcessMgmtBindReq::?relay`
   \   000038   3500         DW 53
   \   00003A   ....         DW `??ZDO_ProcessMgmtDirectJoinReq::?relay`
   \   00003C   3400         DW 52
   \   00003E   ....         DW `??ZDO_ProcessMgmtLeaveReq::?relay`
   \   000040   3600         DW 54
   \   000042   ....         DW `??ZDO_ProcessMgmtPermitJoinReq::?relay`
   \   000044   1100         DW 17
   \   000046   ....         DW `??ZDO_ProcessUserDescReq::?relay`
   \   000048   1400         DW 20
   \   00004A   ....         DW `??ZDO_ProcessUserDescSet::?relay`
   \   00004C   1500         DW 21
   \   00004E   ....         DW `??ZDO_ProcessServerDiscReq::?relay`
   \   000050   FFFF         DW 65535
   \   000052   0000         DW 0H
    176          {
    177          #if ( RFD_RCVC_ALWAYS_ON==TRUE ) || ( ZG_BUILD_RTR_TYPE )
    178            // These aren't processed by sleeping end devices.
    179            { NWK_addr_req,           zdpProcessAddrReq },
    180            { Device_annce,           ZDO_ProcessDeviceAnnce },
    181          #endif
    182          #if ( ZG_BUILD_RTR_TYPE )
    183            // These aren't processed by end devices.
    184            { Parent_annce,           ZDO_ProcessParentAnnce },
    185            { Parent_annce_rsp,       ZDO_ProcessParentAnnceRsp },
    186          #endif
    187            { IEEE_addr_req,          zdpProcessAddrReq },
    188            { Node_Desc_req,          ZDO_ProcessNodeDescReq },
    189            { Power_Desc_req,         ZDO_ProcessPowerDescReq },
    190            { Simple_Desc_req,        ZDO_ProcessSimpleDescReq },
    191            { Active_EP_req,          ZDO_ProcessActiveEPReq },
    192            { Match_Desc_req,         ZDO_ProcessMatchDescReq },
    193          #if defined ( ZDO_MGMT_NWKDISC_RESPONSE )
    194            { Mgmt_NWK_Disc_req,      ZDO_ProcessMgmtNwkDiscReq },
    195          #endif
    196          #if defined ( ZDO_MGMT_LQI_RESPONSE ) && ( ZG_BUILD_RTR_TYPE )
    197            { Mgmt_Lqi_req,           ZDO_ProcessMgmtLqiReq },
    198          #endif
    199          #if defined ( ZDO_MGMT_RTG_RESPONSE ) && ( ZG_BUILD_RTR_TYPE )
    200            { Mgmt_Rtg_req,           ZDO_ProcessMgmtRtgReq },
    201          #endif
    202          #if defined ( ZDO_MGMT_BIND_RESPONSE ) && defined ( REFLECTOR )
    203            { Mgmt_Bind_req,          ZDO_ProcessMgmtBindReq },
    204          #endif
    205          #if defined ( ZDO_MGMT_JOINDIRECT_RESPONSE ) && ( ZG_BUILD_RTR_TYPE )
    206            { Mgmt_Direct_Join_req,   ZDO_ProcessMgmtDirectJoinReq },
    207          #endif
    208          #if defined ( ZDO_MGMT_LEAVE_RESPONSE )
    209            { Mgmt_Leave_req,         ZDO_ProcessMgmtLeaveReq },
    210          #endif
    211          #if defined ( ZDO_MGMT_PERMIT_JOIN_RESPONSE )  && ( ZG_BUILD_RTR_TYPE )
    212            { Mgmt_Permit_Join_req,   ZDO_ProcessMgmtPermitJoinReq },
    213          #endif
    214          #if defined ( ZDO_USERDESC_RESPONSE )
    215            { User_Desc_req,          ZDO_ProcessUserDescReq },
    216          #endif
    217          #if defined ( ZDO_USERDESCSET_RESPONSE )
    218            { User_Desc_set,          ZDO_ProcessUserDescSet },
    219          #endif
    220          #if defined ( ZDO_SERVERDISC_RESPONSE )
    221            { Server_Discovery_req,   ZDO_ProcessServerDiscReq },
    222          #endif
    223            {0xFFFF, NULL} // Last
    224          };
    225          
    226          /*********************************************************************
    227           * @fn          fillAndSend
    228           *
    229           * @brief       Combined to reduce space
    230           *
    231           * @param
    232           * @param
    233           *
    234           * @return      afStatus_t
    235           */

   \                                 In  segment BANKED_CODE, align 1, keep-with-next
    236          static afStatus_t fillAndSend( uint8 *transSeq, zAddrType_t *addr, cId_t clusterID, byte len )
   \                     fillAndSend:
    237          {
   \   000000                REQUIRE ?V0
   \   000000                REQUIRE ?V1
   \   000000                REQUIRE ?V2
   \   000000                REQUIRE ?V3
   \   000000                REQUIRE ?V4
   \   000000                REQUIRE ?V5
   \   000000   74F2         MOV     A,#-0xe
   \   000002   12....       LCALL   ?BANKED_ENTER_XDATA
   \   000005                ; Saved register size: 14
   \   000005                ; Auto size: 12
   \   000005   74F4         MOV     A,#-0xc
   \   000007   12....       LCALL   ?ALLOC_XSTACK8
   \   00000A   8A..         MOV     ?V0,R2
   \   00000C   8B..         MOV     ?V1,R3
   \   00000E   EC           MOV     A,R4
   \   00000F   FE           MOV     R6,A
   \   000010   ED           MOV     A,R5
   \   000011   FF           MOV     R7,A
   \   000012   89..         MOV     ?V4,R1
    238            afAddrType_t afAddr;
    239          
    240            osal_memset( &afAddr, 0, sizeof(afAddrType_t) );
   \   000014                ; Setup parameters for call to function osal_memset
   \   000014   7C0C         MOV     R4,#0xc
   \   000016   7D00         MOV     R5,#0x0
   \   000018   7900         MOV     R1,#0x0
   \   00001A   AA..         MOV     R2,?XSP + 0
   \   00001C   AB..         MOV     R3,?XSP + 1
   \   00001E   12....       LCALL   `??osal_memset::?relay`; Banked call to: osal_memset
    241            ZADDR_TO_AFADDR( addr, afAddr );
   \   000021   7409         MOV     A,#0x9
   \   000023   12....       LCALL   ?XSTACK_DISP0_8
   \   000026   E4           CLR     A
   \   000027   12....       LCALL   ?Subroutine21 & 0xFFFF
   \                     ??CrossCallReturnLabel_22:
   \   00002A   E0           MOVX    A,@DPTR
   \   00002B   C0E0         PUSH    A
   \   00002D   7408         MOV     A,#0x8
   \   00002F   12....       LCALL   ?XSTACK_DISP0_8
   \   000032   D0E0         POP     A
   \   000034   F0           MOVX    @DPTR,A
   \   000035   8E82         MOV     DPL,R6
   \   000037   8F83         MOV     DPH,R7
   \   000039   12....       LCALL   ?Subroutine52 & 0xFFFF
   \                     ??CrossCallReturnLabel_85:
   \   00003C   12....       LCALL   ?Subroutine29 & 0xFFFF
    242          
    243            *(ZDP_TmpBuf-1) = *transSeq;
   \                     ??CrossCallReturnLabel_42:
   \   00003F   90....       MOV     DPTR,#ZDP_TmpBuf
   \   000042   E0           MOVX    A,@DPTR
   \   000043   24FF         ADD     A,#-0x1
   \   000045   F5..         MOV     ?V2,A
   \   000047   A3           INC     DPTR
   \   000048   E0           MOVX    A,@DPTR
   \   000049   34FF         ADDC    A,#-0x1
   \   00004B   F5..         MOV     ?V3,A
   \   00004D   85..82       MOV     DPL,?V0
   \   000050   85..83       MOV     DPH,?V1
   \   000053   E0           MOVX    A,@DPTR
   \   000054   85..82       MOV     DPL,?V2
   \   000057   85..83       MOV     DPH,?V3
   \   00005A   F0           MOVX    @DPTR,A
    244          
    245            return AF_DataRequest( &afAddr, &ZDApp_epDesc, clusterID,
    246                                     (uint16)(len+1), (uint8*)(ZDP_TmpBuf-1),
    247                                     transSeq, ZDP_TxOptions,  AF_DEFAULT_RADIUS );
   \   00005B                ; Setup parameters for call to function AF_DataRequest
   \   00005B   75..1E       MOV     ?V5,#0x1e
   \   00005E   78..         MOV     R0,#?V5
   \   000060   12....       LCALL   ?PUSH_XSTACK_I_ONE
   \   000063   78..         MOV     R0,#?V0
   \   000065   12....       LCALL   ?PUSH_XSTACK_I_TWO
   \   000068   78..         MOV     R0,#?V2
   \   00006A   12....       LCALL   ?PUSH_XSTACK_I_TWO
   \   00006D   E5..         MOV     A,?V4
   \   00006F   2401         ADD     A,#0x1
   \   000071   F5..         MOV     ?V0,A
   \   000073   E4           CLR     A
   \   000074   3400         ADDC    A,#0x0
   \   000076   F5..         MOV     ?V1,A
   \   000078   78..         MOV     R0,#?V0
   \   00007A   12....       LCALL   ?PUSH_XSTACK_I_TWO
   \   00007D   7421         MOV     A,#0x21
   \   00007F   12....       LCALL   ?XSTACK_DISP0_8
   \   000082   12....       LCALL   ?PUSH_XSTACK8_X_TWO
   \   000085   90....       MOV     DPTR,#ZDP_TxOptions
   \   000088   E0           MOVX    A,@DPTR
   \   000089   F9           MOV     R1,A
   \   00008A   7C..         MOV     R4,#ZDApp_epDesc & 0xff
   \   00008C   7D..         MOV     R5,#(ZDApp_epDesc >> 8) & 0xff
   \   00008E   7409         MOV     A,#0x9
   \   000090   12....       LCALL   ?XSTACK_DISP101_8
   \   000093   12....       LCALL   `??AF_DataRequest::?relay`; Banked call to: AF_DataRequest
   \   000096   7409         MOV     A,#0x9
   \   000098   12....       LCALL   ?DEALLOC_XSTACK8
   \   00009B   740C         MOV     A,#0xc
   \   00009D   02....       LJMP    ?Subroutine0 & 0xFFFF
    248          
    249          }

   \                                 In  segment BANKED_CODE, align 1, keep-with-next
   \                     ?Subroutine52:
   \   000000   12....       LCALL   ?Subroutine79 & 0xFFFF
   \                     ??CrossCallReturnLabel_272:
   \   000003   85..82       MOV     DPL,?XSP + 0
   \   000006   85..83       MOV     DPH,?XSP + 1
   \   000009   22           RET

   \                                 In  segment BANKED_CODE, align 1, keep-with-next
   \                     ?Subroutine0:
   \   000000   12....       LCALL   ?DEALLOC_XSTACK8
   \   000003                REQUIRE ??Subroutine105_0
   \   000003                ; // Fall through to label ??Subroutine105_0

   \                                 In  segment BANKED_CODE, align 1, keep-with-next
   \                     ??Subroutine105_0:
   \   000000   7F06         MOV     R7,#0x6
   \   000002   02....       LJMP    ?BANKED_LEAVE_XDATA

   \                                 In  segment BANKED_CODE, align 1, keep-with-next
   \                     ?Subroutine92:
   \   000000   F0           MOVX    @DPTR,A
   \   000001   8E82         MOV     DPL,R6
   \   000003   8F83         MOV     DPH,R7
   \   000005   A3           INC     DPTR
   \   000006   A3           INC     DPTR
   \   000007   A3           INC     DPTR
   \   000008   22           RET

   \                                 In  segment BANKED_CODE, align 1, keep-with-next
   \                     ?Subroutine21:
   \   000000   12....       LCALL   ?Subroutine92 & 0xFFFF
   \                     ??CrossCallReturnLabel_157:
   \   000003   A3           INC     DPTR
   \   000004   A3           INC     DPTR
   \   000005   A3           INC     DPTR
   \   000006   A3           INC     DPTR
   \   000007   A3           INC     DPTR
   \   000008   22           RET

   \                                 In  segment BANKED_CODE, align 1, keep-with-next
   \                     ?Subroutine29:
   \   000000   E8           MOV     A,R0
   \   000001   F0           MOVX    @DPTR,A
   \   000002   A3           INC     DPTR
   \   000003   E9           MOV     A,R1
   \   000004   F0           MOVX    @DPTR,A
   \   000005   22           RET

   \                                 In  segment BANKED_CODE, align 1, keep-with-next
   \                     ?Subroutine79:
   \   000000   12....       LCALL   ??Subroutine127_0 & 0xFFFF
   \                     ??CrossCallReturnLabel_280:
   \   000003   F9           MOV     R1,A
   \   000004   22           RET

   \                                 In  segment BANKED_CODE, align 1, keep-with-next
   \                     ??Subroutine127_0:
   \   000000   E0           MOVX    A,@DPTR
   \   000001   F8           MOV     R0,A
   \   000002   A3           INC     DPTR
   \   000003   E0           MOVX    A,@DPTR
   \   000004   22           RET
    250          
    251          /*********************************************************************
    252           * @fn          ZDP_SendData
    253           *
    254           * @brief       This builds and send a request message that has
    255           *              NWKAddrOfInterest as its only parameter.
    256           *
    257           * @param       dstAddr - destination address
    258           * @param       cmd - clusterID
    259           * @param       dataLen - number of bytes of data
    260           * @param       data - pointer to the data
    261           * @param       SecurityEnable - Security Options
    262           *
    263           * @return      afStatus_t
    264           */

   \                                 In  segment BANKED_CODE, align 1, keep-with-next
    265          afStatus_t ZDP_SendData( uint8 *TransSeq, zAddrType_t *dstAddr, uint16 cmd,
   \                     ZDP_SendData:
    266                                  byte len, uint8 *buf, byte SecurityEnable )
    267          {
   \   000000                REQUIRE ?V0
   \   000000                REQUIRE ?V2
   \   000000                REQUIRE ?V3
   \   000000   74F4         MOV     A,#-0xc
   \   000002   12....       LCALL   ?BANKED_ENTER_XDATA
   \   000005                ; Saved register size: 12
   \   000005                ; Auto size: 0
   \   000005   E9           MOV     A,R1
   \   000006   FF           MOV     R7,A
    268            uint8 *pBuf = ZDP_TmpBuf;
   \   000007   90....       MOV     DPTR,#ZDP_TmpBuf
   \   00000A   12....       LCALL   ?Subroutine53 & 0xFFFF
    269            byte cnt = len;
   \                     ??CrossCallReturnLabel_87:
   \   00000D   EF           MOV     A,R7
   \   00000E   FE           MOV     R6,A
   \   00000F   740E         MOV     A,#0xe
   \   000011   12....       LCALL   ?XSTACK_DISP0_8
   \   000014   12....       LCALL   ??Subroutine126_0 & 0xFFFF
   \                     ??CrossCallReturnLabel_259:
   \   000017   8020         SJMP    ??ZDP_SendData_0
    270          
    271            while ( cnt-- )
    272            {
    273              *pBuf++ = *buf++;
   \                     ??ZDP_SendData_1:
   \   000019   8882         MOV     DPL,R0
   \   00001B   8983         MOV     DPH,R1
   \   00001D   E0           MOVX    A,@DPTR
   \   00001E   85..82       MOV     DPL,?V2
   \   000021   85..83       MOV     DPH,?V3
   \   000024   12....       LCALL   ?Subroutine40 & 0xFFFF
    274            }
   \                     ??CrossCallReturnLabel_65:
   \   000027   A3           INC     DPTR
   \   000028   A882         MOV     R0,DPL
   \   00002A   A983         MOV     R1,DPH
   \   00002C   85..82       MOV     DPL,?V2
   \   00002F   85..83       MOV     DPH,?V3
   \   000032   A3           INC     DPTR
   \   000033   8582..       MOV     ?V2,DPL
   \   000036   8583..       MOV     ?V3,DPH
   \                     ??ZDP_SendData_0:
   \   000039   74FF         MOV     A,#-0x1
   \   00003B   2E           ADD     A,R6
   \   00003C   FE           MOV     R6,A
   \   00003D   04           INC     A
   \   00003E   70D9         JNZ     ??ZDP_SendData_1
    275          
    276            FillAndSendTxOptions( TransSeq, dstAddr, cmd, len, ((SecurityEnable) ? AF_EN_SECURITY : 0) );
   \   000040   7410         MOV     A,#0x10
   \   000042   12....       LCALL   ?XSTACK_DISP0_8
   \   000045   E0           MOVX    A,@DPTR
   \   000046   90....       MOV     DPTR,#ZDP_TxOptions
   \   000049   6004         JZ      ??ZDP_SendData_2
   \   00004B   7440         MOV     A,#0x40
   \   00004D   8001         SJMP    ??ZDP_SendData_3
   \                     ??ZDP_SendData_2:
   \   00004F   E4           CLR     A
   \                     ??ZDP_SendData_3:
   \   000050   F0           MOVX    @DPTR,A
   \   000051                ; Setup parameters for call to function fillAndSend
   \   000051   740C         MOV     A,#0xc
   \   000053   12....       LCALL   ?XSTACK_DISP0_8
   \   000056   12....       LCALL   ?PUSH_XSTACK8_X_TWO
   \   000059   EF           MOV     A,R7
   \   00005A   F9           MOV     R1,A
   \   00005B   12....       LCALL   `??fillAndSend::?relay`; Banked call to: fillAndSend
   \   00005E   7402         MOV     A,#0x2
   \   000060   12....       LCALL   ?DEALLOC_XSTACK8
   \   000063   E9           MOV     A,R1
   \   000064   F9           MOV     R1,A
   \   000065   90....       MOV     DPTR,#ZDP_TxOptions
   \   000068   E4           CLR     A
   \   000069   F0           MOVX    @DPTR,A
   \   00006A   02....       LJMP    ??Subroutine104_0 & 0xFFFF
    277          }

   \                                 In  segment BANKED_CODE, align 1, keep-with-next
   \                     ??Subroutine104_0:
   \   000000   7F04         MOV     R7,#0x4
   \   000002   02....       LJMP    ?BANKED_LEAVE_XDATA

   \                                 In  segment BANKED_CODE, align 1, keep-with-next
   \                     ?Subroutine40:
   \   000000   12....       LCALL   ?Subroutine99 & 0xFFFF
   \                     ??CrossCallReturnLabel_193:
   \   000003   22           RET

   \                                 In  segment BANKED_CODE, align 1, keep-with-next
   \                     ?Subroutine99:
   \   000000   F0           MOVX    @DPTR,A
   \   000001                ; Setup parameters for call to function osal_memcpy
   \   000001                ; Setup parameters for call to function osal_memcpy
   \   000001   8882         MOV     DPL,R0
   \   000003   8983         MOV     DPH,R1
   \   000005   22           RET

   \                                 In  segment BANKED_CODE, align 1, keep-with-next
   \                     ?Subroutine53:
   \   000000   E0           MOVX    A,@DPTR
   \   000001   F5..         MOV     ?V2,A
   \   000003   A3           INC     DPTR
   \   000004   E0           MOVX    A,@DPTR
   \   000005   F5..         MOV     ?V3,A
   \   000007   22           RET

   \                                 In  segment BANKED_CODE, align 1, keep-with-next
   \                     ??Subroutine126_0:
   \   000000   12....       LCALL   ?Subroutine79 & 0xFFFF
   \                     ??CrossCallReturnLabel_274:
   \   000003   22           RET
    278          
    279          /*********************************************************************
    280           * @fn          ZDP_NWKAddrOfInterestReq
    281           *
    282           * @brief       This builds and send a request message that has
    283           *              NWKAddrOfInterest as its only parameter.
    284           *
    285           * @param       dstAddr - destination address
    286           * @param       nwkAddr - 16 bit address
    287           * @param       SecurityEnable - Security Options
    288           *
    289           * @return      afStatus_t
    290           */

   \                                 In  segment BANKED_CODE, align 1, keep-with-next
    291          afStatus_t ZDP_NWKAddrOfInterestReq( zAddrType_t *dstAddr, uint16 nwkAddr,
   \                     ZDP_NWKAddrOfInterestReq:
    292                                               byte cmd, byte SecurityEnable )
    293          {
   \   000000                REQUIRE ?V0
   \   000000                REQUIRE ?V1
   \   000000   74F6         MOV     A,#-0xa
   \   000002   12....       LCALL   ?BANKED_ENTER_XDATA
   \   000005                ; Saved register size: 10
   \   000005                ; Auto size: 0
   \   000005   E9           MOV     A,R1
   \   000006   FE           MOV     R6,A
    294            (void)SecurityEnable;  // Intentionally unreferenced parameter
    295          
    296            ZDP_TmpBuf[0] = LO_UINT16( nwkAddr );
   \   000007   12....       LCALL   ?Subroutine18 & 0xFFFF
    297            ZDP_TmpBuf[1] = HI_UINT16( nwkAddr );
   \                     ??CrossCallReturnLabel_16:
   \   00000A   F0           MOVX    @DPTR,A
    298          
    299            return fillAndSend( &ZDP_TransID, dstAddr, cmd, 2 );
   \   00000B                ; Setup parameters for call to function fillAndSend
   \   00000B   8E..         MOV     ?V0,R6
   \   00000D   75..00       MOV     ?V1,#0x0
   \   000010   78..         MOV     R0,#?V0
   \   000012   12....       LCALL   ?PUSH_XSTACK_I_TWO
   \   000015   7902         MOV     R1,#0x2
   \   000017   02....       LJMP    ?Subroutine8 & 0xFFFF
    300          }

   \                                 In  segment BANKED_CODE, align 1, keep-with-next
   \                     ?Subroutine18:
   \   000000   12....       LCALL   ?Subroutine96 & 0xFFFF
   \                     ??CrossCallReturnLabel_162:
   \   000003   EC           MOV     A,R4
   \   000004   12....       LCALL   ?Subroutine75 & 0xFFFF
   \                     ??CrossCallReturnLabel_133:
   \   000007   ED           MOV     A,R5
   \   000008   22           RET

   \                                 In  segment BANKED_CODE, align 1, keep-with-next
   \                     ??Subroutine107_0:
   \   000000   12....       LCALL   ?DEALLOC_XSTACK8
   \   000003   7F02         MOV     R7,#0x2
   \   000005   02....       LJMP    ?BANKED_LEAVE_XDATA

   \                                 In  segment BANKED_CODE, align 1, keep-with-next
   \                     ?Subroutine8:
   \   000000   EA           MOV     A,R2
   \   000001   FC           MOV     R4,A
   \   000002   EB           MOV     A,R3
   \   000003   FD           MOV     R5,A
   \   000004   7A..         MOV     R2,#ZDP_TransID & 0xff
   \   000006   7B..         MOV     R3,#(ZDP_TransID >> 8) & 0xff
   \   000008                REQUIRE ??Subroutine110_0
   \   000008                ; // Fall through to label ??Subroutine110_0

   \                                 In  segment BANKED_CODE, align 1, keep-with-next
   \                     ??Subroutine110_0:
   \   000000   12....       LCALL   `??fillAndSend::?relay`; Banked call to: fillAndSend
   \   000003   7402         MOV     A,#0x2
   \   000005   02....       LJMP    ??Subroutine107_0 & 0xFFFF

   \                                 In  segment BANKED_CODE, align 1, keep-with-next
   \                     ?Subroutine75:
   \   000000   F0           MOVX    @DPTR,A
   \   000001   12....       LCALL   ?Subroutine96 & 0xFFFF
   \                     ??CrossCallReturnLabel_163:
   \   000004   A3           INC     DPTR
   \   000005   22           RET

   \                                 In  segment BANKED_CODE, align 1, keep-with-next
   \                     ?Subroutine96:
   \   000000   90....       MOV     DPTR,#ZDP_TmpBuf
   \   000003   E0           MOVX    A,@DPTR
   \   000004   F8           MOV     R0,A
   \   000005   A3           INC     DPTR
   \   000006   E0           MOVX    A,@DPTR
   \   000007   F583         MOV     DPH,A
   \   000009   8882         MOV     DPL,R0
   \   00000B   22           RET
    301          
    302          /*********************************************************************
    303           * Address Requests
    304           */
    305          
    306          /*********************************************************************
    307           * @fn          ZDP_NwkAddrReq
    308           *
    309           * @brief       This builds and send a NWK_addr_req message.  This
    310           *              function sends a broadcast message looking for a 16
    311           *              bit address with a 64 bit address as bait.
    312           *
    313           * @param       IEEEAddress - looking for this device
    314           * @param       SecurityEnable - Security Options
    315           *
    316           * @return      afStatus_t
    317           */

   \                                 In  segment BANKED_CODE, align 1, keep-with-next
    318          afStatus_t ZDP_NwkAddrReq( uint8 *IEEEAddress, byte ReqType,
   \                     ZDP_NwkAddrReq:
    319                                     byte StartIndex, byte SecurityEnable )
    320          {
   \   000000                REQUIRE ?V0
   \   000000                REQUIRE ?V1
   \   000000                REQUIRE ?V2
   \   000000                REQUIRE ?V3
   \   000000   74F4         MOV     A,#-0xc
   \   000002   12....       LCALL   ?BANKED_ENTER_XDATA
   \   000005                ; Saved register size: 12
   \   000005                ; Auto size: 9
   \   000005   74F7         MOV     A,#-0x9
   \   000007   12....       LCALL   ?ALLOC_XSTACK8
   \   00000A   EA           MOV     A,R2
   \   00000B   FE           MOV     R6,A
   \   00000C   EB           MOV     A,R3
   \   00000D   FF           MOV     R7,A
   \   00000E   89..         MOV     ?V2,R1
   \   000010   8C..         MOV     ?V3,R4
    321            uint8 *pBuf = ZDP_TmpBuf;
   \   000012   12....       LCALL   ?Subroutine44 & 0xFFFF
    322            byte len = Z_EXTADDR_LEN + 1 + 1;  // IEEEAddress + ReqType + StartIndex.
    323            zAddrType_t dstAddr;
    324          
    325            (void)SecurityEnable;  // Intentionally unreferenced parameter
    326          
    327            if ( osal_ExtAddrEqual( saveExtAddr, IEEEAddress ) == FALSE )
   \                     ??CrossCallReturnLabel_170:
   \   000015                ; Setup parameters for call to function sAddrExtCmp
   \   000015   EE           MOV     A,R6
   \   000016   FC           MOV     R4,A
   \   000017   EF           MOV     A,R7
   \   000018   FD           MOV     R5,A
   \   000019   7A..         MOV     R2,#saveExtAddr & 0xff
   \   00001B   7B..         MOV     R3,#(saveExtAddr >> 8) & 0xff
   \   00001D   12....       LCALL   `??sAddrExtCmp::?relay`; Banked call to: sAddrExtCmp
   \   000020   E9           MOV     A,R1
   \   000021   700A         JNZ     ??ZDP_NwkAddrReq_0
    328            {
    329              dstAddr.addrMode = AddrBroadcast;
   \   000023   7408         MOV     A,#0x8
   \   000025   12....       LCALL   ?XSTACK_DISP0_8
   \   000028   12....       LCALL   ?Subroutine88 & 0xFFFF
    330              dstAddr.addr.shortAddr = NWK_BROADCAST_SHORTADDR_DEVRXON;
    331            }
   \                     ??CrossCallReturnLabel_152:
   \   00002B   8012         SJMP    ??ZDP_NwkAddrReq_1
    332            else
    333            {
    334              dstAddr.addrMode = Addr16Bit;
   \                     ??ZDP_NwkAddrReq_0:
   \   00002D   7408         MOV     A,#0x8
   \   00002F   12....       LCALL   ?XSTACK_DISP0_8
   \   000032   7402         MOV     A,#0x2
   \   000034   F0           MOVX    @DPTR,A
    335              dstAddr.addr.shortAddr = ZDAppNwkAddr.addr.shortAddr;
   \   000035   90....       MOV     DPTR,#ZDAppNwkAddr
   \   000038   12....       LCALL   ?Subroutine52 & 0xFFFF
    336            }
   \                     ??CrossCallReturnLabel_86:
   \   00003B   E8           MOV     A,R0
   \   00003C   F0           MOVX    @DPTR,A
   \   00003D   A3           INC     DPTR
   \   00003E   E9           MOV     A,R1
   \                     ??ZDP_NwkAddrReq_1:
   \   00003F   F0           MOVX    @DPTR,A
    337          
    338            pBuf = osal_cpyExtAddr( pBuf, IEEEAddress );
   \   000040                ; Setup parameters for call to function sAddrExtCpy
   \   000040   EE           MOV     A,R6
   \   000041   FC           MOV     R4,A
   \   000042   EF           MOV     A,R7
   \   000043   FD           MOV     R5,A
   \   000044   AA..         MOV     R2,?V0
   \   000046   AB..         MOV     R3,?V1
   \   000048   12....       LCALL   `??sAddrExtCpy::?relay`; Banked call to: sAddrExtCpy
   \   00004B   8A82         MOV     DPL,R2
   \   00004D   8B83         MOV     DPH,R3
    339          
    340            *pBuf++ = ReqType;
   \   00004F   E5..         MOV     A,?V2
   \   000051   F0           MOVX    @DPTR,A
    341            *pBuf++ = StartIndex;
   \   000052   A3           INC     DPTR
   \   000053   E5..         MOV     A,?V3
   \   000055   F0           MOVX    @DPTR,A
    342          
    343            return fillAndSend( &ZDP_TransID, &dstAddr, NWK_addr_req, len );
   \   000056                ; Setup parameters for call to function fillAndSend
   \   000056   E4           CLR     A
   \   000057   F5..         MOV     ?V0,A
   \   000059   F5..         MOV     ?V1,A
   \   00005B   78..         MOV     R0,#?V0
   \   00005D   12....       LCALL   ?PUSH_XSTACK_I_TWO
   \   000060   790A         MOV     R1,#0xa
   \   000062   7402         MOV     A,#0x2
   \   000064   12....       LCALL   ?XSTACK_DISP102_8
   \   000067                REQUIRE ?Subroutine9
   \   000067                ; // Fall through to label ?Subroutine9
    344          }

   \                                 In  segment BANKED_CODE, align 1, keep-with-next
   \                     ?Subroutine9:
   \   000000   7A..         MOV     R2,#ZDP_TransID & 0xff
   \   000002   7B..         MOV     R3,#(ZDP_TransID >> 8) & 0xff
   \   000004   12....       LCALL   `??fillAndSend::?relay`; Banked call to: fillAndSend
   \   000007   7402         MOV     A,#0x2
   \   000009   12....       LCALL   ?DEALLOC_XSTACK8
   \   00000C   7409         MOV     A,#0x9
   \   00000E   80..         SJMP    ??Subroutine103_0

   \                                 In  segment BANKED_CODE, align 1, keep-with-next
   \                     ?Subroutine44:
   \   000000   90....       MOV     DPTR,#ZDP_TmpBuf
   \   000003                REQUIRE ??Subroutine101_0
   \   000003                ; // Fall through to label ??Subroutine101_0

   \                                 In  segment BANKED_CODE, align 1, keep-with-next
   \                     ??Subroutine101_0:
   \   000000   E0           MOVX    A,@DPTR
   \   000001   F5..         MOV     ?V0,A
   \   000003   A3           INC     DPTR
   \   000004   E0           MOVX    A,@DPTR
   \   000005   F5..         MOV     ?V1,A
   \   000007   22           RET

   \                                 In  segment BANKED_CODE, align 1, keep-with-next
   \                     ??Subroutine103_0:
   \   000000   12....       LCALL   ?DEALLOC_XSTACK8
   \   000003                REQUIRE ??Subroutine104_0
   \   000003                ; // Fall through to label ??Subroutine104_0

   \                                 In  segment BANKED_CODE, align 1, keep-with-next
   \                     ?Subroutine88:
   \   000000   740F         MOV     A,#0xf
   \   000002   F0           MOVX    @DPTR,A
   \   000003   85..82       MOV     DPL,?XSP + 0
   \   000006   85..83       MOV     DPH,?XSP + 1
   \   000009   74FD         MOV     A,#-0x3
   \   00000B   F0           MOVX    @DPTR,A
   \   00000C   A3           INC     DPTR
   \   00000D   74FF         MOV     A,#-0x1
   \   00000F   22           RET
    345          
    346          /*********************************************************************
    347           * @fn          ZDP_IEEEAddrReq
    348           *
    349           * @brief       This builds and send a IEEE_addr_req message.  This
    350           *              function sends a unicast message looking for a 64
    351           *              bit IEEE address with a 16 bit address as bait.
    352           *
    353           * @param       ReqType - ZDP_IEEEADDR_REQTYPE_SINGLE or
    354           *                        ZDP_IEEEADDR_REQTYPE_EXTENDED
    355           * @param       SecurityEnable - Security Options
    356           *
    357           * @return      afStatus_t
    358           */

   \                                 In  segment BANKED_CODE, align 1, keep-with-next
    359          afStatus_t ZDP_IEEEAddrReq( uint16 shortAddr, byte ReqType,
   \                     ZDP_IEEEAddrReq:
    360                                      byte StartIndex, byte SecurityEnable )
    361          {
   \   000000                REQUIRE ?V0
   \   000000                REQUIRE ?V1
   \   000000   74F6         MOV     A,#-0xa
   \   000002   12....       LCALL   ?BANKED_ENTER_XDATA
   \   000005                ; Saved register size: 10
   \   000005                ; Auto size: 9
   \   000005   74F7         MOV     A,#-0x9
   \   000007   12....       LCALL   ?ALLOC_XSTACK8
   \   00000A   E9           MOV     A,R1
   \   00000B   FE           MOV     R6,A
   \   00000C   EC           MOV     A,R4
   \   00000D   FF           MOV     R7,A
    362            uint8 *pBuf = ZDP_TmpBuf;
   \   00000E   12....       LCALL   ??Subroutine125_0 & 0xFFFF
    363            byte len = 2 + 1 + 1;  // shortAddr + ReqType + StartIndex.
    364            zAddrType_t dstAddr;
    365          
    366            (void)SecurityEnable;  // Intentionally unreferenced parameter
    367          
    368            dstAddr.addrMode = (afAddrMode_t)Addr16Bit;
   \                     ??CrossCallReturnLabel_269:
   \   000011   7408         MOV     A,#0x8
   \   000013   12....       LCALL   ?XSTACK_DISP0_8
   \   000016   7402         MOV     A,#0x2
   \   000018   F0           MOVX    @DPTR,A
    369            dstAddr.addr.shortAddr = shortAddr;
   \   000019   85..82       MOV     DPL,?XSP + 0
   \   00001C   85..83       MOV     DPH,?XSP + 1
   \   00001F   EA           MOV     A,R2
   \   000020   F0           MOVX    @DPTR,A
   \   000021   A3           INC     DPTR
   \   000022   EB           MOV     A,R3
   \   000023   F0           MOVX    @DPTR,A
    370          
    371            *pBuf++ = LO_UINT16( shortAddr );
   \   000024   EA           MOV     A,R2
   \   000025   8882         MOV     DPL,R0
   \   000027   8983         MOV     DPH,R1
   \   000029   F0           MOVX    @DPTR,A
    372            *pBuf++ = HI_UINT16( shortAddr );
   \   00002A   EB           MOV     A,R3
   \   00002B   12....       LCALL   ?Subroutine41 & 0xFFFF
    373          
    374            *pBuf++ = ReqType;
   \                     ??CrossCallReturnLabel_66:
   \   00002E   F0           MOVX    @DPTR,A
    375            *pBuf++ = StartIndex;
   \   00002F   EF           MOV     A,R7
   \   000030   8882         MOV     DPL,R0
   \   000032   8983         MOV     DPH,R1
   \   000034   A3           INC     DPTR
   \   000035   A3           INC     DPTR
   \   000036   A3           INC     DPTR
   \   000037   F0           MOVX    @DPTR,A
    376          
    377            return fillAndSend( &ZDP_TransID, &dstAddr, IEEE_addr_req, len );
   \   000038                ; Setup parameters for call to function fillAndSend
   \   000038   75..01       MOV     ?V0,#0x1
   \   00003B   75..00       MOV     ?V1,#0x0
   \   00003E   78..         MOV     R0,#?V0
   \   000040   12....       LCALL   ?PUSH_XSTACK_I_TWO
   \   000043   7904         MOV     R1,#0x4
   \   000045   02....       LJMP    ?Subroutine2 & 0xFFFF
    378          }

   \                                 In  segment BANKED_CODE, align 1, keep-with-next
   \                     ?Subroutine41:
   \   000000   A3           INC     DPTR
   \   000001   F0           MOVX    @DPTR,A
   \   000002   EE           MOV     A,R6
   \   000003   8882         MOV     DPL,R0
   \   000005   8983         MOV     DPH,R1
   \   000007   A3           INC     DPTR
   \   000008   A3           INC     DPTR
   \   000009   22           RET

   \                                 In  segment BANKED_CODE, align 1, keep-with-next
   \                     ?Subroutine2:
   \   000000   7402         MOV     A,#0x2
   \   000002   12....       LCALL   ?XSTACK_DISP102_8
   \   000005   7A..         MOV     R2,#ZDP_TransID & 0xff
   \   000007   7B..         MOV     R3,#(ZDP_TransID >> 8) & 0xff
   \   000009   12....       LCALL   `??fillAndSend::?relay`; Banked call to: fillAndSend
   \   00000C   7402         MOV     A,#0x2
   \   00000E   12....       LCALL   ?DEALLOC_XSTACK8
   \   000011                REQUIRE ??Subroutine106_0
   \   000011                ; // Fall through to label ??Subroutine106_0

   \                                 In  segment BANKED_CODE, align 1, keep-with-next
   \                     ??Subroutine106_0:
   \   000000   7409         MOV     A,#0x9
   \   000002                REQUIRE ??Subroutine107_0
   \   000002                ; // Fall through to label ??Subroutine107_0

   \                                 In  segment BANKED_CODE, align 1, keep-with-next
   \                     ??Subroutine125_0:
   \   000000   90....       MOV     DPTR,#ZDP_TmpBuf
   \   000003                REQUIRE ??Subroutine126_0
   \   000003                ; // Fall through to label ??Subroutine126_0
    379          
    380          /*********************************************************************
    381           * @fn          ZDP_MatchDescReq
    382           *
    383           * @brief       This builds and send a Match_Desc_req message.  This
    384           *              function sends a broadcast or unicast message
    385           *              requesting the list of endpoint/interfaces that
    386           *              match profile ID and cluster IDs.
    387           *
    388           * @param       dstAddr - destination address
    389           * @param       nwkAddr - network address of interest
    390           * @param       ProfileID - Profile ID
    391           * @param       NumInClusters - number of input clusters
    392           * @param       InClusterList - input cluster ID list
    393           * @param       NumOutClusters - number of output clusters
    394           * @param       OutClusterList - output cluster ID list
    395           * @param       SecurityEnable - Security Options
    396           *
    397           * @return      afStatus_t
    398           */

   \                                 In  segment BANKED_CODE, align 1, keep-with-next
    399          afStatus_t ZDP_MatchDescReq( zAddrType_t *dstAddr, uint16 nwkAddr,
   \                     ZDP_MatchDescReq:
    400                                          uint16 ProfileID,
    401                                          byte NumInClusters, cId_t *InClusterList,
    402                                          byte NumOutClusters, cId_t *OutClusterList,
    403                                          byte SecurityEnable )
    404          {
   \   000000                REQUIRE ?V0
   \   000000                REQUIRE ?V1
   \   000000                REQUIRE ?V2
   \   000000                REQUIRE ?V3
   \   000000                REQUIRE ?V4
   \   000000                REQUIRE ?V5
   \   000000   74F2         MOV     A,#-0xe
   \   000002   12....       LCALL   ?BANKED_ENTER_XDATA
   \   000005                ; Saved register size: 14
   \   000005                ; Auto size: 0
   \   000005   12....       LCALL   ?Subroutine60 & 0xFFFF
    405            uint8 *pBuf = ZDP_TmpBuf;
   \                     ??CrossCallReturnLabel_257:
   \   000008   7412         MOV     A,#0x12
   \   00000A   12....       LCALL   ?XSTACK_DISP0_8
   \   00000D   E0           MOVX    A,@DPTR
   \   00000E   F5..         MOV     ?V0,A
    406            // nwkAddr+ProfileID+NumInClusters+NumOutClusters.
    407            byte i, len = 2 + 2 + 1 + 1;  // nwkAddr+ProfileID+NumInClusters+NumOutClusters.
    408          
    409            (void)SecurityEnable;  // Intentionally unreferenced parameter
    410          
    411            len += (NumInClusters + NumOutClusters) * sizeof(uint16);
   \   000010   EE           MOV     A,R6
   \   000011   25..         ADD     A,?V0
   \   000013   C3           CLR     C
   \   000014   33           RLC     A
   \   000015   2406         ADD     A,#0x6
   \   000017   FF           MOV     R7,A
    412          
    413            if ( len >= ZDP_BUF_SZ-1 )
   \   000018   C3           CLR     C
   \   000019   944F         SUBB    A,#0x4f
   \   00001B   4005         JC      ??ZDP_MatchDescReq_0
    414            {
    415              return afStatus_MEM_FAIL;
   \   00001D   7910         MOV     R1,#0x10
   \   00001F   02....       LJMP    ??ZDP_MatchDescReq_1 & 0xFFFF
    416            }
    417          
    418            // The spec changed in Zigbee 2007 (2.4.3.1.7.1) to not allow sending
    419            // this command to 0xFFFF.  So, here we will filter this and replace
    420            // with 0xFFFD to only send to devices with RX ON.  This includes the
    421            // network address of interest.
    422            if ( ((dstAddr->addrMode == AddrBroadcast) || (dstAddr->addrMode == Addr16Bit))
    423                && (dstAddr->addr.shortAddr == NWK_BROADCAST_SHORTADDR_DEVALL) )
   \                     ??ZDP_MatchDescReq_0:
   \   000022   8A82         MOV     DPL,R2
   \   000024   8B83         MOV     DPH,R3
   \   000026   A3           INC     DPTR
   \   000027   A3           INC     DPTR
   \   000028   A3           INC     DPTR
   \   000029   A3           INC     DPTR
   \   00002A   A3           INC     DPTR
   \   00002B   A3           INC     DPTR
   \   00002C   A3           INC     DPTR
   \   00002D   A3           INC     DPTR
   \   00002E   E0           MOVX    A,@DPTR
   \   00002F   F5..         MOV     ?V1,A
   \   000031   740F         MOV     A,#0xf
   \   000033   65..         XRL     A,?V1
   \   000035   6006         JZ      ??ZDP_MatchDescReq_2
   \   000037   7402         MOV     A,#0x2
   \   000039   65..         XRL     A,?V1
   \   00003B   7018         JNZ     ??ZDP_MatchDescReq_3
   \                     ??ZDP_MatchDescReq_2:
   \   00003D   8A82         MOV     DPL,R2
   \   00003F   8B83         MOV     DPH,R3
   \   000041   E0           MOVX    A,@DPTR
   \   000042   F4           CPL     A
   \   000043   7003         JNZ     ??ZDP_MatchDescReq_4
   \   000045   A3           INC     DPTR
   \   000046   E0           MOVX    A,@DPTR
   \   000047   F4           CPL     A
   \                     ??ZDP_MatchDescReq_4:
   \   000048   700B         JNZ     ??ZDP_MatchDescReq_3
    424            {
    425              dstAddr->addr.shortAddr = NWK_BROADCAST_SHORTADDR_DEVRXON;
   \   00004A   8A82         MOV     DPL,R2
   \   00004C   8B83         MOV     DPH,R3
   \   00004E   74FD         MOV     A,#-0x3
   \   000050   F0           MOVX    @DPTR,A
   \   000051   A3           INC     DPTR
   \   000052   74FF         MOV     A,#-0x1
   \   000054   F0           MOVX    @DPTR,A
    426            }
    427            if ( nwkAddr == NWK_BROADCAST_SHORTADDR_DEVALL )
   \                     ??ZDP_MatchDescReq_3:
   \   000055   74FF         MOV     A,#-0x1
   \   000057   6C           XRL     A,R4
   \   000058   7003         JNZ     ??ZDP_MatchDescReq_5
   \   00005A   74FF         MOV     A,#-0x1
   \   00005C   6D           XRL     A,R5
   \                     ??ZDP_MatchDescReq_5:
   \   00005D   7004         JNZ     ??ZDP_MatchDescReq_6
    428            {
    429              nwkAddr = NWK_BROADCAST_SHORTADDR_DEVRXON;
   \   00005F   7CFD         MOV     R4,#-0x3
   \   000061   7DFF         MOV     R5,#-0x1
    430            }
    431          
    432            *pBuf++ = LO_UINT16( nwkAddr );   // NWKAddrOfInterest
   \                     ??ZDP_MatchDescReq_6:
   \   000063   EC           MOV     A,R4
   \   000064   8882         MOV     DPL,R0
   \   000066   8983         MOV     DPH,R1
   \   000068   F0           MOVX    @DPTR,A
    433            *pBuf++ = HI_UINT16( nwkAddr );
   \   000069   ED           MOV     A,R5
   \   00006A   A3           INC     DPTR
   \   00006B   F0           MOVX    @DPTR,A
   \   00006C   740E         MOV     A,#0xe
   \   00006E   12....       LCALL   ?XSTACK_DISP0_8
   \   000071   12....       LCALL   ?Subroutine80 & 0xFFFF
    434          
    435            *pBuf++ = LO_UINT16( ProfileID );   // Profile ID
   \                     ??CrossCallReturnLabel_140:
   \   000074   EC           MOV     A,R4
   \   000075   8882         MOV     DPL,R0
   \   000077   8983         MOV     DPH,R1
   \   000079   A3           INC     DPTR
   \   00007A   A3           INC     DPTR
   \   00007B   F0           MOVX    @DPTR,A
    436            *pBuf++ = HI_UINT16( ProfileID );
   \   00007C   ED           MOV     A,R5
   \   00007D   8882         MOV     DPL,R0
   \   00007F   8983         MOV     DPH,R1
   \   000081   A3           INC     DPTR
   \   000082   A3           INC     DPTR
   \   000083   12....       LCALL   ?Subroutine41 & 0xFFFF
    437          
    438            *pBuf++ = NumInClusters; // Input cluster list
   \                     ??CrossCallReturnLabel_67:
   \   000086   A3           INC     DPTR
   \   000087   A3           INC     DPTR
   \   000088   F0           MOVX    @DPTR,A
   \   000089   E8           MOV     A,R0
   \   00008A   2405         ADD     A,#0x5
   \   00008C   F8           MOV     R0,A
   \   00008D   5001         JNC     ??ZDP_MatchDescReq_7
   \   00008F   09           INC     R1
    439            if ( NumInClusters )
   \                     ??ZDP_MatchDescReq_7:
   \   000090   EE           MOV     A,R6
   \   000091   6019         JZ      ??ZDP_MatchDescReq_8
    440            {
    441              for (i=0; i<NumInClusters; ++i)  {
   \   000093   75..00       MOV     ?V1,#0x0
   \   000096   7410         MOV     A,#0x10
   \   000098   12....       LCALL   ?XSTACK_DISP0_8
   \   00009B   12....       LCALL   ?Subroutine61 & 0xFFFF
    442                *pBuf++ = LO_UINT16( InClusterList[i] );
   \                     ??CrossCallReturnLabel_100:
   \   00009E   12....       LCALL   ?Subroutine12 & 0xFFFF
    443                *pBuf++ = HI_UINT16( InClusterList[i] );
    444              }
   \                     ??CrossCallReturnLabel_4:
   \   0000A1   5001         JNC     ??ZDP_MatchDescReq_9
   \   0000A3   09           INC     R1
   \                     ??ZDP_MatchDescReq_9:
   \   0000A4   05..         INC     ?V1
   \   0000A6   E5..         MOV     A,?V1
   \   0000A8   C3           CLR     C
   \   0000A9   9E           SUBB    A,R6
   \   0000AA   40F2         JC      ??CrossCallReturnLabel_100
    445            }
    446          
    447            *pBuf++ = NumOutClusters; // Output cluster list
   \                     ??ZDP_MatchDescReq_8:
   \   0000AC   8882         MOV     DPL,R0
   \   0000AE   8983         MOV     DPH,R1
   \   0000B0   E5..         MOV     A,?V0
   \   0000B2   F0           MOVX    @DPTR,A
   \   0000B3   A3           INC     DPTR
   \   0000B4   A882         MOV     R0,DPL
   \   0000B6   A983         MOV     R1,DPH
    448            if ( NumOutClusters )
   \   0000B8   601A         JZ      ??ZDP_MatchDescReq_10
    449            {
    450              for (i=0; i<NumOutClusters; ++i)  {
   \   0000BA   75..00       MOV     ?V1,#0x0
   \   0000BD   7413         MOV     A,#0x13
   \   0000BF   12....       LCALL   ?XSTACK_DISP0_8
   \   0000C2   12....       LCALL   ?Subroutine61 & 0xFFFF
    451                *pBuf++ = LO_UINT16( OutClusterList[i] );
   \                     ??CrossCallReturnLabel_101:
   \   0000C5   12....       LCALL   ?Subroutine12 & 0xFFFF
    452                *pBuf++ = HI_UINT16( OutClusterList[i] );
    453              }
   \                     ??CrossCallReturnLabel_5:
   \   0000C8   5001         JNC     ??ZDP_MatchDescReq_11
   \   0000CA   09           INC     R1
   \                     ??ZDP_MatchDescReq_11:
   \   0000CB   05..         INC     ?V1
   \   0000CD   E5..         MOV     A,?V1
   \   0000CF   C3           CLR     C
   \   0000D0   95..         SUBB    A,?V0
   \   0000D2   40F1         JC      ??CrossCallReturnLabel_101
    454            }
    455          
    456            return fillAndSend( &ZDP_TransID, dstAddr, Match_Desc_req, len );
   \                     ??ZDP_MatchDescReq_10:
   \   0000D4                ; Setup parameters for call to function fillAndSend
   \   0000D4   75..06       MOV     ?V0,#0x6
   \   0000D7   75..00       MOV     ?V1,#0x0
   \   0000DA   78..         MOV     R0,#?V0
   \   0000DC   12....       LCALL   ?PUSH_XSTACK_I_TWO
   \   0000DF   EF           MOV     A,R7
   \   0000E0   F9           MOV     R1,A
   \   0000E1   EA           MOV     A,R2
   \   0000E2   FC           MOV     R4,A
   \   0000E3   EB           MOV     A,R3
   \   0000E4   FD           MOV     R5,A
   \   0000E5   7A..         MOV     R2,#ZDP_TransID & 0xff
   \   0000E7   7B..         MOV     R3,#(ZDP_TransID >> 8) & 0xff
   \   0000E9   12....       LCALL   `??fillAndSend::?relay`; Banked call to: fillAndSend
   \   0000EC   7402         MOV     A,#0x2
   \   0000EE   12....       LCALL   ?DEALLOC_XSTACK8
   \                     ??ZDP_MatchDescReq_1:
   \   0000F1   80..         SJMP    ??Subroutine105_0
    457          }

   \                                 In  segment BANKED_CODE, align 1, keep-with-next
   \                     ?Subroutine61:
   \   000000   12....       LCALL   ?Subroutine80 & 0xFFFF
   \                     ??CrossCallReturnLabel_143:
   \   000003   8C..         MOV     ?V2,R4
   \   000005   8D..         MOV     ?V3,R5
   \   000007   22           RET

   \                                 In  segment BANKED_CODE, align 1, keep-with-next
   \                     ?Subroutine12:
   \   000000   AC..         MOV     R4,?V1
   \   000002   EC           MOV     A,R4
   \   000003   2C           ADD     A,R4
   \   000004   FC           MOV     R4,A
   \   000005   E4           CLR     A
   \   000006   33           RLC     A
   \   000007   FD           MOV     R5,A
   \   000008   E5..         MOV     A,?V2
   \   00000A   2C           ADD     A,R4
   \   00000B   FC           MOV     R4,A
   \   00000C   E5..         MOV     A,?V3
   \   00000E   3D           ADDC    A,R5
   \   00000F   FD           MOV     R5,A
   \   000010   8C82         MOV     DPL,R4
   \   000012   8D83         MOV     DPH,R5
   \   000014   12....       LCALL   ??Subroutine122_0 & 0xFFFF
   \                     ??CrossCallReturnLabel_241:
   \   000017   12....       LCALL   ?Subroutine89 & 0xFFFF
   \                     ??CrossCallReturnLabel_201:
   \   00001A   12....       LCALL   ?Subroutine84 & 0xFFFF
   \                     ??CrossCallReturnLabel_243:
   \   00001D   A3           INC     DPTR
   \   00001E   F0           MOVX    @DPTR,A
   \   00001F   E8           MOV     A,R0
   \   000020   2402         ADD     A,#0x2
   \   000022   F8           MOV     R0,A
   \   000023   22           RET

   \                                 In  segment BANKED_CODE, align 1, keep-with-next
   \                     ?Subroutine89:
   \   000000   F0           MOVX    @DPTR,A
   \   000001   8C82         MOV     DPL,R4
   \   000003   8D83         MOV     DPH,R5
   \   000005   22           RET

   \                                 In  segment BANKED_CODE, align 1, keep-with-next
   \                     ?Subroutine80:
   \   000000   E0           MOVX    A,@DPTR
   \   000001   FC           MOV     R4,A
   \   000002   A3           INC     DPTR
   \   000003   E0           MOVX    A,@DPTR
   \   000004   FD           MOV     R5,A
   \   000005   22           RET

   \                                 In  segment BANKED_CODE, align 1, keep-with-next
   \                     ?Subroutine84:
   \   000000   A3           INC     DPTR
   \   000001                REQUIRE ??Subroutine122_0
   \   000001                ; // Fall through to label ??Subroutine122_0

   \                                 In  segment BANKED_CODE, align 1, keep-with-next
   \                     ??Subroutine122_0:
   \   000000   E0           MOVX    A,@DPTR
   \   000001   8882         MOV     DPL,R0
   \   000003   8983         MOV     DPH,R1
   \   000005   22           RET

   \                                 In  segment BANKED_CODE, align 1, keep-with-next
   \                     ?Subroutine60:
   \   000000   E9           MOV     A,R1
   \   000001   FE           MOV     R6,A
   \   000002                REQUIRE ??Subroutine125_0
   \   000002                ; // Fall through to label ??Subroutine125_0
    458          
    459          /*********************************************************************
    460           * @fn          ZDP_SimpleDescReq
    461           *
    462           * @brief       This builds and send a NWK_Simple_Desc_req
    463           *              message.  This function sends unicast message to the
    464           *              destination device.
    465           *
    466           * @param       dstAddr - destination address
    467           * @param       nwkAddr - 16 bit address
    468           * @param       epIntf - endpoint/interface
    469           * @param       SecurityEnable - Security Options
    470           *
    471           * @return      afStatus_t
    472           */

   \                                 In  segment BANKED_CODE, align 1, keep-with-next
    473          afStatus_t ZDP_SimpleDescReq( zAddrType_t *dstAddr, uint16 nwkAddr,
   \                     ZDP_SimpleDescReq:
    474                                              byte endPoint, byte SecurityEnable )
    475          
    476          {
   \   000000                REQUIRE ?V0
   \   000000                REQUIRE ?V1
   \   000000   74F6         MOV     A,#-0xa
   \   000002   12....       LCALL   ?BANKED_ENTER_XDATA
   \   000005                ; Saved register size: 10
   \   000005                ; Auto size: 0
    477            (void)SecurityEnable;  // Intentionally unreferenced parameter
    478          
    479            ZDP_TmpBuf[0] = LO_UINT16( nwkAddr );
   \   000005   12....       LCALL   ?Subroutine18 & 0xFFFF
    480            ZDP_TmpBuf[1] = HI_UINT16( nwkAddr );
   \                     ??CrossCallReturnLabel_17:
   \   000008   12....       LCALL   ?Subroutine13 & 0xFFFF
    481            ZDP_TmpBuf[2] = endPoint;
    482          
    483            return fillAndSend( &ZDP_TransID, dstAddr, Simple_Desc_req, 3 );
   \                     ??CrossCallReturnLabel_6:
   \   00000B                ; Setup parameters for call to function fillAndSend
   \   00000B   75..04       MOV     ?V0,#0x4
   \   00000E   75..00       MOV     ?V1,#0x0
   \   000011   78..         MOV     R0,#?V0
   \   000013   12....       LCALL   ?PUSH_XSTACK_I_TWO
   \   000016   7903         MOV     R1,#0x3
   \   000018   02....       LJMP    ?Subroutine8 & 0xFFFF
    484          }

   \                                 In  segment BANKED_CODE, align 1, keep-with-next
   \                     ?Subroutine13:
   \   000000   12....       LCALL   ?Subroutine75 & 0xFFFF
   \                     ??CrossCallReturnLabel_134:
   \   000003   A3           INC     DPTR
   \   000004   E9           MOV     A,R1
   \   000005   F0           MOVX    @DPTR,A
   \   000006   22           RET
    485          
    486          /*********************************************************************
    487           * @fn          ZDP_UserDescSet
    488           *
    489           * @brief       This builds and send a User_Desc_set message to set
    490           *              the user descriptor.  This function sends unicast
    491           *              message to the destination device.
    492           *
    493           * @param       dstAddr - destination address
    494           * @param       nwkAddr - 16 bit address
    495           * @param       UserDescriptor - user descriptor
    496           * @param       SecurityEnable - Security Options
    497           *
    498           * @return      afStatus_t
    499           */

   \                                 In  segment BANKED_CODE, align 1, keep-with-next
    500          afStatus_t ZDP_UserDescSet( zAddrType_t *dstAddr, uint16 nwkAddr,
   \                     ZDP_UserDescSet:
    501                                    UserDescriptorFormat_t *UserDescriptor,
    502                                    byte SecurityEnable )
    503          {
   \   000000                REQUIRE ?V0
   \   000000                REQUIRE ?V1
   \   000000                REQUIRE ?V2
   \   000000                REQUIRE ?V4
   \   000000                REQUIRE ?V5
   \   000000                REQUIRE ?V6
   \   000000   74F1         MOV     A,#-0xf
   \   000002   12....       LCALL   ?BANKED_ENTER_XDATA
   \   000005                ; Saved register size: 15
   \   000005                ; Auto size: 0
   \   000005   12....       LCALL   ?Subroutine57 & 0xFFFF
    504            uint8 *pBuf = ZDP_TmpBuf;
   \                     ??CrossCallReturnLabel_94:
   \   000008   740F         MOV     A,#0xf
   \   00000A   12....       LCALL   ?XSTACK_DISP0_8
   \   00000D   12....       LCALL   ?Subroutine47 & 0xFFFF
    505            byte len = (UserDescriptor->len < AF_MAX_USER_DESCRIPTOR_LEN) ?
    506                        UserDescriptor->len : AF_MAX_USER_DESCRIPTOR_LEN;
   \                     ??CrossCallReturnLabel_76:
   \   000010   FA           MOV     R2,A
   \   000011   C3           CLR     C
   \   000012   9410         SUBB    A,#0x10
   \   000014   5004         JNC     ??ZDP_UserDescSet_0
   \   000016   8A..         MOV     ?V2,R2
   \   000018   8003         SJMP    ??ZDP_UserDescSet_1
   \                     ??ZDP_UserDescSet_0:
   \   00001A   75..10       MOV     ?V2,#0x10
    507            byte addrLen = 2;
    508          
    509            (void)SecurityEnable;  // Intentionally unreferenced parameter
    510          
    511            *pBuf++ = LO_UINT16( nwkAddr );
   \                     ??ZDP_UserDescSet_1:
   \   00001D   EC           MOV     A,R4
   \   00001E   85..82       MOV     DPL,?V0
   \   000021   85..83       MOV     DPH,?V1
   \   000024   F0           MOVX    @DPTR,A
    512            *pBuf++ = HI_UINT16( nwkAddr );
   \   000025   ED           MOV     A,R5
   \   000026   12....       LCALL   ?Subroutine34 & 0xFFFF
    513          
    514            *pBuf++ = len;
   \                     ??CrossCallReturnLabel_52:
   \   000029   E5..         MOV     A,?V2
   \   00002B   12....       LCALL   ?Subroutine10 & 0xFFFF
    515            addrLen = 3;
    516          
    517            pBuf = osal_memcpy( pBuf, UserDescriptor->desc, len );
   \                     ??CrossCallReturnLabel_0:
   \   00002E   12....       LCALL   ?PUSH_XSTACK_I_THREE
   \   000031   AC..         MOV     R4,?V2
   \   000033   7D00         MOV     R5,#0x0
   \   000035   E5..         MOV     A,?V0
   \   000037   2403         ADD     A,#0x3
   \   000039   FA           MOV     R2,A
   \   00003A   E4           CLR     A
   \   00003B   35..         ADDC    A,?V1
   \   00003D   FB           MOV     R3,A
   \   00003E   12....       LCALL   `??osal_memcpy::?relay`; Banked call to: osal_memcpy
   \   000041   7403         MOV     A,#0x3
   \   000043   12....       LCALL   ?DEALLOC_XSTACK8
    518            osal_memset( pBuf, AF_USER_DESCRIPTOR_FILL, AF_MAX_USER_DESCRIPTOR_LEN-len );
   \   000046                ; Setup parameters for call to function osal_memset
   \   000046   A8..         MOV     R0,?V2
   \   000048   7410         MOV     A,#0x10
   \   00004A   C3           CLR     C
   \   00004B   98           SUBB    A,R0
   \   00004C   FC           MOV     R4,A
   \   00004D   95E0         SUBB    A,0xE0 /* A   */
   \   00004F   FD           MOV     R5,A
   \   000050   7920         MOV     R1,#0x20
   \   000052   12....       LCALL   `??osal_memset::?relay`; Banked call to: osal_memset
    519          
    520            return fillAndSend( &ZDP_TransID, dstAddr, User_Desc_set, (AF_MAX_USER_DESCRIPTOR_LEN + addrLen) );
   \   000055                ; Setup parameters for call to function fillAndSend
   \   000055   75..14       MOV     ?V0,#0x14
   \   000058   75..00       MOV     ?V1,#0x0
   \   00005B   78..         MOV     R0,#?V0
   \   00005D   12....       LCALL   ?PUSH_XSTACK_I_TWO
   \   000060   7913         MOV     R1,#0x13
   \   000062   EE           MOV     A,R6
   \   000063   FC           MOV     R4,A
   \   000064   EF           MOV     A,R7
   \   000065   FD           MOV     R5,A
   \   000066   7A..         MOV     R2,#ZDP_TransID & 0xff
   \   000068   7B..         MOV     R3,#(ZDP_TransID >> 8) & 0xff
   \   00006A   12....       LCALL   `??fillAndSend::?relay`; Banked call to: fillAndSend
   \   00006D   7402         MOV     A,#0x2
   \   00006F                REQUIRE ?Subroutine3
   \   00006F                ; // Fall through to label ?Subroutine3
    521          }

   \                                 In  segment BANKED_CODE, align 1, keep-with-next
   \                     ?Subroutine3:
   \   000000   12....       LCALL   ?DEALLOC_XSTACK8
   \   000003   7F07         MOV     R7,#0x7
   \   000005   02....       LJMP    ?BANKED_LEAVE_XDATA

   \                                 In  segment BANKED_CODE, align 1, keep-with-next
   \                     ?Subroutine47:
   \   000000   12....       LCALL   ?Subroutine79 & 0xFFFF
   \                     ??CrossCallReturnLabel_271:
   \   000003   8882         MOV     DPL,R0
   \   000005   8983         MOV     DPH,R1
   \   000007   E0           MOVX    A,@DPTR
   \   000008   22           RET

   \                                 In  segment BANKED_CODE, align 1, keep-with-next
   \                     ?Subroutine91:
   \   000000   12....       LCALL   ?Subroutine99 & 0xFFFF
   \                     ??CrossCallReturnLabel_192:
   \   000003   A3           INC     DPTR
   \   000004   22           RET

   \                                 In  segment BANKED_CODE, align 1, keep-with-next
   \                     ?Subroutine57:
   \   000000   EA           MOV     A,R2
   \   000001   FE           MOV     R6,A
   \   000002   EB           MOV     A,R3
   \   000003   FF           MOV     R7,A
   \   000004   90....       MOV     DPTR,#ZDP_TmpBuf
   \   000007   12....       LCALL   ?Subroutine79 & 0xFFFF
   \                     ??CrossCallReturnLabel_273:
   \   00000A   88..         MOV     ?V0,R0
   \   00000C   89..         MOV     ?V1,R1
   \   00000E   22           RET

   \                                 In  segment BANKED_CODE, align 1, keep-with-next
   \                     ?Subroutine10:
   \   000000   12....       LCALL   ?Subroutine91 & 0xFFFF
   \                     ??CrossCallReturnLabel_186:
   \   000003   A982         MOV     R1,DPL
   \   000005   AA83         MOV     R2,DPH
   \   000007   89..         MOV     ?V4,R1
   \   000009   8A..         MOV     ?V5,R2
   \   00000B   75..00       MOV     ?V6,#0x0
   \   00000E   78..         MOV     R0,#?V4
   \   000010   22           RET

   \                                 In  segment BANKED_CODE, align 1, keep-with-next
   \                     ?Subroutine34:
   \   000000   A3           INC     DPTR
   \   000001   F0           MOVX    @DPTR,A
   \   000002   85..82       MOV     DPL,?V0
   \   000005   85..83       MOV     DPH,?V1
   \   000008   A3           INC     DPTR
   \   000009   A3           INC     DPTR
   \   00000A   22           RET
    522          
    523          /*********************************************************************
    524           * @fn          ZDP_ServerDiscReq
    525           *
    526           * @brief       Build and send a Server_Discovery_req request message.
    527           *
    528           * @param       serverMask - 16-bit bit-mask of server services being sought.
    529           * @param       SecurityEnable - Security Options
    530           *
    531           * @return      afStatus_t
    532           */

   \                                 In  segment BANKED_CODE, align 1, keep-with-next
    533          afStatus_t ZDP_ServerDiscReq( uint16 serverMask, byte SecurityEnable )
   \                     ZDP_ServerDiscReq:
    534          {
   \   000000                REQUIRE ?V0
   \   000000                REQUIRE ?V1
   \   000000   74F6         MOV     A,#-0xa
   \   000002   12....       LCALL   ?BANKED_ENTER_XDATA
   \   000005                ; Saved register size: 10
   \   000005                ; Auto size: 9
   \   000005   74F7         MOV     A,#-0x9
   \   000007   12....       LCALL   ?ALLOC_XSTACK8
   \   00000A   12....       LCALL   ?Subroutine60 & 0xFFFF
    535            uint8 *pBuf = ZDP_TmpBuf;
    536            zAddrType_t dstAddr;
    537          
    538            dstAddr.addrMode = AddrBroadcast;
   \                     ??CrossCallReturnLabel_258:
   \   00000D   7408         MOV     A,#0x8
   \   00000F   12....       LCALL   ?XSTACK_DISP0_8
   \   000012   12....       LCALL   ?Subroutine19 & 0xFFFF
    539            dstAddr.addr.shortAddr = NWK_BROADCAST_SHORTADDR_DEVRXON;
    540          
    541            *pBuf++ = LO_UINT16( serverMask );
   \                     ??CrossCallReturnLabel_18:
   \   000015   EA           MOV     A,R2
   \   000016   8882         MOV     DPL,R0
   \   000018   8983         MOV     DPH,R1
   \   00001A   F0           MOVX    @DPTR,A
    542            *pBuf = HI_UINT16( serverMask );
   \   00001B   EB           MOV     A,R3
   \   00001C   A3           INC     DPTR
   \   00001D   F0           MOVX    @DPTR,A
    543          
    544            FillAndSendTxOptions( &ZDP_TransID, &dstAddr, Server_Discovery_req, 2,
    545                       ((SecurityEnable) ? AF_EN_SECURITY : AF_TX_OPTIONS_NONE) );
   \   00001E   EE           MOV     A,R6
   \   00001F   90....       MOV     DPTR,#ZDP_TxOptions
   \   000022   6004         JZ      ??ZDP_ServerDiscReq_0
   \   000024   7440         MOV     A,#0x40
   \   000026   8001         SJMP    ??ZDP_ServerDiscReq_1
   \                     ??ZDP_ServerDiscReq_0:
   \   000028   E4           CLR     A
   \                     ??ZDP_ServerDiscReq_1:
   \   000029   F0           MOVX    @DPTR,A
   \   00002A                ; Setup parameters for call to function fillAndSend
   \   00002A   75..15       MOV     ?V0,#0x15
   \   00002D   75..00       MOV     ?V1,#0x0
   \   000030   78..         MOV     R0,#?V0
   \   000032   12....       LCALL   ?PUSH_XSTACK_I_TWO
   \   000035   7902         MOV     R1,#0x2
   \   000037   E9           MOV     A,R1
   \   000038   12....       LCALL   ?XSTACK_DISP102_8
   \   00003B   7A..         MOV     R2,#ZDP_TransID & 0xff
   \   00003D   7B..         MOV     R3,#(ZDP_TransID >> 8) & 0xff
   \   00003F   12....       LCALL   `??fillAndSend::?relay`; Banked call to: fillAndSend
   \   000042   7402         MOV     A,#0x2
   \   000044   12....       LCALL   ?DEALLOC_XSTACK8
   \   000047   E9           MOV     A,R1
   \   000048   F9           MOV     R1,A
   \   000049   90....       MOV     DPTR,#ZDP_TxOptions
   \   00004C   E4           CLR     A
   \   00004D   F0           MOVX    @DPTR,A
   \   00004E   02....       LJMP    ??Subroutine106_0 & 0xFFFF
    546          }

   \                                 In  segment BANKED_CODE, align 1, keep-with-next
   \                     ?Subroutine19:
   \   000000   12....       LCALL   ?Subroutine88 & 0xFFFF
   \                     ??CrossCallReturnLabel_153:
   \   000003   F0           MOVX    @DPTR,A
   \   000004   22           RET
    547          
    548          /*********************************************************************
    549           * @fn          ZDP_DeviceAnnce
    550           *
    551           * @brief       This builds and send a Device_Annce message.  This
    552           *              function sends a broadcast message.
    553           *
    554           * @param       nwkAddr - 16 bit address of the device
    555           * @param       IEEEAddr - 64 bit address of the device
    556           * @param       capabilities - device capabilities.  This field is only
    557           *                 sent for v1.1 networks.
    558           * @param       SecurityEnable - Security Options
    559           *
    560           * @return      afStatus_t
    561           */

   \                                 In  segment BANKED_CODE, align 1, keep-with-next
    562          afStatus_t ZDP_DeviceAnnce( uint16 nwkAddr, uint8 *IEEEAddr,
   \                     ZDP_DeviceAnnce:
    563                                        byte capabilities, byte SecurityEnable )
    564          {
   \   000000                REQUIRE ?V0
   \   000000                REQUIRE ?V1
   \   000000   74F6         MOV     A,#-0xa
   \   000002   12....       LCALL   ?BANKED_ENTER_XDATA
   \   000005                ; Saved register size: 10
   \   000005                ; Auto size: 9
   \   000005   74F7         MOV     A,#-0x9
   \   000007   12....       LCALL   ?ALLOC_XSTACK8
   \   00000A   E9           MOV     A,R1
   \   00000B   FE           MOV     R6,A
    565            zAddrType_t dstAddr;
    566            uint8 len;
    567          
    568            (void)SecurityEnable;  // Intentionally unreferenced parameter
    569          
    570            dstAddr.addrMode = (afAddrMode_t)AddrBroadcast;
   \   00000C   7408         MOV     A,#0x8
   \   00000E   12....       LCALL   ?XSTACK_DISP0_8
   \   000011   12....       LCALL   ?Subroutine19 & 0xFFFF
    571            dstAddr.addr.shortAddr = NWK_BROADCAST_SHORTADDR_DEVRXON;
    572          
    573            ZDP_TmpBuf[0] = LO_UINT16( nwkAddr );
   \                     ??CrossCallReturnLabel_19:
   \   000014   12....       LCALL   ?Subroutine50 & 0xFFFF
   \                     ??CrossCallReturnLabel_218:
   \   000017   EA           MOV     A,R2
   \   000018   12....       LCALL   ?Subroutine22 & 0xFFFF
    574            ZDP_TmpBuf[1] = HI_UINT16( nwkAddr );
   \                     ??CrossCallReturnLabel_24:
   \   00001B   EB           MOV     A,R3
   \   00001C   F0           MOVX    @DPTR,A
    575            osal_cpyExtAddr( &ZDP_TmpBuf[2], IEEEAddr );
   \   00001D                ; Setup parameters for call to function sAddrExtCpy
   \   00001D   90....       MOV     DPTR,#ZDP_TmpBuf
   \   000020   E0           MOVX    A,@DPTR
   \   000021   2402         ADD     A,#0x2
   \   000023   FA           MOV     R2,A
   \   000024   A3           INC     DPTR
   \   000025   E0           MOVX    A,@DPTR
   \   000026   3400         ADDC    A,#0x0
   \   000028   FB           MOV     R3,A
   \   000029   12....       LCALL   `??sAddrExtCpy::?relay`; Banked call to: sAddrExtCpy
    576            len = 2 + Z_EXTADDR_LEN;
    577          
    578            ZDP_TmpBuf[10] = capabilities;
   \   00002C   12....       LCALL   ?Subroutine97 & 0xFFFF
   \                     ??CrossCallReturnLabel_277:
   \   00002F   C8           XCH     A,R0
   \   000030   240A         ADD     A,#0xa
   \   000032   F582         MOV     DPL,A
   \   000034   E4           CLR     A
   \   000035   38           ADDC    A,R0
   \   000036   F583         MOV     DPH,A
   \   000038   EE           MOV     A,R6
   \   000039   F0           MOVX    @DPTR,A
    579            len++;
    580          
    581            return fillAndSend( &ZDP_TransID, &dstAddr, Device_annce, len );
   \   00003A                ; Setup parameters for call to function fillAndSend
   \   00003A   75..13       MOV     ?V0,#0x13
   \   00003D   75..00       MOV     ?V1,#0x0
   \   000040   78..         MOV     R0,#?V0
   \   000042   12....       LCALL   ?PUSH_XSTACK_I_TWO
   \   000045   790B         MOV     R1,#0xb
   \   000047   02....       LJMP    ?Subroutine2 & 0xFFFF
    582          }

   \                                 In  segment BANKED_CODE, align 1, keep-with-next
   \                     ?Subroutine50:
   \   000000   90....       MOV     DPTR,#ZDP_TmpBuf
   \   000003   E0           MOVX    A,@DPTR
   \   000004                REQUIRE ??Subroutine116_0
   \   000004                ; // Fall through to label ??Subroutine116_0

   \                                 In  segment BANKED_CODE, align 1, keep-with-next
   \                     ??Subroutine116_0:
   \   000000   F8           MOV     R0,A
   \   000001   A3           INC     DPTR
   \   000002   E0           MOVX    A,@DPTR
   \   000003   F583         MOV     DPH,A
   \   000005   8882         MOV     DPL,R0
   \   000007   22           RET

   \                                 In  segment BANKED_CODE, align 1, keep-with-next
   \                     ?Subroutine22:
   \   000000   12....       LCALL   ?Subroutine75 & 0xFFFF
   \                     ??CrossCallReturnLabel_135:
   \   000003   22           RET

   \                                 In  segment BANKED_CODE, align 1, keep-with-next
   \                     ?Subroutine97:
   \   000000   90....       MOV     DPTR,#ZDP_TmpBuf
   \   000003                REQUIRE ??Subroutine127_0
   \   000003                ; // Fall through to label ??Subroutine127_0
    583          
    584          /*********************************************************************
    585           * @fn          ZDP_ParentAnnce
    586           *
    587           * @brief       This builds and send a Parent_Annce and Parent_Annce_Rsp
    588           *              messages, it will depend on the clusterID parameter.
    589           *
    590           * @param       TransSeq - ZDP Transaction Sequence Number
    591           * @param       dstAddr - destination address
    592           * @param       numberOfChildren - 8 bit number of children
    593           * @param       childInfo - list of children information (ExtAddr and Age)
    594           * @param       clusterID - Parent_annce or Parent_annce_rsp
    595           * @param       SecurityEnable - Security Options
    596           *
    597           * @return      afStatus_t
    598           */

   \                                 In  segment BANKED_CODE, align 1, keep-with-next
    599          afStatus_t ZDP_ParentAnnce( uint8 *TransSeq,
   \                     ZDP_ParentAnnce:
    600                                      zAddrType_t *dstAddr,
    601                                      uint8 numberOfChildren,
    602                                      uint8 *childInfo,
    603                                      cId_t clusterID,
    604                                      uint8 SecurityEnable )
    605          {
   \   000000                REQUIRE ?V0
   \   000000                REQUIRE ?V1
   \   000000                REQUIRE ?V2
   \   000000                REQUIRE ?V3
   \   000000                REQUIRE ?V4
   \   000000                REQUIRE ?V5
   \   000000                REQUIRE ?V6
   \   000000                REQUIRE ?V7
   \   000000                REQUIRE ?V8
   \   000000                REQUIRE ?V10
   \   000000                REQUIRE ?V11
   \   000000   74EC         MOV     A,#-0x14
   \   000002   12....       LCALL   ?BANKED_ENTER_XDATA
   \   000005                ; Saved register size: 20
   \   000005                ; Auto size: 0
   \   000005   8A..         MOV     ?V2,R2
   \   000007   8B..         MOV     ?V3,R3
   \   000009   EC           MOV     A,R4
   \   00000A   FE           MOV     R6,A
   \   00000B   ED           MOV     A,R5
   \   00000C   FF           MOV     R7,A
   \   00000D   89..         MOV     ?V8,R1
    606            uint8 *pBuf = ZDP_TmpBuf;
   \   00000F   12....       LCALL   ??Subroutine119_0 & 0xFFFF
    607            ZDO_ChildInfo_t *pChildInfo;
    608            uint8 i, len;
    609          
    610            (void)SecurityEnable;  // Intentionally unreferenced parameter
    611          
    612            // NumberOfChildren + ( numberOfChildren * ChildInfo).
    613            len = 1 + ( numberOfChildren * sizeof(ZDO_ChildInfo_t) );
   \                     ??CrossCallReturnLabel_235:
   \   000012   75F00C       MOV     B,#0xc
   \   000015   E9           MOV     A,R1
   \   000016   A4           MUL     AB
   \   000017   04           INC     A
   \   000018   F5..         MOV     ?V6,A
    614          
    615            if ( len >= ZDP_BUF_SZ-1 )
   \   00001A   944F         SUBB    A,#0x4f
   \   00001C   4005         JC      ??ZDP_ParentAnnce_0
    616            {
    617              return afStatus_MEM_FAIL;
   \   00001E   7910         MOV     R1,#0x10
   \   000020   02....       LJMP    ??ZDP_ParentAnnce_1 & 0xFFFF
    618            }
    619          
    620            pChildInfo = (ZDO_ChildInfo_t *)childInfo;
    621          
    622            if ( dstAddr->addrMode == AddrBroadcast )
   \                     ??ZDP_ParentAnnce_0:
   \   000023   8E82         MOV     DPL,R6
   \   000025   8F83         MOV     DPH,R7
   \   000027   A3           INC     DPTR
   \   000028   A3           INC     DPTR
   \   000029   A3           INC     DPTR
   \   00002A   A3           INC     DPTR
   \   00002B   A3           INC     DPTR
   \   00002C   A3           INC     DPTR
   \   00002D   A3           INC     DPTR
   \   00002E   A3           INC     DPTR
   \   00002F   E0           MOVX    A,@DPTR
   \   000030   640F         XRL     A,#0xf
   \   000032   700B         JNZ     ??ZDP_ParentAnnce_2
    623            {
    624              // Make sure is sent to 0xFFFC
    625              dstAddr->addr.shortAddr = NWK_BROADCAST_SHORTADDR_DEVZCZR;
   \   000034   8E82         MOV     DPL,R6
   \   000036   8F83         MOV     DPH,R7
   \   000038   74FC         MOV     A,#-0x4
   \   00003A   F0           MOVX    @DPTR,A
   \   00003B   A3           INC     DPTR
   \   00003C   74FF         MOV     A,#-0x1
   \   00003E   F0           MOVX    @DPTR,A
    626            }
    627          
    628            *pBuf++ = numberOfChildren;
   \                     ??ZDP_ParentAnnce_2:
   \   00003F   8A82         MOV     DPL,R2
   \   000041   8B83         MOV     DPH,R3
   \   000043   E9           MOV     A,R1
   \   000044   12....       LCALL   ?Subroutine23 & 0xFFFF
    629          
    630            for ( i = 0; i < numberOfChildren; i++ )
   \                     ??CrossCallReturnLabel_26:
   \   000047   75..00       MOV     ?V7,#0x0
   \   00004A   7414         MOV     A,#0x14
   \   00004C   12....       LCALL   ?XSTACK_DISP0_8
   \   00004F   12....       LCALL   ??Subroutine101_0 & 0xFFFF
   \                     ??CrossCallReturnLabel_164:
   \   000052   8034         SJMP    ??ZDP_ParentAnnce_3
    631            {
    632              pBuf = osal_cpyExtAddr( pBuf, pChildInfo[i].extAddr );
   \                     ??ZDP_ParentAnnce_4:
   \   000054   E5..         MOV     A,?V7
   \   000056   75F00C       MOV     B,#0xc
   \   000059   A4           MUL     AB
   \   00005A   F8           MOV     R0,A
   \   00005B   A9F0         MOV     R1,B
   \   00005D   E5..         MOV     A,?V0
   \   00005F   28           ADD     A,R0
   \   000060   F5..         MOV     ?V4,A
   \   000062   E5..         MOV     A,?V1
   \   000064   39           ADDC    A,R1
   \   000065   F5..         MOV     ?V5,A
   \   000067                ; Setup parameters for call to function sAddrExtCpy
   \   000067   AC..         MOV     R4,?V4
   \   000069   FD           MOV     R5,A
   \   00006A   12....       LCALL   `??sAddrExtCpy::?relay`; Banked call to: sAddrExtCpy
    633          
    634              pBuf = osal_buffer_uint32( pBuf, pChildInfo[i].age );
   \   00006D                ; Setup parameters for call to function osal_buffer_uint32
   \   00006D   85..82       MOV     DPL,?V4
   \   000070   85..83       MOV     DPH,?V5
   \   000073   A3           INC     DPTR
   \   000074   A3           INC     DPTR
   \   000075   A3           INC     DPTR
   \   000076   A3           INC     DPTR
   \   000077   A3           INC     DPTR
   \   000078   A3           INC     DPTR
   \   000079   A3           INC     DPTR
   \   00007A   A3           INC     DPTR
   \   00007B   12....       LCALL   ?PUSH_XSTACK8_X_FOUR
   \   00007E   12....       LCALL   `??osal_buffer_uint32::?relay`; Banked call to: osal_buffer_uint32
   \   000081   7404         MOV     A,#0x4
   \   000083   12....       LCALL   ?DEALLOC_XSTACK8
    635            }
   \   000086   05..         INC     ?V7
   \                     ??ZDP_ParentAnnce_3:
   \   000088   E5..         MOV     A,?V7
   \   00008A   C3           CLR     C
   \   00008B   95..         SUBB    A,?V8
   \   00008D   40C5         JC      ??ZDP_ParentAnnce_4
    636          
    637            return fillAndSend( TransSeq, dstAddr, clusterID, len );
   \   00008F                ; Setup parameters for call to function fillAndSend
   \   00008F   7416         MOV     A,#0x16
   \   000091   12....       LCALL   ?XSTACK_DISP0_8
   \   000094   12....       LCALL   ?PUSH_XSTACK8_X_TWO
   \   000097   A9..         MOV     R1,?V6
   \   000099   EE           MOV     A,R6
   \   00009A   FC           MOV     R4,A
   \   00009B   EF           MOV     A,R7
   \   00009C   FD           MOV     R5,A
   \   00009D   AA..         MOV     R2,?V2
   \   00009F   AB..         MOV     R3,?V3
   \   0000A1   12....       LCALL   `??fillAndSend::?relay`; Banked call to: fillAndSend
   \   0000A4   7402         MOV     A,#0x2
   \   0000A6   12....       LCALL   ?DEALLOC_XSTACK8
   \                     ??ZDP_ParentAnnce_1:
   \   0000A9                REQUIRE ?Subroutine4
   \   0000A9                ; // Fall through to label ?Subroutine4
    638          }

   \                                 In  segment BANKED_CODE, align 1, keep-with-next
   \                     ?Subroutine4:
   \   000000   7F0C         MOV     R7,#0xc
   \   000002   02....       LJMP    ?BANKED_LEAVE_XDATA

   \                                 In  segment BANKED_CODE, align 1, keep-with-next
   \                     ??Subroutine119_0:
   \   000000   90....       MOV     DPTR,#ZDP_TmpBuf
   \   000003                REQUIRE ??Subroutine120_0
   \   000003                ; // Fall through to label ??Subroutine120_0

   \                                 In  segment BANKED_CODE, align 1, keep-with-next
   \                     ??Subroutine120_0:
   \   000000   E0           MOVX    A,@DPTR
   \   000001   FA           MOV     R2,A
   \   000002   A3           INC     DPTR
   \   000003   E0           MOVX    A,@DPTR
   \   000004   FB           MOV     R3,A
   \   000005   22           RET

   \                                 In  segment BANKED_CODE, align 1, keep-with-next
   \                     ?Subroutine23:
   \   000000   F0           MOVX    @DPTR,A
   \   000001   A3           INC     DPTR
   \   000002   AA82         MOV     R2,DPL
   \   000004   AB83         MOV     R3,DPH
   \   000006   22           RET
    639          
    640          /*********************************************************************
    641           * Address Responses
    642           */
    643          
    644          /*********************************************************************
    645           * @fn      zdpProcessAddrReq
    646           *
    647           * @brief   Process an incoming NWK_addr_req or IEEE_addr_req message and then
    648           *          build and send a corresponding NWK_addr_rsp or IEEE_addr_rsp msg.
    649           *
    650           * @param   inMsg - incoming message
    651           *
    652           * @return  none
    653           */

   \                                 In  segment BANKED_CODE, align 1, keep-with-next
    654          void zdpProcessAddrReq( zdoIncomingMsg_t *inMsg )
   \                     zdpProcessAddrReq:
    655          {
   \   000000                REQUIRE ?V0
   \   000000                REQUIRE ?V1
   \   000000                REQUIRE ?V2
   \   000000                REQUIRE ?V3
   \   000000                REQUIRE ?V4
   \   000000                REQUIRE ?V5
   \   000000                REQUIRE ?V6
   \   000000                REQUIRE ?V7
   \   000000                REQUIRE ?V8
   \   000000                REQUIRE ?V9
   \   000000                REQUIRE ?V10
   \   000000                REQUIRE ?V11
   \   000000                REQUIRE ?V12
   \   000000                REQUIRE ?V13
   \   000000   74EA         MOV     A,#-0x16
   \   000002   12....       LCALL   ?BANKED_ENTER_XDATA
   \   000005                ; Saved register size: 22
   \   000005                ; Auto size: 14
   \   000005   74F2         MOV     A,#-0xe
   \   000007   12....       LCALL   ?ALLOC_XSTACK8
   \   00000A   8A..         MOV     ?V6,R2
   \   00000C   8B..         MOV     ?V7,R3
    656            associated_devices_t *pAssoc;
    657            uint8 reqType;
    658            uint16 aoi = INVALID_NODE_ADDR;
   \   00000E   75..FE       MOV     ?V0,#-0x2
   \   000011   75..FF       MOV     ?V1,#-0x1
    659            uint8 *ieee = NULL;
   \   000014   7E00         MOV     R6,#0x0
   \   000016   7F00         MOV     R7,#0x0
    660          
    661            reqType = inMsg->asdu[(inMsg->clusterID == NWK_addr_req) ? Z_EXTADDR_LEN : sizeof( uint16 ) ];
   \   000018   EA           MOV     A,R2
   \   000019   240C         ADD     A,#0xc
   \   00001B   F5..         MOV     ?V8,A
   \   00001D   E4           CLR     A
   \   00001E   35..         ADDC    A,?V7
   \   000020   F5..         MOV     ?V9,A
   \   000022   85..82       MOV     DPL,?V8
   \   000025   F583         MOV     DPH,A
   \   000027   12....       LCALL   ??Subroutine120_0 & 0xFFFF
   \                     ??CrossCallReturnLabel_231:
   \   00002A   EA           MOV     A,R2
   \   00002B   4B           ORL     A,R3
   \   00002C   7004         JNZ     ??zdpProcessAddrReq_0
   \   00002E   7C08         MOV     R4,#0x8
   \   000030   8002         SJMP    ??zdpProcessAddrReq_1
   \                     ??zdpProcessAddrReq_0:
   \   000032   7C02         MOV     R4,#0x2
   \                     ??zdpProcessAddrReq_1:
   \   000034   E5..         MOV     A,?V6
   \   000036   2413         ADD     A,#0x13
   \   000038   F5..         MOV     ?V12,A
   \   00003A   E4           CLR     A
   \   00003B   35..         ADDC    A,?V7
   \   00003D   F5..         MOV     ?V13,A
   \   00003F   85..82       MOV     DPL,?V12
   \   000042   F583         MOV     DPH,A
   \   000044   12....       LCALL   ??Subroutine126_0 & 0xFFFF
   \                     ??CrossCallReturnLabel_260:
   \   000047   E8           MOV     A,R0
   \   000048   2C           ADD     A,R4
   \   000049   F582         MOV     DPL,A
   \   00004B   E4           CLR     A
   \   00004C   39           ADDC    A,R1
   \   00004D   F583         MOV     DPH,A
   \   00004F   E0           MOVX    A,@DPTR
   \   000050   F5..         MOV     ?V3,A
    662          
    663            if ( inMsg->clusterID == NWK_addr_req )
   \   000052   EA           MOV     A,R2
   \   000053   4B           ORL     A,R3
   \   000054   704E         JNZ     ??zdpProcessAddrReq_2
    664          
    665            {
    666              ieee = inMsg->asdu;
   \   000056   E8           MOV     A,R0
   \   000057   FE           MOV     R6,A
   \   000058   E9           MOV     A,R1
   \   000059   FF           MOV     R7,A
    667          
    668              if ( osal_ExtAddrEqual( saveExtAddr, ieee ) )
   \   00005A                ; Setup parameters for call to function sAddrExtCmp
   \   00005A   EE           MOV     A,R6
   \   00005B   FC           MOV     R4,A
   \   00005C   EF           MOV     A,R7
   \   00005D   FD           MOV     R5,A
   \   00005E   7A..         MOV     R2,#saveExtAddr & 0xff
   \   000060   7B..         MOV     R3,#(saveExtAddr >> 8) & 0xff
   \   000062   12....       LCALL   `??sAddrExtCmp::?relay`; Banked call to: sAddrExtCmp
   \   000065   E9           MOV     A,R1
   \   000066   6009         JZ      ??zdpProcessAddrReq_3
    669              {
    670                aoi = ZDAppNwkAddr.addr.shortAddr;
   \   000068   90....       MOV     DPTR,#ZDAppNwkAddr
   \   00006B   12....       LCALL   ??Subroutine101_0 & 0xFFFF
    671              }
   \                     ??CrossCallReturnLabel_165:
   \   00006E   02....       LJMP    ??zdpProcessAddrReq_4 & 0xFFFF
    672              // Handle response for sleeping end devices
    673              else if ( (ZSTACK_ROUTER_BUILD)
    674                && (((pAssoc = AssocGetWithExt( ieee )) != NULL)
    675                       && (pAssoc->nodeRelation == CHILD_RFD)) )
   \                     ??zdpProcessAddrReq_3:
   \   000071                ; Setup parameters for call to function AssocGetWithExt
   \   000071   EE           MOV     A,R6
   \   000072   FA           MOV     R2,A
   \   000073   EF           MOV     A,R7
   \   000074   FB           MOV     R3,A
   \   000075   12....       LCALL   `??AssocGetWithExt::?relay`; Banked call to: AssocGetWithExt
   \   000078   8A..         MOV     ?V4,R2
   \   00007A   8B..         MOV     ?V5,R3
   \   00007C   A8..         MOV     R0,?V4
   \   00007E   A9..         MOV     R1,?V5
   \   000080   E8           MOV     A,R0
   \   000081   49           ORL     A,R1
   \   000082   7003         JNZ     $+5
   \   000084   02....       LJMP    ??zdpProcessAddrReq_5 & 0xFFFF
   \   000087   8882         MOV     DPL,R0
   \   000089   8983         MOV     DPH,R1
   \   00008B   A3           INC     DPTR
   \   00008C   A3           INC     DPTR
   \   00008D   A3           INC     DPTR
   \   00008E   A3           INC     DPTR
   \   00008F   E0           MOVX    A,@DPTR
   \   000090   6401         XRL     A,#0x1
   \   000092   6003         JZ      $+5
   \   000094   02....       LJMP    ??zdpProcessAddrReq_5 & 0xFFFF
    676              {
    677                aoi = pAssoc->shortAddr;
   \   000097   8882         MOV     DPL,R0
   \   000099   8983         MOV     DPH,R1
   \   00009B   12....       LCALL   ??Subroutine101_0 & 0xFFFF
    678                if ( reqType != ZDP_ADDR_REQTYPE_SINGLE )
   \                     ??CrossCallReturnLabel_166:
   \   00009E   E5..         MOV     A,?V3
   \   0000A0   7072         JNZ     ??zdpProcessAddrReq_6
   \   0000A2   8073         SJMP    ??zdpProcessAddrReq_4
    679                  reqType = 0xFF; // Force Invalid
    680              }
    681            }
    682            else  // if ( inMsg->clusterID == IEEE_addr_req )
    683            {
    684              aoi = BUILD_UINT16( inMsg->asdu[0], inMsg->asdu[1] );
   \                     ??zdpProcessAddrReq_2:
   \   0000A4   8882         MOV     DPL,R0
   \   0000A6   8983         MOV     DPH,R1
   \   0000A8   E0           MOVX    A,@DPTR
   \   0000A9   FA           MOV     R2,A
   \   0000AA   A3           INC     DPTR
   \   0000AB   E0           MOVX    A,@DPTR
   \   0000AC   F9           MOV     R1,A
   \   0000AD   EA           MOV     A,R2
   \   0000AE   2E           ADD     A,R6
   \   0000AF   F5..         MOV     ?V0,A
   \   0000B1   E4           CLR     A
   \   0000B2   39           ADDC    A,R1
   \   0000B3   F5..         MOV     ?V1,A
    685          
    686              if ( aoi == ZDAppNwkAddr.addr.shortAddr )
   \   0000B5   90....       MOV     DPTR,#ZDAppNwkAddr
   \   0000B8   E0           MOVX    A,@DPTR
   \   0000B9   65..         XRL     A,?V0
   \   0000BB   7004         JNZ     ??zdpProcessAddrReq_7
   \   0000BD   A3           INC     DPTR
   \   0000BE   E0           MOVX    A,@DPTR
   \   0000BF   65..         XRL     A,?V1
   \                     ??zdpProcessAddrReq_7:
   \   0000C1   7006         JNZ     ??zdpProcessAddrReq_8
    687              {
    688                ieee = saveExtAddr;
   \   0000C3   7E..         MOV     R6,#saveExtAddr & 0xff
   \   0000C5   7F..         MOV     R7,#(saveExtAddr >> 8) & 0xff
   \   0000C7   804E         SJMP    ??zdpProcessAddrReq_4
    689              }
    690              else if ( (ZSTACK_ROUTER_BUILD)
    691                && (((pAssoc = AssocGetWithShort( aoi )) != NULL)
    692                       && (pAssoc->nodeRelation == CHILD_RFD)) )
   \                     ??zdpProcessAddrReq_8:
   \   0000C9                ; Setup parameters for call to function AssocGetWithShort
   \   0000C9   AB..         MOV     R3,?V1
   \   0000CB   12....       LCALL   `??AssocGetWithShort::?relay`; Banked call to: AssocGetWithShort
   \   0000CE   8A..         MOV     ?V4,R2
   \   0000D0   8B..         MOV     ?V5,R3
   \   0000D2   A8..         MOV     R0,?V4
   \   0000D4   A9..         MOV     R1,?V5
   \   0000D6   E8           MOV     A,R0
   \   0000D7   49           ORL     A,R1
   \   0000D8   604D         JZ      ??zdpProcessAddrReq_5
   \   0000DA   8882         MOV     DPL,R0
   \   0000DC   8983         MOV     DPH,R1
   \   0000DE   A3           INC     DPTR
   \   0000DF   A3           INC     DPTR
   \   0000E0   A3           INC     DPTR
   \   0000E1   A3           INC     DPTR
   \   0000E2   E0           MOVX    A,@DPTR
   \   0000E3   6401         XRL     A,#0x1
   \   0000E5   7040         JNZ     ??zdpProcessAddrReq_5
    693              {
    694                AddrMgrEntry_t addrEntry;
    695                addrEntry.user = ADDRMGR_USER_DEFAULT;
   \   0000E7   7401         MOV     A,#0x1
   \   0000E9   12....       LCALL   ?XSTACK_DISP0_8
   \   0000EC   E4           CLR     A
   \   0000ED   12....       LCALL   ?Subroutine39 & 0xFFFF
    696                addrEntry.index = pAssoc->addrIdx;
   \                     ??CrossCallReturnLabel_60:
   \   0000F0   F8           MOV     R0,A
   \   0000F1   A3           INC     DPTR
   \   0000F2   E0           MOVX    A,@DPTR
   \   0000F3   F9           MOV     R1,A
   \   0000F4   740C         MOV     A,#0xc
   \   0000F6   12....       LCALL   ?XSTACK_DISP0_8
   \   0000F9   12....       LCALL   ?Subroutine29 & 0xFFFF
    697                if ( AddrMgrEntryGet( &addrEntry ) )
   \                     ??CrossCallReturnLabel_43:
   \   0000FC                ; Setup parameters for call to function AddrMgrEntryGet
   \   0000FC   7401         MOV     A,#0x1
   \   0000FE   12....       LCALL   ?XSTACK_DISP101_8
   \   000101   12....       LCALL   `??AddrMgrEntryGet::?relay`; Banked call to: AddrMgrEntryGet
   \   000104   E9           MOV     A,R1
   \   000105   6009         JZ      ??zdpProcessAddrReq_9
    698                {
    699                  ieee = addrEntry.extAddr;
   \   000107   7404         MOV     A,#0x4
   \   000109   12....       LCALL   ?XSTACK_DISP0_8
   \   00010C   AE82         MOV     R6,DPL
   \   00010E   AF83         MOV     R7,DPH
    700                }
    701          
    702                if ( reqType != ZDP_ADDR_REQTYPE_SINGLE )
   \                     ??zdpProcessAddrReq_9:
   \   000110   E5..         MOV     A,?V3
   \   000112   6003         JZ      ??zdpProcessAddrReq_4
    703                  reqType = 0xFF; // Force Invalid
   \                     ??zdpProcessAddrReq_6:
   \   000114   75..FF       MOV     ?V3,#-0x1
    704              }
    705            }
    706          
    707            if ( ((aoi != INVALID_NODE_ADDR) && (ieee != NULL)) || (inMsg->wasBroadcast == FALSE) )
   \                     ??zdpProcessAddrReq_4:
   \   000117   74FE         MOV     A,#-0x2
   \   000119   65..         XRL     A,?V0
   \   00011B   7004         JNZ     ??zdpProcessAddrReq_10
   \   00011D   74FF         MOV     A,#-0x1
   \   00011F   65..         XRL     A,?V1
   \                     ??zdpProcessAddrReq_10:
   \   000121   6004         JZ      ??zdpProcessAddrReq_5
   \   000123   EE           MOV     A,R6
   \   000124   4F           ORL     A,R7
   \   000125   7011         JNZ     ??zdpProcessAddrReq_11
   \                     ??zdpProcessAddrReq_5:
   \   000127   E5..         MOV     A,?V6
   \   000129   240B         ADD     A,#0xb
   \   00012B   F582         MOV     DPL,A
   \   00012D   E4           CLR     A
   \   00012E   35..         ADDC    A,?V7
   \   000130   F583         MOV     DPH,A
   \   000132   E0           MOVX    A,@DPTR
   \   000133   6003         JZ      $+5
   \   000135   02....       LJMP    ??zdpProcessAddrReq_12 & 0xFFFF
    708            {
    709              uint8 stat;
    710              uint8 *pBuf = ZDP_TmpBuf;
   \                     ??zdpProcessAddrReq_11:
   \   000138   12....       LCALL   ??Subroutine119_0 & 0xFFFF
    711              // Status + IEEE-Addr + Nwk-Addr.
    712              uint8 len = 1 + Z_EXTADDR_LEN + 2;
   \                     ??CrossCallReturnLabel_236:
   \   00013B   75..0B       MOV     ?V2,#0xb
    713          
    714              // If aoi and iee are both setup, we found results
    715              if ( (aoi != INVALID_NODE_ADDR) && (ieee != NULL) )
   \   00013E   74FE         MOV     A,#-0x2
   \   000140   65..         XRL     A,?V0
   \   000142   7004         JNZ     ??zdpProcessAddrReq_13
   \   000144   74FF         MOV     A,#-0x1
   \   000146   65..         XRL     A,?V1
   \                     ??zdpProcessAddrReq_13:
   \   000148   6018         JZ      ??zdpProcessAddrReq_14
   \   00014A   EE           MOV     A,R6
   \   00014B   4F           ORL     A,R7
   \   00014C   6014         JZ      ??zdpProcessAddrReq_14
    716              {
    717                stat = ((reqType == ZDP_ADDR_REQTYPE_SINGLE) || (reqType == ZDP_ADDR_REQTYPE_EXTENDED))
    718                              ? ZDP_SUCCESS : ZDP_INVALID_REQTYPE;
   \   00014E   E5..         MOV     A,?V3
   \   000150   6006         JZ      ??zdpProcessAddrReq_15
   \   000152   7401         MOV     A,#0x1
   \   000154   65..         XRL     A,?V3
   \   000156   7005         JNZ     ??zdpProcessAddrReq_16
   \                     ??zdpProcessAddrReq_15:
   \   000158   75..00       MOV     ?V4,#0x0
   \   00015B   8019         SJMP    ??zdpProcessAddrReq_17
   \                     ??zdpProcessAddrReq_16:
   \   00015D   75..80       MOV     ?V4,#-0x80
   \   000160   8014         SJMP    ??zdpProcessAddrReq_17
    719              }
    720              else
    721              {
    722                // not found and the req was unicast to this device
    723                stat = ZDP_DEVICE_NOT_FOUND;
   \                     ??zdpProcessAddrReq_14:
   \   000162   75..81       MOV     ?V4,#-0x7f
    724          
    725                // Fill in the missing field with this device's address
    726                if ( inMsg->clusterID == NWK_addr_req )
   \   000165   12....       LCALL   ?Subroutine54 & 0xFFFF
   \                     ??CrossCallReturnLabel_174:
   \   000168   7008         JNZ     ??zdpProcessAddrReq_18
    727                {
    728                  aoi = ZDAppNwkAddr.addr.shortAddr;
   \   00016A   90....       MOV     DPTR,#ZDAppNwkAddr
   \   00016D   12....       LCALL   ??Subroutine101_0 & 0xFFFF
    729                }
   \                     ??CrossCallReturnLabel_167:
   \   000170   8004         SJMP    ??zdpProcessAddrReq_17
    730                else
    731                {
    732                  ieee = saveExtAddr;
   \                     ??zdpProcessAddrReq_18:
   \   000172   7E..         MOV     R6,#saveExtAddr & 0xff
   \   000174   7F..         MOV     R7,#(saveExtAddr >> 8) & 0xff
    733                }
    734              }
    735          
    736              *pBuf++ = stat;
   \                     ??zdpProcessAddrReq_17:
   \   000176   8A82         MOV     DPL,R2
   \   000178   8B83         MOV     DPH,R3
   \   00017A   E5..         MOV     A,?V4
   \   00017C   12....       LCALL   ?Subroutine23 & 0xFFFF
    737          
    738              pBuf = osal_cpyExtAddr( pBuf, ieee );
   \                     ??CrossCallReturnLabel_27:
   \   00017F                ; Setup parameters for call to function sAddrExtCpy
   \   00017F   EE           MOV     A,R6
   \   000180   FC           MOV     R4,A
   \   000181   EF           MOV     A,R7
   \   000182   FD           MOV     R5,A
   \   000183   12....       LCALL   `??sAddrExtCpy::?relay`; Banked call to: sAddrExtCpy
   \   000186   8A..         MOV     ?V10,R2
   \   000188   8B..         MOV     ?V11,R3
   \   00018A   AE..         MOV     R6,?V10
   \   00018C   AF..         MOV     R7,?V11
    739          
    740              *pBuf++ = LO_UINT16( aoi );
   \   00018E   8E82         MOV     DPL,R6
   \   000190   8F83         MOV     DPH,R7
   \   000192   E5..         MOV     A,?V0
   \   000194   F0           MOVX    @DPTR,A
    741              *pBuf++ = HI_UINT16( aoi );
   \   000195   A3           INC     DPTR
   \   000196   E5..         MOV     A,?V1
   \   000198   F0           MOVX    @DPTR,A
    742          
    743              if ( ZSTACK_ROUTER_BUILD )
    744              {
    745                if ( (reqType == ZDP_ADDR_REQTYPE_EXTENDED) && (aoi == ZDAppNwkAddr.addr.shortAddr)
    746                     && (stat == ZDP_SUCCESS) )
   \   000199   7401         MOV     A,#0x1
   \   00019B   65..         XRL     A,?V3
   \   00019D   6003         JZ      $+5
   \   00019F   02....       LJMP    ??zdpProcessAddrReq_19 & 0xFFFF
   \   0001A2   90....       MOV     DPTR,#ZDAppNwkAddr
   \   0001A5   E0           MOVX    A,@DPTR
   \   0001A6   65..         XRL     A,?V0
   \   0001A8   7004         JNZ     ??zdpProcessAddrReq_20
   \   0001AA   A3           INC     DPTR
   \   0001AB   E0           MOVX    A,@DPTR
   \   0001AC   65..         XRL     A,?V1
   \                     ??zdpProcessAddrReq_20:
   \   0001AE   6003         JZ      $+5
   \   0001B0   02....       LJMP    ??zdpProcessAddrReq_19 & 0xFFFF
   \   0001B3   E5..         MOV     A,?V4
   \   0001B5   6003         JZ      $+5
   \   0001B7   02....       LJMP    ??zdpProcessAddrReq_19 & 0xFFFF
    747                {
    748                  uint8  cnt = 0;
   \   0001BA   85..82       MOV     DPL,?XSP + 0
   \   0001BD   85..83       MOV     DPH,?XSP + 1
   \   0001C0   E4           CLR     A
   \   0001C1   F0           MOVX    @DPTR,A
    749                  uint16 *list = AssocMakeList( &cnt );
   \   0001C2                ; Setup parameters for call to function AssocMakeList
   \   0001C2   AA..         MOV     R2,?XSP + 0
   \   0001C4   AB..         MOV     R3,?XSP + 1
   \   0001C6   12....       LCALL   `??AssocMakeList::?relay`; Banked call to: AssocMakeList
   \   0001C9   8A..         MOV     ?V0,R2
   \   0001CB   8B..         MOV     ?V1,R3
   \   0001CD   AC..         MOV     R4,?V0
   \   0001CF   AD..         MOV     R5,?V1
    750          
    751                  if ( list != NULL )
   \   0001D1   EE           MOV     A,R6
   \   0001D2   2402         ADD     A,#0x2
   \   0001D4   F8           MOV     R0,A
   \   0001D5   E4           CLR     A
   \   0001D6   3F           ADDC    A,R7
   \   0001D7   F9           MOV     R1,A
   \   0001D8   E8           MOV     A,R0
   \   0001D9   FA           MOV     R2,A
   \   0001DA   E9           MOV     A,R1
   \   0001DB   FB           MOV     R3,A
   \   0001DC   EC           MOV     A,R4
   \   0001DD   4D           ORL     A,R5
   \   0001DE   7003         JNZ     $+5
   \   0001E0   02....       LJMP    ??zdpProcessAddrReq_21 & 0xFFFF
    752                  {
    753                    byte idx = inMsg->asdu[(((inMsg->clusterID == NWK_addr_req) ? Z_EXTADDR_LEN : sizeof( uint16 )) + 1)];
   \   0001E3   12....       LCALL   ?Subroutine54 & 0xFFFF
   \                     ??CrossCallReturnLabel_175:
   \   0001E6   7004         JNZ     ??zdpProcessAddrReq_22
   \   0001E8   7808         MOV     R0,#0x8
   \   0001EA   8002         SJMP    ??zdpProcessAddrReq_23
   \                     ??zdpProcessAddrReq_22:
   \   0001EC   7802         MOV     R0,#0x2
   \                     ??zdpProcessAddrReq_23:
   \   0001EE   85..82       MOV     DPL,?V12
   \   0001F1   85..83       MOV     DPH,?V13
   \   0001F4   E0           MOVX    A,@DPTR
   \   0001F5   28           ADD     A,R0
   \   0001F6   F5..         MOV     ?V0,A
   \   0001F8   A3           INC     DPTR
   \   0001F9   E0           MOVX    A,@DPTR
   \   0001FA   3400         ADDC    A,#0x0
   \   0001FC   85..82       MOV     DPL,?V0
   \   0001FF   F583         MOV     DPH,A
   \   000201   A3           INC     DPTR
   \   000202   E0           MOVX    A,@DPTR
   \   000203   F5..         MOV     ?V0,A
    754                    uint16 *pList = list + idx;
   \   000205   12....       LCALL   ??Subroutine112_0 & 0xFFFF
   \                     ??CrossCallReturnLabel_195:
   \   000208   EC           MOV     A,R4
   \   000209   28           ADD     A,R0
   \   00020A   F8           MOV     R0,A
   \   00020B   ED           MOV     A,R5
   \   00020C   39           ADDC    A,R1
   \   00020D   F9           MOV     R1,A
    755          
    756                    // NumAssocDev field is only present on success.
    757                    if ( cnt > idx )
   \   00020E   85..82       MOV     DPL,?XSP + 0
   \   000211   85..83       MOV     DPH,?XSP + 1
   \   000214   E0           MOVX    A,@DPTR
   \   000215   F5..         MOV     ?V1,A
   \   000217   E5..         MOV     A,?V0
   \   000219   C3           CLR     C
   \   00021A   95..         SUBB    A,?V1
   \   00021C   500D         JNC     ??zdpProcessAddrReq_24
    758                    {
    759                      cnt -= idx;
   \   00021E   E0           MOVX    A,@DPTR
   \   00021F   C3           CLR     C
   \   000220   95..         SUBB    A,?V0
   \   000222   F0           MOVX    @DPTR,A
    760                      len += (cnt * sizeof( uint16 ));
   \   000223   C3           CLR     C
   \   000224   33           RLC     A
   \   000225   240B         ADD     A,#0xb
   \   000227   F5..         MOV     ?V2,A
   \   000229   8002         SJMP    ??zdpProcessAddrReq_25
    761                    }
    762                    else
    763                    {
    764                      cnt = 0;
   \                     ??zdpProcessAddrReq_24:
   \   00022B   E4           CLR     A
   \   00022C   F0           MOVX    @DPTR,A
    765                    }
    766                    *pBuf++ = cnt;
   \                     ??zdpProcessAddrReq_25:
   \   00022D   12....       LCALL   ??Subroutine118_0 & 0xFFFF
   \                     ??CrossCallReturnLabel_223:
   \   000230   12....       LCALL   ?Subroutine38 & 0xFFFF
    767                    len++;
    768          
    769                    // StartIndex field is only present if NumAssocDev field is non-zero.
    770                    *pBuf++ = idx;
   \                     ??CrossCallReturnLabel_58:
   \   000233   E5..         MOV     A,?V0
   \   000235   F0           MOVX    @DPTR,A
   \   000236   EE           MOV     A,R6
   \   000237   2404         ADD     A,#0x4
   \   000239   FA           MOV     R2,A
   \   00023A   E4           CLR     A
   \   00023B   3F           ADDC    A,R7
   \   00023C   FB           MOV     R3,A
    771                    len++;
   \   00023D   05..         INC     ?V2
   \   00023F   05..         INC     ?V2
   \   000241   801E         SJMP    ??zdpProcessAddrReq_26
    772          
    773                    while ( cnt != 0 )
    774                    {
    775                      *pBuf++ = LO_UINT16( *pList );
   \                     ??zdpProcessAddrReq_27:
   \   000243   12....       LCALL   ?Subroutine68 & 0xFFFF
   \                     ??CrossCallReturnLabel_227:
   \   000246   12....       LCALL   ?Subroutine25 & 0xFFFF
    776                      *pBuf++ = HI_UINT16( *pList );
   \                     ??CrossCallReturnLabel_32:
   \   000249   F0           MOVX    @DPTR,A
   \   00024A   EA           MOV     A,R2
   \   00024B   2402         ADD     A,#0x2
   \   00024D   FA           MOV     R2,A
   \   00024E   5001         JNC     ??zdpProcessAddrReq_28
   \   000250   0B           INC     R3
    777                      pList++;
   \                     ??zdpProcessAddrReq_28:
   \   000251   E8           MOV     A,R0
   \   000252   2402         ADD     A,#0x2
   \   000254   F8           MOV     R0,A
   \   000255   5001         JNC     ??zdpProcessAddrReq_29
   \   000257   09           INC     R1
    778                      cnt--;
   \                     ??zdpProcessAddrReq_29:
   \   000258   85..82       MOV     DPL,?XSP + 0
   \   00025B   85..83       MOV     DPH,?XSP + 1
   \   00025E   E0           MOVX    A,@DPTR
   \   00025F   14           DEC     A
   \   000260   F0           MOVX    @DPTR,A
    779                    }
   \                     ??zdpProcessAddrReq_26:
   \   000261   85..82       MOV     DPL,?XSP + 0
   \   000264   85..83       MOV     DPH,?XSP + 1
   \   000267   E0           MOVX    A,@DPTR
   \   000268   70D9         JNZ     ??zdpProcessAddrReq_27
    780          
    781                    osal_mem_free( (uint8 *)list );
   \   00026A                ; Setup parameters for call to function osal_mem_free
   \   00026A   EC           MOV     A,R4
   \   00026B   FA           MOV     R2,A
   \   00026C   ED           MOV     A,R5
   \   00026D   FB           MOV     R3,A
   \   00026E   12....       LCALL   `??osal_mem_free::?relay`; Banked call to: osal_mem_free
   \   000271   8009         SJMP    ??zdpProcessAddrReq_19
    782                  }
    783                  else
    784                  {
    785                    // NumAssocDev field is only present on success.
    786                    *pBuf++ = 0;
   \                     ??zdpProcessAddrReq_21:
   \   000273   8A82         MOV     DPL,R2
   \   000275   8B83         MOV     DPH,R3
   \   000277   E4           CLR     A
   \   000278   F0           MOVX    @DPTR,A
    787                    len++;
   \   000279   75..0C       MOV     ?V2,#0xc
    788                  }
    789                }
    790              }
    791          
    792              ZDP_TxOptions = AF_MSG_ACK_REQUEST;
   \                     ??zdpProcessAddrReq_19:
   \   00027C   90....       MOV     DPTR,#ZDP_TxOptions
   \   00027F   7410         MOV     A,#0x10
   \   000281   12....       LCALL   ?Subroutine27 & 0xFFFF
    793              fillAndSend( &(inMsg->TransSeq), &(inMsg->srcAddr), (cId_t)(inMsg->clusterID | ZDO_RESPONSE_BIT), len );
   \                     ??CrossCallReturnLabel_37:
   \   000284   E0           MOVX    A,@DPTR
   \   000285   F5..         MOV     ?V0,A
   \   000287   A3           INC     DPTR
   \   000288   E0           MOVX    A,@DPTR
   \   000289   4480         ORL     A,#0x80
   \   00028B   F5..         MOV     ?V1,A
   \   00028D   78..         MOV     R0,#?V0
   \   00028F   12....       LCALL   ?PUSH_XSTACK_I_TWO
   \   000292   A9..         MOV     R1,?V2
   \   000294   E5..         MOV     A,?V6
   \   000296   2402         ADD     A,#0x2
   \   000298   FC           MOV     R4,A
   \   000299   E4           CLR     A
   \   00029A   35..         ADDC    A,?V7
   \   00029C   FD           MOV     R5,A
   \   00029D   E5..         MOV     A,?V6
   \   00029F   240F         ADD     A,#0xf
   \   0002A1   FA           MOV     R2,A
   \   0002A2   E4           CLR     A
   \   0002A3   35..         ADDC    A,?V7
   \   0002A5   FB           MOV     R3,A
   \   0002A6   12....       LCALL   `??fillAndSend::?relay`; Banked call to: fillAndSend
   \   0002A9   7402         MOV     A,#0x2
   \   0002AB   12....       LCALL   ?DEALLOC_XSTACK8
    794              ZDP_TxOptions = AF_TX_OPTIONS_NONE;
   \   0002AE   90....       MOV     DPTR,#ZDP_TxOptions
   \   0002B1   E4           CLR     A
   \   0002B2   F0           MOVX    @DPTR,A
    795            }
    796          }
   \                     ??zdpProcessAddrReq_12:
   \   0002B3   740E         MOV     A,#0xe
   \   0002B5   02....       LJMP    ??Subroutine121_0 & 0xFFFF

   \                                 In  segment BANKED_CODE, align 1, keep-with-next
   \                     ?Subroutine54:
   \   000000   85..82       MOV     DPL,?V8
   \   000003   85..83       MOV     DPH,?V9
   \   000006                REQUIRE ??Subroutine108_0
   \   000006                ; // Fall through to label ??Subroutine108_0

   \                                 In  segment BANKED_CODE, align 1, keep-with-next
   \                     ??Subroutine108_0:
   \   000000   12....       LCALL   ?Subroutine77 & 0xFFFF
   \                     ??CrossCallReturnLabel_176:
   \   000003   49           ORL     A,R1
   \   000004   22           RET

   \                                 In  segment BANKED_CODE, align 1, keep-with-next
   \                     ?Subroutine39:
   \   000000   12....       LCALL   ?Subroutine91 & 0xFFFF
   \                     ??CrossCallReturnLabel_183:
   \   000003   A3           INC     DPTR
   \   000004   E0           MOVX    A,@DPTR
   \   000005   22           RET

   \                                 In  segment BANKED_CODE, align 1, keep-with-next
   \                     ??Subroutine112_0:
   \   000000   25E0         ADD     A,0xE0 /* A   */
   \   000002   F8           MOV     R0,A
   \   000003   E4           CLR     A
   \   000004   33           RLC     A
   \   000005   F9           MOV     R1,A
   \   000006   22           RET

   \                                 In  segment BANKED_CODE, align 1, keep-with-next
   \                     ?Subroutine27:
   \   000000   F0           MOVX    @DPTR,A
   \   000001                ; Setup parameters for call to function fillAndSend
   \   000001   85..82       MOV     DPL,?V8
   \   000004   85..83       MOV     DPH,?V9
   \   000007   22           RET

   \                                 In  segment BANKED_CODE, align 1, keep-with-next
   \                     ?Subroutine77:
   \   000000   12....       LCALL   ??Subroutine127_0 & 0xFFFF
   \                     ??CrossCallReturnLabel_279:
   \   000003   F9           MOV     R1,A
   \   000004   E8           MOV     A,R0
   \   000005   22           RET

   \                                 In  segment BANKED_CODE, align 1, keep-with-next
   \                     ?Subroutine68:
   \   000000   8882         MOV     DPL,R0
   \   000002   8983         MOV     DPH,R1
   \   000004                REQUIRE ??Subroutine118_0
   \   000004                ; // Fall through to label ??Subroutine118_0

   \                                 In  segment BANKED_CODE, align 1, keep-with-next
   \                     ??Subroutine118_0:
   \   000000   12....       LCALL   ?Subroutine95 & 0xFFFF
   \                     ??CrossCallReturnLabel_255:
   \   000003   22           RET

   \                                 In  segment BANKED_CODE, align 1, keep-with-next
   \                     ?Subroutine95:
   \   000000   E0           MOVX    A,@DPTR
   \   000001   8A82         MOV     DPL,R2
   \   000003   8B83         MOV     DPH,R3
   \   000005   22           RET

   \                                 In  segment BANKED_CODE, align 1, keep-with-next
   \                     ??Subroutine121_0:
   \   000000   12....       LCALL   ?DEALLOC_XSTACK8
   \   000003   7F0E         MOV     R7,#0xe
   \   000005   02....       LJMP    ?BANKED_LEAVE_XDATA

   \                                 In  segment BANKED_CODE, align 1, keep-with-next
   \                     ?Subroutine38:
   \   000000   12....       LCALL   ?Subroutine92 & 0xFFFF
   \                     ??CrossCallReturnLabel_156:
   \   000003   22           RET

   \                                 In  segment BANKED_CODE, align 1, keep-with-next
   \                     ?Subroutine25:
   \   000000   12....       LCALL   ?Subroutine99 & 0xFFFF
   \                     ??CrossCallReturnLabel_194:
   \   000003   12....       LCALL   ?Subroutine87 & 0xFFFF
   \                     ??CrossCallReturnLabel_251:
   \   000006   22           RET

   \                                 In  segment BANKED_CODE, align 1, keep-with-next
   \                     ?Subroutine87:
   \   000000   A3           INC     DPTR
   \   000001                REQUIRE ??Subroutine124_0
   \   000001                ; // Fall through to label ??Subroutine124_0

   \                                 In  segment BANKED_CODE, align 1, keep-with-next
   \                     ??Subroutine124_0:
   \   000000   12....       LCALL   ?Subroutine95 & 0xFFFF
   \                     ??CrossCallReturnLabel_256:
   \   000003   A3           INC     DPTR
   \   000004   22           RET
    797          
    798          /*********************************************************************
    799           * @fn          ZDP_NodeDescMsg
    800           *
    801           * @brief       Builds and sends a Node Descriptor message, unicast to the
    802           *              specified device.
    803           *
    804           * @param       inMsg - incoming message
    805           * @param       nwkAddr - 16 bit network address for device
    806           * @param       pNodeDesc - pointer to the node descriptor
    807           *
    808           * @return      afStatus_t
    809           */

   \                                 In  segment BANKED_CODE, align 1, keep-with-next
    810          afStatus_t ZDP_NodeDescMsg( zdoIncomingMsg_t *inMsg,
   \                     ZDP_NodeDescMsg:
    811                                     uint16 nwkAddr, NodeDescriptorFormat_t *pNodeDesc )
    812          {
   \   000000                REQUIRE ?V0
   \   000000                REQUIRE ?V1
   \   000000   74F6         MOV     A,#-0xa
   \   000002   12....       LCALL   ?BANKED_ENTER_XDATA
   \   000005                ; Saved register size: 10
   \   000005                ; Auto size: 0
    813            uint8 *pBuf = ZDP_TmpBuf;
   \   000005   90....       MOV     DPTR,#ZDP_TmpBuf
   \   000008   E0           MOVX    A,@DPTR
   \   000009   FE           MOV     R6,A
   \   00000A   A3           INC     DPTR
   \   00000B   E0           MOVX    A,@DPTR
   \   00000C   12....       LCALL   ?Subroutine20 & 0xFFFF
    814            byte len;
    815          
    816            len = 1 + 2 + 13;  // Status + nwkAddr + Node descriptor
    817          
    818            *pBuf++ = ZDP_SUCCESS;
    819          
    820            *pBuf++ = LO_UINT16( nwkAddr );
    821            *pBuf++ = HI_UINT16( nwkAddr );
   \                     ??CrossCallReturnLabel_20:
   \   00000F   12....       LCALL   ?XSTACK_DISP0_8
   \   000012   12....       LCALL   ?Subroutine47 & 0xFFFF
    822          
    823            *pBuf++ = (byte)((pNodeDesc->ComplexDescAvail << 3) |
    824                               (pNodeDesc->UserDescAvail << 4) |
    825                               (pNodeDesc->LogicalType & 0x07));
   \                     ??CrossCallReturnLabel_77:
   \   000015   541F         ANL     A,#0x1f
   \   000017   8E82         MOV     DPL,R6
   \   000019   8F83         MOV     DPH,R7
   \   00001B   A3           INC     DPTR
   \   00001C   A3           INC     DPTR
   \   00001D   A3           INC     DPTR
   \   00001E   12....       LCALL   ?Subroutine40 & 0xFFFF
    826          
    827            *pBuf++ = (byte)((pNodeDesc->FrequencyBand << 3) | (pNodeDesc->APSFlags & 0x07));
   \                     ??CrossCallReturnLabel_62:
   \   000021   12....       LCALL   ?Subroutine64 & 0xFFFF
   \                     ??CrossCallReturnLabel_109:
   \   000024   12....       LCALL   ?Subroutine39 & 0xFFFF
    828            *pBuf++ = pNodeDesc->CapabilityFlags;
   \                     ??CrossCallReturnLabel_61:
   \   000027   8E82         MOV     DPL,R6
   \   000029   8F83         MOV     DPH,R7
   \   00002B   12....       LCALL   ?Subroutine31 & 0xFFFF
    829            *pBuf++ = pNodeDesc->ManufacturerCode[0];
   \                     ??CrossCallReturnLabel_180:
   \   00002E   12....       LCALL   ?Subroutine65 & 0xFFFF
   \                     ??CrossCallReturnLabel_111:
   \   000031   12....       LCALL   ?Subroutine31 & 0xFFFF
    830            *pBuf++ = pNodeDesc->ManufacturerCode[1];
   \                     ??CrossCallReturnLabel_181:
   \   000034   A3           INC     DPTR
   \   000035   E0           MOVX    A,@DPTR
   \   000036   8E82         MOV     DPL,R6
   \   000038   8F83         MOV     DPH,R7
   \   00003A   12....       LCALL   ?Subroutine30 & 0xFFFF
    831            *pBuf++ = pNodeDesc->MaxBufferSize;
   \                     ??CrossCallReturnLabel_50:
   \   00003D   12....       LCALL   ?Subroutine65 & 0xFFFF
   \                     ??CrossCallReturnLabel_112:
   \   000040   12....       LCALL   ?Subroutine30 & 0xFFFF
    832            *pBuf++ = pNodeDesc->MaxInTransferSize[0];
   \                     ??CrossCallReturnLabel_51:
   \   000043   A3           INC     DPTR
   \   000044   12....       LCALL   ?Subroutine49 & 0xFFFF
   \                     ??CrossCallReturnLabel_81:
   \   000047   12....       LCALL   ?Subroutine24 & 0xFFFF
    833            *pBuf++ = pNodeDesc->MaxInTransferSize[1];
   \                     ??CrossCallReturnLabel_30:
   \   00004A   12....       LCALL   ?Subroutine49 & 0xFFFF
   \                     ??CrossCallReturnLabel_82:
   \   00004D   A3           INC     DPTR
   \   00004E   F0           MOVX    @DPTR,A
    834          
    835            *pBuf++ = LO_UINT16( pNodeDesc->ServerMask );
   \   00004F   E8           MOV     A,R0
   \   000050   2408         ADD     A,#0x8
   \   000052   FC           MOV     R4,A
   \   000053   E4           CLR     A
   \   000054   39           ADDC    A,R1
   \   000055   FD           MOV     R5,A
   \   000056   8C82         MOV     DPL,R4
   \   000058   8D83         MOV     DPH,R5
   \   00005A   E0           MOVX    A,@DPTR
   \   00005B   F5..         MOV     ?V0,A
   \   00005D   EE           MOV     A,R6
   \   00005E   240B         ADD     A,#0xb
   \   000060   F582         MOV     DPL,A
   \   000062   E4           CLR     A
   \   000063   3F           ADDC    A,R7
   \   000064   F583         MOV     DPH,A
   \   000066   E5..         MOV     A,?V0
   \   000068   12....       LCALL   ??Subroutine113_0 & 0xFFFF
    836            *pBuf++ = HI_UINT16( pNodeDesc->ServerMask );
   \                     ??CrossCallReturnLabel_200:
   \   00006B   E0           MOVX    A,@DPTR
   \   00006C   C0E0         PUSH    A
   \   00006E   EE           MOV     A,R6
   \   00006F   240C         ADD     A,#0xc
   \   000071   F582         MOV     DPL,A
   \   000073   E4           CLR     A
   \   000074   3F           ADDC    A,R7
   \   000075   F583         MOV     DPH,A
   \   000077   D0E0         POP     A
   \   000079   12....       LCALL   ?Subroutine24 & 0xFFFF
    837            *pBuf++ = pNodeDesc->MaxOutTransferSize[0];
   \                     ??CrossCallReturnLabel_31:
   \   00007C   A3           INC     DPTR
   \   00007D   A3           INC     DPTR
   \   00007E   A3           INC     DPTR
   \   00007F   E0           MOVX    A,@DPTR
   \   000080   C0E0         PUSH    A
   \   000082   EE           MOV     A,R6
   \   000083   240D         ADD     A,#0xd
   \   000085   F582         MOV     DPL,A
   \   000087   E4           CLR     A
   \   000088   3F           ADDC    A,R7
   \   000089   F583         MOV     DPH,A
   \   00008B   D0E0         POP     A
   \   00008D   F0           MOVX    @DPTR,A
    838            *pBuf++ = pNodeDesc->MaxOutTransferSize[1];
   \   00008E   E8           MOV     A,R0
   \   00008F   240B         ADD     A,#0xb
   \   000091   F582         MOV     DPL,A
   \   000093   E4           CLR     A
   \   000094   39           ADDC    A,R1
   \   000095   F583         MOV     DPH,A
   \   000097   E0           MOVX    A,@DPTR
   \   000098   C0E0         PUSH    A
   \   00009A   EE           MOV     A,R6
   \   00009B   240E         ADD     A,#0xe
   \   00009D   F582         MOV     DPL,A
   \   00009F   E4           CLR     A
   \   0000A0   3F           ADDC    A,R7
   \   0000A1   F583         MOV     DPH,A
   \   0000A3   D0E0         POP     A
   \   0000A5   F0           MOVX    @DPTR,A
    839            *pBuf = pNodeDesc->DescriptorCapability;
   \   0000A6   E8           MOV     A,R0
   \   0000A7   240C         ADD     A,#0xc
   \   0000A9   F582         MOV     DPL,A
   \   0000AB   E4           CLR     A
   \   0000AC   39           ADDC    A,R1
   \   0000AD   F583         MOV     DPH,A
   \   0000AF   E0           MOVX    A,@DPTR
   \   0000B0   C0E0         PUSH    A
   \   0000B2   EE           MOV     A,R6
   \   0000B3   240F         ADD     A,#0xf
   \   0000B5   F582         MOV     DPL,A
   \   0000B7   E4           CLR     A
   \   0000B8   3F           ADDC    A,R7
   \   0000B9   F583         MOV     DPH,A
   \   0000BB   D0E0         POP     A
   \   0000BD   F0           MOVX    @DPTR,A
    840          
    841            return fillAndSend( &(inMsg->TransSeq), &(inMsg->srcAddr), Node_Desc_rsp, len );
   \   0000BE                ; Setup parameters for call to function fillAndSend
   \   0000BE   75..02       MOV     ?V0,#0x2
   \   0000C1   75..80       MOV     ?V1,#-0x80
   \   0000C4   78..         MOV     R0,#?V0
   \   0000C6   12....       LCALL   ?PUSH_XSTACK_I_TWO
   \   0000C9   7910         MOV     R1,#0x10
   \   0000CB   12....       LCALL   ?Subroutine72 & 0xFFFF
   \                     ??CrossCallReturnLabel_129:
   \   0000CE   5001         JNC     ??ZDP_NodeDescMsg_0
   \   0000D0   0B           INC     R3
   \                     ??ZDP_NodeDescMsg_0:
   \   0000D1   80..         SJMP    ??Subroutine110_0
    842          }

   \                                 In  segment BANKED_CODE, align 1, keep-with-next
   \                     ?Subroutine49:
   \   000000   12....       LCALL   ?Subroutine81 & 0xFFFF
   \                     ??CrossCallReturnLabel_144:
   \   000003   A3           INC     DPTR
   \   000004   A3           INC     DPTR
   \   000005   A3           INC     DPTR
   \   000006   A3           INC     DPTR
   \   000007   A3           INC     DPTR
   \   000008   22           RET

   \                                 In  segment BANKED_CODE, align 1, keep-with-next
   \                     ?Subroutine31:
   \   000000   A3           INC     DPTR
   \   000001   A3           INC     DPTR
   \   000002   A3           INC     DPTR
   \   000003   A3           INC     DPTR
   \   000004   A3           INC     DPTR
   \   000005                REQUIRE ??Subroutine109_0
   \   000005                ; // Fall through to label ??Subroutine109_0

   \                                 In  segment BANKED_CODE, align 1, keep-with-next
   \                     ??Subroutine109_0:
   \   000000   12....       LCALL   ?Subroutine91 & 0xFFFF
   \                     ??CrossCallReturnLabel_184:
   \   000003   A3           INC     DPTR
   \   000004   A3           INC     DPTR
   \   000005   22           RET

   \                                 In  segment BANKED_CODE, align 1, keep-with-next
   \                     ?Subroutine30:
   \   000000   A3           INC     DPTR
   \   000001   A3           INC     DPTR
   \   000002   A3           INC     DPTR
   \   000003   A3           INC     DPTR
   \   000004   A3           INC     DPTR
   \   000005   A3           INC     DPTR
   \   000006   A3           INC     DPTR
   \   000007   12....       LCALL   ?Subroutine90 & 0xFFFF
   \                     ??CrossCallReturnLabel_154:
   \   00000A   22           RET

   \                                 In  segment BANKED_CODE, align 1, keep-with-next
   \                     ?Subroutine90:
   \   000000   12....       LCALL   ?Subroutine99 & 0xFFFF
   \                     ??CrossCallReturnLabel_190:
   \   000003   A3           INC     DPTR
   \   000004   A3           INC     DPTR
   \   000005   A3           INC     DPTR
   \   000006   A3           INC     DPTR
   \   000007   A3           INC     DPTR
   \   000008   22           RET

   \                                 In  segment BANKED_CODE, align 1, keep-with-next
   \                     ?Subroutine24:
   \   000000   12....       LCALL   ?Subroutine90 & 0xFFFF
   \                     ??CrossCallReturnLabel_155:
   \   000003   A3           INC     DPTR
   \   000004   A3           INC     DPTR
   \   000005   22           RET

   \                                 In  segment BANKED_CODE, align 1, keep-with-next
   \                     ?Subroutine72:
   \   000000   EA           MOV     A,R2
   \   000001   2402         ADD     A,#0x2
   \   000003   FC           MOV     R4,A
   \   000004   E4           CLR     A
   \   000005   3B           ADDC    A,R3
   \   000006   FD           MOV     R5,A
   \   000007   EA           MOV     A,R2
   \   000008   240F         ADD     A,#0xf
   \   00000A   FA           MOV     R2,A
   \   00000B   22           RET

   \                                 In  segment BANKED_CODE, align 1, keep-with-next
   \                     ?Subroutine20:
   \   000000   FF           MOV     R7,A
   \   000001   8E82         MOV     DPL,R6
   \   000003   8F83         MOV     DPH,R7
   \   000005   E4           CLR     A
   \   000006   F0           MOVX    @DPTR,A
   \   000007   EC           MOV     A,R4
   \   000008   A3           INC     DPTR
   \   000009   F0           MOVX    @DPTR,A
   \   00000A   ED           MOV     A,R5
   \   00000B   8E82         MOV     DPL,R6
   \   00000D   8F83         MOV     DPH,R7
   \   00000F   A3           INC     DPTR
   \   000010   A3           INC     DPTR
   \   000011   F0           MOVX    @DPTR,A
   \   000012   740A         MOV     A,#0xa
   \   000014   22           RET

   \                                 In  segment BANKED_CODE, align 1, keep-with-next
   \                     ??Subroutine113_0:
   \   000000   12....       LCALL   ?Subroutine89 & 0xFFFF
   \                     ??CrossCallReturnLabel_204:
   \   000003   A3           INC     DPTR
   \   000004   22           RET

   \                                 In  segment BANKED_CODE, align 1, keep-with-next
   \                     ?Subroutine65:
   \   000000   E0           MOVX    A,@DPTR
   \   000001   8E82         MOV     DPL,R6
   \   000003   8F83         MOV     DPH,R7
   \   000005   A3           INC     DPTR
   \   000006   22           RET

   \                                 In  segment BANKED_CODE, align 1, keep-with-next
   \                     ?Subroutine64:
   \   000000   A3           INC     DPTR
   \   000001   12....       LCALL   ?Subroutine81 & 0xFFFF
   \                     ??CrossCallReturnLabel_145:
   \   000004   22           RET

   \                                 In  segment BANKED_CODE, align 1, keep-with-next
   \                     ?Subroutine81:
   \   000000   E0           MOVX    A,@DPTR
   \   000001   8E82         MOV     DPL,R6
   \   000003   8F83         MOV     DPH,R7
   \   000005   A3           INC     DPTR
   \   000006   A3           INC     DPTR
   \   000007   A3           INC     DPTR
   \   000008   A3           INC     DPTR
   \   000009   22           RET
    843          
    844          /*********************************************************************
    845           * @fn          ZDP_PowerDescMsg
    846           *
    847           * @brief       Builds and sends a Power Descriptor message, unicast to the
    848           *              specified device.
    849           *
    850           * @param       inMsg - incoming message (request)
    851           * @param       nwkAddr - 16 bit network address for device
    852           * @param       pPowerDesc - pointer to the node descriptor
    853           *
    854           * @return      afStatus_t
    855           */

   \                                 In  segment BANKED_CODE, align 1, keep-with-next
    856          afStatus_t ZDP_PowerDescMsg( zdoIncomingMsg_t *inMsg,
   \                     ZDP_PowerDescMsg:
    857                               uint16 nwkAddr, NodePowerDescriptorFormat_t *pPowerDesc )
    858          {
   \   000000                REQUIRE ?V0
   \   000000                REQUIRE ?V1
   \   000000   74F6         MOV     A,#-0xa
   \   000002   12....       LCALL   ?BANKED_ENTER_XDATA
   \   000005                ; Saved register size: 10
   \   000005                ; Auto size: 0
    859            uint8 *pBuf = ZDP_TmpBuf;
   \   000005   12....       LCALL   ??Subroutine125_0 & 0xFFFF
   \                     ??CrossCallReturnLabel_270:
   \   000008   E8           MOV     A,R0
   \   000009   FE           MOV     R6,A
   \   00000A   E9           MOV     A,R1
   \   00000B   12....       LCALL   ?Subroutine20 & 0xFFFF
    860            byte len = 1 + 2 + 2;  // Status + nwkAddr + Node Power descriptor.
    861          
    862            *pBuf++ = ZDP_SUCCESS;
    863          
    864            *pBuf++ = LO_UINT16( nwkAddr );
    865            *pBuf++ = HI_UINT16( nwkAddr );
   \                     ??CrossCallReturnLabel_21:
   \   00000E   12....       LCALL   ?XSTACK_DISP0_8
   \   000011   12....       LCALL   ?Subroutine47 & 0xFFFF
    866          
    867            *pBuf++ = (byte)((pPowerDesc->AvailablePowerSources << 4)
    868                              | (pPowerDesc->PowerMode & 0x0F));
   \                     ??CrossCallReturnLabel_78:
   \   000014   8E82         MOV     DPL,R6
   \   000016   8F83         MOV     DPH,R7
   \   000018   A3           INC     DPTR
   \   000019   12....       LCALL   ?Subroutine32 & 0xFFFF
    869            *pBuf++ = (byte)((pPowerDesc->CurrentPowerSourceLevel << 4)
    870                              | (pPowerDesc->CurrentPowerSource & 0x0F));
   \                     ??CrossCallReturnLabel_187:
   \   00001C   F5..         MOV     ?V0,A
   \   00001E   A3           INC     DPTR
   \   00001F   E0           MOVX    A,@DPTR
   \   000020   F5..         MOV     ?V1,A
   \   000022   540F         ANL     A,#0xf
   \   000024   F9           MOV     R1,A
   \   000025   740C         MOV     A,#0xc
   \   000027   78..         MOV     R0,#?V0
   \   000029   12....       LCALL   ?US_SHR
   \   00002C   E5..         MOV     A,?V0
   \   00002E   C4           SWAP    A
   \   00002F   49           ORL     A,R1
   \   000030   8E82         MOV     DPL,R6
   \   000032   8F83         MOV     DPH,R7
   \   000034   A3           INC     DPTR
   \   000035   A3           INC     DPTR
   \   000036   A3           INC     DPTR
   \   000037   A3           INC     DPTR
   \   000038   F0           MOVX    @DPTR,A
    871          
    872            return fillAndSend( &(inMsg->TransSeq), &(inMsg->srcAddr), Power_Desc_rsp, len );
   \   000039                ; Setup parameters for call to function fillAndSend
   \   000039   75..03       MOV     ?V0,#0x3
   \   00003C   75..80       MOV     ?V1,#-0x80
   \   00003F   78..         MOV     R0,#?V0
   \   000041   12....       LCALL   ?PUSH_XSTACK_I_TWO
   \   000044   7905         MOV     R1,#0x5
   \   000046   12....       LCALL   ?Subroutine72 & 0xFFFF
   \                     ??CrossCallReturnLabel_130:
   \   000049   5001         JNC     ??ZDP_PowerDescMsg_0
   \   00004B   0B           INC     R3
   \                     ??ZDP_PowerDescMsg_0:
   \   00004C   80..         SJMP    ??Subroutine110_0
    873          }

   \                                 In  segment BANKED_CODE, align 1, keep-with-next
   \                     ?Subroutine32:
   \   000000   A3           INC     DPTR
   \   000001   A3           INC     DPTR
   \   000002                REQUIRE ??Subroutine111_0
   \   000002                ; // Fall through to label ??Subroutine111_0

   \                                 In  segment BANKED_CODE, align 1, keep-with-next
   \                     ??Subroutine111_0:
   \   000000   12....       LCALL   ?Subroutine99 & 0xFFFF
   \                     ??CrossCallReturnLabel_191:
   \   000003   E0           MOVX    A,@DPTR
   \   000004   22           RET
    874          
    875          /*********************************************************************
    876           * @fn          ZDP_SimpleDescMsg
    877           *
    878           * @brief       Builds and sends a Simple Descriptor message, unicast to the
    879           *              specified device.
    880           *
    881           * @param       inMsg - incoming message (request)
    882           * @param       Status - message status (ZDP_SUCCESS or other)
    883           * @param       pSimpleDesc - pointer to the node descriptor
    884           *
    885           * @return      afStatus_t
    886           */

   \                                 In  segment BANKED_CODE, align 1, keep-with-next
    887          afStatus_t ZDP_SimpleDescMsg( zdoIncomingMsg_t *inMsg, byte Status,
   \                     ZDP_SimpleDescMsg:
    888                                        SimpleDescriptionFormat_t *pSimpleDesc )
    889          {
   \   000000                REQUIRE ?V0
   \   000000                REQUIRE ?V1
   \   000000                REQUIRE ?V2
   \   000000                REQUIRE ?V3
   \   000000                REQUIRE ?V4
   \   000000                REQUIRE ?V5
   \   000000                REQUIRE ?V6
   \   000000                REQUIRE ?V7
   \   000000                REQUIRE ?V8
   \   000000                REQUIRE ?V9
   \   000000                REQUIRE ?V10
   \   000000                REQUIRE ?V11
   \   000000   74EC         MOV     A,#-0x14
   \   000002   12....       LCALL   ?BANKED_ENTER_XDATA
   \   000005                ; Saved register size: 20
   \   000005                ; Auto size: 0
   \   000005   8A..         MOV     ?V2,R2
   \   000007   8B..         MOV     ?V3,R3
   \   000009   E9           MOV     A,R1
   \   00000A   FE           MOV     R6,A
    890            uint8 *pBuf = ZDP_TmpBuf;
   \   00000B   12....       LCALL   ?Subroutine44 & 0xFFFF
    891            uint8 i, len;
    892          
    893            if ( Status == ZDP_SUCCESS && pSimpleDesc )
   \                     ??CrossCallReturnLabel_171:
   \   00000E   EC           MOV     A,R4
   \   00000F   2409         ADD     A,#0x9
   \   000011   F8           MOV     R0,A
   \   000012   E4           CLR     A
   \   000013   3D           ADDC    A,R5
   \   000014   F9           MOV     R1,A
   \   000015   88..         MOV     ?V4,R0
   \   000017   89..         MOV     ?V5,R1
   \   000019   EC           MOV     A,R4
   \   00001A   2406         ADD     A,#0x6
   \   00001C   F8           MOV     R0,A
   \   00001D   E4           CLR     A
   \   00001E   3D           ADDC    A,R5
   \   00001F   F9           MOV     R1,A
   \   000020   88..         MOV     ?V6,R0
   \   000022   89..         MOV     ?V7,R1
   \   000024   EE           MOV     A,R6
   \   000025   7022         JNZ     ??ZDP_SimpleDescMsg_0
   \   000027   EC           MOV     A,R4
   \   000028   4D           ORL     A,R5
   \   000029   601E         JZ      ??ZDP_SimpleDescMsg_0
    894            {
    895              // Status + NWKAddrOfInterest + desc length + empty simple descriptor.
    896              len = 1 + 2 + 1 + 8;
    897              len += (pSimpleDesc->AppNumInClusters + pSimpleDesc->AppNumOutClusters) * sizeof ( uint16 );
   \   00002B   85..82       MOV     DPL,?V4
   \   00002E   85..83       MOV     DPH,?V5
   \   000031   E0           MOVX    A,@DPTR
   \   000032   F8           MOV     R0,A
   \   000033   85..82       MOV     DPL,?V6
   \   000036   8983         MOV     DPH,R1
   \   000038   E0           MOVX    A,@DPTR
   \   000039   28           ADD     A,R0
   \   00003A   C3           CLR     C
   \   00003B   33           RLC     A
   \   00003C   240C         ADD     A,#0xc
   \   00003E   FA           MOV     R2,A
    898            }
    899            else
    900            {
    901              len = 1 + 2 + 1; // Status + desc length
    902            }
    903            if ( len >= ZDP_BUF_SZ-1 )
   \   00003F   C3           CLR     C
   \   000040   944F         SUBB    A,#0x4f
   \   000042   4007         JC      ??ZDP_SimpleDescMsg_1
    904            {
    905              return afStatus_MEM_FAIL;
   \   000044   7910         MOV     R1,#0x10
   \   000046   02....       LJMP    ??ZDP_SimpleDescMsg_2 & 0xFFFF
    906            }
   \                     ??ZDP_SimpleDescMsg_0:
   \   000049   7A04         MOV     R2,#0x4
    907          
    908            *pBuf++ = Status;
   \                     ??ZDP_SimpleDescMsg_1:
   \   00004B   EE           MOV     A,R6
   \   00004C   85..82       MOV     DPL,?V0
   \   00004F   85..83       MOV     DPH,?V1
   \   000052   F0           MOVX    @DPTR,A
    909          
    910            *pBuf++ = LO_UINT16( ZDAppNwkAddr.addr.shortAddr );
   \   000053   90....       MOV     DPTR,#ZDAppNwkAddr
   \   000056   12....       LCALL   ?Subroutine69 & 0xFFFF
   \                     ??CrossCallReturnLabel_118:
   \   000059   F0           MOVX    @DPTR,A
    911            *pBuf++ = HI_UINT16( ZDAppNwkAddr.addr.shortAddr );
   \   00005A   90....       MOV     DPTR,#ZDAppNwkAddr + 1
   \   00005D   12....       LCALL   ?Subroutine46 & 0xFFFF
   \                     ??CrossCallReturnLabel_72:
   \   000060   F0           MOVX    @DPTR,A
    912          
    913            if ( len > 4 )
   \   000061   E5..         MOV     A,?V0
   \   000063   2403         ADD     A,#0x3
   \   000065   F582         MOV     DPL,A
   \   000067   E4           CLR     A
   \   000068   35..         ADDC    A,?V1
   \   00006A   F583         MOV     DPH,A
   \   00006C   EA           MOV     A,R2
   \   00006D   C3           CLR     C
   \   00006E   9405         SUBB    A,#0x5
   \   000070   5003         JNC     $+5
   \   000072   02....       LJMP    ??ZDP_SimpleDescMsg_3 & 0xFFFF
    914            {
    915              *pBuf++ = len - 4;   // Simple descriptor length
   \   000075   74FC         MOV     A,#-0x4
   \   000077   2A           ADD     A,R2
   \   000078   12....       LCALL   ?Subroutine89 & 0xFFFF
    916          
    917              *pBuf++ = pSimpleDesc->EndPoint;
   \                     ??CrossCallReturnLabel_202:
   \   00007B   12....       LCALL   ?Subroutine46 & 0xFFFF
   \                     ??CrossCallReturnLabel_73:
   \   00007E   12....       LCALL   ?Subroutine35 & 0xFFFF
    918              *pBuf++ = LO_UINT16( pSimpleDesc->AppProfId );
   \                     ??CrossCallReturnLabel_198:
   \   000081   A882         MOV     R0,DPL
   \   000083   A983         MOV     R1,DPH
   \   000085   12....       LCALL   ?Subroutine70 & 0xFFFF
   \                     ??CrossCallReturnLabel_120:
   \   000088   12....       LCALL   ?Subroutine11 & 0xFFFF
    919              *pBuf++ = HI_UINT16( pSimpleDesc->AppProfId );
   \                     ??CrossCallReturnLabel_2:
   \   00008B   F0           MOVX    @DPTR,A
    920              *pBuf++ = LO_UINT16( pSimpleDesc->AppDeviceId );
   \   00008C   EC           MOV     A,R4
   \   00008D   2403         ADD     A,#0x3
   \   00008F   F8           MOV     R0,A
   \   000090   E4           CLR     A
   \   000091   3D           ADDC    A,R5
   \   000092   F9           MOV     R1,A
   \   000093   8882         MOV     DPL,R0
   \   000095   8983         MOV     DPH,R1
   \   000097   12....       LCALL   ?Subroutine46 & 0xFFFF
   \                     ??CrossCallReturnLabel_74:
   \   00009A   12....       LCALL   ?Subroutine11 & 0xFFFF
    921              *pBuf++ = HI_UINT16( pSimpleDesc->AppDeviceId );
   \                     ??CrossCallReturnLabel_3:
   \   00009D   12....       LCALL   ?Subroutine35 & 0xFFFF
    922          
    923              *pBuf++ = (byte)(pSimpleDesc->AppDevVer & 0x0F);
   \                     ??CrossCallReturnLabel_199:
   \   0000A0   A3           INC     DPTR
   \   0000A1   A3           INC     DPTR
   \   0000A2   A3           INC     DPTR
   \   0000A3   A3           INC     DPTR
   \   0000A4   E0           MOVX    A,@DPTR
   \   0000A5   540F         ANL     A,#0xf
   \   0000A7   85..82       MOV     DPL,?V0
   \   0000AA   85..83       MOV     DPH,?V1
   \   0000AD   A3           INC     DPTR
   \   0000AE   A3           INC     DPTR
   \   0000AF   A3           INC     DPTR
   \   0000B0   A3           INC     DPTR
   \   0000B1   A3           INC     DPTR
   \   0000B2   A3           INC     DPTR
   \   0000B3   A3           INC     DPTR
   \   0000B4   A3           INC     DPTR
   \   0000B5   A3           INC     DPTR
   \   0000B6   F0           MOVX    @DPTR,A
    924          
    925              *pBuf++ = pSimpleDesc->AppNumInClusters;
   \   0000B7   85..82       MOV     DPL,?V6
   \   0000BA   85..83       MOV     DPH,?V7
   \   0000BD   12....       LCALL   ?Subroutine46 & 0xFFFF
   \                     ??CrossCallReturnLabel_75:
   \   0000C0   A3           INC     DPTR
   \   0000C1   A3           INC     DPTR
   \   0000C2   A3           INC     DPTR
   \   0000C3   A3           INC     DPTR
   \   0000C4   A3           INC     DPTR
   \   0000C5   A3           INC     DPTR
   \   0000C6   A3           INC     DPTR
   \   0000C7   A3           INC     DPTR
   \   0000C8   F0           MOVX    @DPTR,A
   \   0000C9   E5..         MOV     A,?V0
   \   0000CB   240B         ADD     A,#0xb
   \   0000CD   F5..         MOV     ?V0,A
   \   0000CF   5002         JNC     ??ZDP_SimpleDescMsg_4
   \   0000D1   05..         INC     ?V1
    926              if ( pSimpleDesc->AppNumInClusters )
   \                     ??ZDP_SimpleDescMsg_4:
   \   0000D3   85..82       MOV     DPL,?V6
   \   0000D6   85..83       MOV     DPH,?V7
   \   0000D9   E0           MOVX    A,@DPTR
   \   0000DA   6033         JZ      ??ZDP_SimpleDescMsg_5
    927              {
    928                for (i=0; i<pSimpleDesc->AppNumInClusters; ++i)
   \   0000DC   7B00         MOV     R3,#0x0
   \   0000DE   EC           MOV     A,R4
   \   0000DF   2407         ADD     A,#0x7
   \   0000E1   F8           MOV     R0,A
   \   0000E2   E4           CLR     A
   \   0000E3   3D           ADDC    A,R5
   \   0000E4   F9           MOV     R1,A
   \   0000E5   88..         MOV     ?V8,R0
   \   0000E7   89..         MOV     ?V9,R1
   \   0000E9   8017         SJMP    ??ZDP_SimpleDescMsg_6
    929                {
    930                  *pBuf++ = LO_UINT16( pSimpleDesc->pAppInClusterList[i] );
   \                     ??ZDP_SimpleDescMsg_7:
   \   0000EB   12....       LCALL   ?Subroutine73 & 0xFFFF
    931                  *pBuf++ = HI_UINT16( pSimpleDesc->pAppInClusterList[i] );
    932                }
   \                     ??CrossCallReturnLabel_196:
   \   0000EE   85..82       MOV     DPL,?V8
   \   0000F1   85..83       MOV     DPH,?V9
   \   0000F4   12....       LCALL   ?Subroutine48 & 0xFFFF
   \                     ??CrossCallReturnLabel_79:
   \   0000F7   12....       LCALL   ?Subroutine27 & 0xFFFF
   \                     ??CrossCallReturnLabel_38:
   \   0000FA   12....       LCALL   ?Subroutine15 & 0xFFFF
   \                     ??CrossCallReturnLabel_215:
   \   0000FD   5002         JNC     ??ZDP_SimpleDescMsg_8
   \   0000FF   05..         INC     ?V1
   \                     ??ZDP_SimpleDescMsg_8:
   \   000101   0B           INC     R3
   \                     ??ZDP_SimpleDescMsg_6:
   \   000102   85..82       MOV     DPL,?V6
   \   000105   85..83       MOV     DPH,?V7
   \   000108   E0           MOVX    A,@DPTR
   \   000109   F8           MOV     R0,A
   \   00010A   EB           MOV     A,R3
   \   00010B   C3           CLR     C
   \   00010C   98           SUBB    A,R0
   \   00010D   40DC         JC      ??ZDP_SimpleDescMsg_7
    933              }
    934          
    935              *pBuf++ = pSimpleDesc->AppNumOutClusters;
   \                     ??ZDP_SimpleDescMsg_5:
   \   00010F   85..82       MOV     DPL,?V4
   \   000112   85..83       MOV     DPH,?V5
   \   000115   12....       LCALL   ?Subroutine70 & 0xFFFF
   \                     ??CrossCallReturnLabel_121:
   \   000118   F0           MOVX    @DPTR,A
   \   000119   A3           INC     DPTR
   \   00011A   8582..       MOV     ?V0,DPL
   \   00011D   8583..       MOV     ?V1,DPH
    936              if ( pSimpleDesc->AppNumOutClusters )
   \   000120   85..82       MOV     DPL,?V4
   \   000123   85..83       MOV     DPH,?V5
   \   000126   E0           MOVX    A,@DPTR
   \   000127   6033         JZ      ??ZDP_SimpleDescMsg_9
    937              {
    938                for (i=0; i<pSimpleDesc->AppNumOutClusters; ++i)
   \   000129   7B00         MOV     R3,#0x0
   \   00012B   EC           MOV     A,R4
   \   00012C   240A         ADD     A,#0xa
   \   00012E   F8           MOV     R0,A
   \   00012F   E4           CLR     A
   \   000130   3D           ADDC    A,R5
   \   000131   F9           MOV     R1,A
   \   000132   E8           MOV     A,R0
   \   000133   FC           MOV     R4,A
   \   000134   E9           MOV     A,R1
   \   000135   FD           MOV     R5,A
   \                     ??ZDP_SimpleDescMsg_10:
   \   000136   85..82       MOV     DPL,?V4
   \   000139   85..83       MOV     DPH,?V5
   \   00013C   E0           MOVX    A,@DPTR
   \   00013D   F8           MOV     R0,A
   \   00013E   EB           MOV     A,R3
   \   00013F   C3           CLR     C
   \   000140   98           SUBB    A,R0
   \   000141   5019         JNC     ??ZDP_SimpleDescMsg_9
    939                {
    940                  *pBuf++ = LO_UINT16( pSimpleDesc->pAppOutClusterList[i] );
   \   000143   12....       LCALL   ?Subroutine73 & 0xFFFF
    941                  *pBuf++ = HI_UINT16( pSimpleDesc->pAppOutClusterList[i] );
    942                }
   \                     ??CrossCallReturnLabel_197:
   \   000146   8C82         MOV     DPL,R4
   \   000148   8D83         MOV     DPH,R5
   \   00014A   12....       LCALL   ?Subroutine48 & 0xFFFF
   \                     ??CrossCallReturnLabel_80:
   \   00014D   12....       LCALL   ?Subroutine89 & 0xFFFF
   \                     ??CrossCallReturnLabel_203:
   \   000150   12....       LCALL   ?Subroutine15 & 0xFFFF
   \                     ??CrossCallReturnLabel_216:
   \   000153   5002         JNC     ??ZDP_SimpleDescMsg_11
   \   000155   05..         INC     ?V1
   \                     ??ZDP_SimpleDescMsg_11:
   \   000157   0B           INC     R3
   \   000158   80DC         SJMP    ??ZDP_SimpleDescMsg_10
    943              }
    944            }
    945          
    946            else
    947            {
    948              *pBuf = 0; // Description Length = 0;
   \                     ??ZDP_SimpleDescMsg_3:
   \   00015A   E4           CLR     A
   \   00015B   F0           MOVX    @DPTR,A
    949            }
    950          
    951            return fillAndSend( &(inMsg->TransSeq), &(inMsg->srcAddr), Simple_Desc_rsp, len );
   \                     ??ZDP_SimpleDescMsg_9:
   \   00015C                ; Setup parameters for call to function fillAndSend
   \   00015C   75..04       MOV     ?V0,#0x4
   \   00015F   75..80       MOV     ?V1,#-0x80
   \   000162   78..         MOV     R0,#?V0
   \   000164   12....       LCALL   ?PUSH_XSTACK_I_TWO
   \   000167   EA           MOV     A,R2
   \   000168   F9           MOV     R1,A
   \   000169   E5..         MOV     A,?V2
   \   00016B   2402         ADD     A,#0x2
   \   00016D   FC           MOV     R4,A
   \   00016E   E4           CLR     A
   \   00016F   35..         ADDC    A,?V3
   \   000171   FD           MOV     R5,A
   \   000172   E5..         MOV     A,?V2
   \   000174   240F         ADD     A,#0xf
   \   000176   FA           MOV     R2,A
   \   000177   E4           CLR     A
   \   000178   35..         ADDC    A,?V3
   \   00017A   FB           MOV     R3,A
   \   00017B   12....       LCALL   `??fillAndSend::?relay`; Banked call to: fillAndSend
   \   00017E   7402         MOV     A,#0x2
   \   000180   12....       LCALL   ?DEALLOC_XSTACK8
   \                     ??ZDP_SimpleDescMsg_2:
   \   000183   02....       LJMP    ?Subroutine4 & 0xFFFF
    952          }

   \                                 In  segment BANKED_CODE, align 1, keep-with-next
   \                     ?Subroutine73:
   \   000000   EB           MOV     A,R3
   \   000001                REQUIRE ??Subroutine112_0
   \   000001                ; // Fall through to label ??Subroutine112_0

   \                                 In  segment BANKED_CODE, align 1, keep-with-next
   \                     ?Subroutine48:
   \   000000   12....       LCALL   ?Subroutine78 & 0xFFFF
   \                     ??CrossCallReturnLabel_139:
   \   000003   12....       LCALL   ?Subroutine100 & 0xFFFF
   \                     ??CrossCallReturnLabel_210:
   \   000006   22           RET

   \                                 In  segment BANKED_CODE, align 1, keep-with-next
   \                     ?Subroutine46:
   \   000000   12....       LCALL   ?Subroutine82 & 0xFFFF
   \                     ??CrossCallReturnLabel_147:
   \   000003   22           RET

   \                                 In  segment BANKED_CODE, align 1, keep-with-next
   \                     ?Subroutine82:
   \   000000   12....       LCALL   ?Subroutine98 & 0xFFFF
   \                     ??CrossCallReturnLabel_208:
   \   000003   A3           INC     DPTR
   \   000004   22           RET

   \                                 In  segment BANKED_CODE, align 1, keep-with-next
   \                     ?Subroutine35:
   \   000000   A3           INC     DPTR
   \   000001   A3           INC     DPTR
   \   000002                REQUIRE ??Subroutine113_0
   \   000002                ; // Fall through to label ??Subroutine113_0

   \                                 In  segment BANKED_CODE, align 1, keep-with-next
   \                     ?Subroutine15:
   \   000000   12....       LCALL   ?Subroutine78 & 0xFFFF
   \                     ??CrossCallReturnLabel_138:
   \   000003                REQUIRE ??Subroutine114_0
   \   000003                ; // Fall through to label ??Subroutine114_0

   \                                 In  segment BANKED_CODE, align 1, keep-with-next
   \                     ??Subroutine114_0:
   \   000000   A3           INC     DPTR
   \   000001   12....       LCALL   ?Subroutine85 & 0xFFFF
   \                     ??CrossCallReturnLabel_207:
   \   000004                REQUIRE ??Subroutine115_0
   \   000004                ; // Fall through to label ??Subroutine115_0

   \                                 In  segment BANKED_CODE, align 1, keep-with-next
   \                     ??Subroutine115_0:
   \   000000   F0           MOVX    @DPTR,A
   \   000001   E5..         MOV     A,?V0
   \   000003   2402         ADD     A,#0x2
   \   000005   F5..         MOV     ?V0,A
   \   000007   22           RET

   \                                 In  segment BANKED_CODE, align 1, keep-with-next
   \                     ?Subroutine78:
   \   000000   E0           MOVX    A,@DPTR
   \   000001   28           ADD     A,R0
   \   000002   FF           MOV     R7,A
   \   000003   A3           INC     DPTR
   \   000004   E0           MOVX    A,@DPTR
   \   000005   39           ADDC    A,R1
   \   000006   8F82         MOV     DPL,R7
   \   000008   F583         MOV     DPH,A
   \   00000A   22           RET

   \                                 In  segment BANKED_CODE, align 1, keep-with-next
   \                     ?Subroutine11:
   \   000000   A3           INC     DPTR
   \   000001   A3           INC     DPTR
   \   000002   A3           INC     DPTR
   \   000003   A3           INC     DPTR
   \   000004   A3           INC     DPTR
   \   000005   12....       LCALL   ?Subroutine91 & 0xFFFF
   \                     ??CrossCallReturnLabel_185:
   \   000008   12....       LCALL   ?Subroutine82 & 0xFFFF
   \                     ??CrossCallReturnLabel_146:
   \   00000B   A3           INC     DPTR
   \   00000C   A3           INC     DPTR
   \   00000D   A3           INC     DPTR
   \   00000E   A3           INC     DPTR
   \   00000F   22           RET

   \                                 In  segment BANKED_CODE, align 1, keep-with-next
   \                     ?Subroutine70:
   \   000000   12....       LCALL   ?Subroutine100 & 0xFFFF
   \                     ??CrossCallReturnLabel_211:
   \   000003   22           RET

   \                                 In  segment BANKED_CODE, align 1, keep-with-next
   \                     ?Subroutine100:
   \   000000   E0           MOVX    A,@DPTR
   \   000001   85..82       MOV     DPL,?V0
   \   000004   85..83       MOV     DPH,?V1
   \   000007   22           RET

   \                                 In  segment BANKED_CODE, align 1, keep-with-next
   \                     ?Subroutine69:
   \   000000   12....       LCALL   ?Subroutine85 & 0xFFFF
   \                     ??CrossCallReturnLabel_206:
   \   000003   22           RET

   \                                 In  segment BANKED_CODE, align 1, keep-with-next
   \                     ?Subroutine85:
   \   000000   12....       LCALL   ?Subroutine98 & 0xFFFF
   \                     ??CrossCallReturnLabel_209:
   \   000003   22           RET

   \                                 In  segment BANKED_CODE, align 1, keep-with-next
   \                     ?Subroutine98:
   \   000000   12....       LCALL   ?Subroutine100 & 0xFFFF
   \                     ??CrossCallReturnLabel_212:
   \   000003   A3           INC     DPTR
   \   000004   22           RET
    953          
    954          /*********************************************************************
    955           * @fn          ZDP_EPRsp
    956           *
    957           * @brief       This builds and send an endpoint list. Used in
    958           *              Active_EP_rsp and Match_Desc_Rsp
    959           *              message.  This function sends unicast message to the
    960           *              requesting device.
    961           *
    962           * @param       MsgType - either Active_EP_rsp or Match_Desc_Rsp
    963           * @param       dstAddr - destination address
    964           * @param       Status - message status (ZDP_SUCCESS or other)
    965           * @param       nwkAddr - Device's short address that this response describes
    966           * @param       Count - number of endpoint/interfaces in list
    967           * @param       pEPIntfList - Array of Endpoint/Interfaces
    968           * @param       SecurityEnable - Security Options
    969           *
    970           * @return      afStatus_t
    971           */

   \                                 In  segment BANKED_CODE, align 1, keep-with-next
    972          afStatus_t ZDP_EPRsp( uint16 MsgType, byte TransSeq, zAddrType_t *dstAddr,
   \                     ZDP_EPRsp:
    973                                  byte Status, uint16 nwkAddr, byte Count,
    974                                  uint8 *pEPList,
    975                                  byte SecurityEnable )
    976          {
   \   000000                REQUIRE ?V0
   \   000000                REQUIRE ?V1
   \   000000                REQUIRE ?V2
   \   000000                REQUIRE ?V3
   \   000000                REQUIRE ?V4
   \   000000                REQUIRE ?V5
   \   000000                REQUIRE ?V6
   \   000000   74F1         MOV     A,#-0xf
   \   000002   12....       LCALL   ?BANKED_ENTER_XDATA
   \   000005                ; Saved register size: 15
   \   000005                ; Auto size: 1
   \   000005   74FF         MOV     A,#-0x1
   \   000007   12....       LCALL   ?ALLOC_XSTACK8
   \   00000A   E9           MOV     A,R1
   \   00000B   85..82       MOV     DPL,?XSP + 0
   \   00000E   85..83       MOV     DPH,?XSP + 1
   \   000011   F0           MOVX    @DPTR,A
   \   000012   8A..         MOV     ?V2,R2
   \   000014   8B..         MOV     ?V3,R3
   \   000016   EC           MOV     A,R4
   \   000017   FE           MOV     R6,A
   \   000018   ED           MOV     A,R5
   \   000019   FF           MOV     R7,A
    977            uint8 *pBuf = ZDP_TmpBuf;
   \   00001A   90....       MOV     DPTR,#ZDP_TmpBuf
   \   00001D   12....       LCALL   ?Subroutine58 & 0xFFFF
    978            byte len = 1 + 2 + 1;  // Status + nwkAddr + endpoint/interface count.
   \                     ??CrossCallReturnLabel_96:
   \   000020   75..04       MOV     ?V0,#0x4
    979            byte txOptions;
    980          
    981            (void)SecurityEnable;  // Intentionally unreferenced parameter
    982          
    983            if ( MsgType == Match_Desc_rsp )
   \   000023   7406         MOV     A,#0x6
   \   000025   65..         XRL     A,?V2
   \   000027   7004         JNZ     ??ZDP_EPRsp_0
   \   000029   7480         MOV     A,#-0x80
   \   00002B   65..         XRL     A,?V3
   \                     ??ZDP_EPRsp_0:
   \   00002D   7005         JNZ     ??ZDP_EPRsp_1
    984              txOptions = AF_MSG_ACK_REQUEST;
   \   00002F   75..10       MOV     ?V1,#0x10
   \   000032   8003         SJMP    ??ZDP_EPRsp_2
    985            else
    986              txOptions = 0;
   \                     ??ZDP_EPRsp_1:
   \   000034   75..00       MOV     ?V1,#0x0
    987          
    988              *pBuf++ = Status;
   \                     ??ZDP_EPRsp_2:
   \   000037   7410         MOV     A,#0x10
   \   000039   12....       LCALL   ?XSTACK_DISP0_8
   \   00003C   12....       LCALL   ?Subroutine62 & 0xFFFF
   \                     ??CrossCallReturnLabel_102:
   \   00003F   7411         MOV     A,#0x11
   \   000041   12....       LCALL   ?XSTACK_DISP0_8
   \   000044   12....       LCALL   ?Subroutine16 & 0xFFFF
    989            *pBuf++ = LO_UINT16( nwkAddr );
    990            *pBuf++ = HI_UINT16( nwkAddr );
   \                     ??CrossCallReturnLabel_10:
   \   000047   7413         MOV     A,#0x13
   \   000049   12....       LCALL   ?XSTACK_DISP0_8
   \   00004C   E0           MOVX    A,@DPTR
   \   00004D   FC           MOV     R4,A
    991          
    992            *pBuf++ = Count;   // Endpoint/Interface count
   \   00004E   8A82         MOV     DPL,R2
   \   000050   8B83         MOV     DPH,R3
   \   000052   A3           INC     DPTR
   \   000053   A3           INC     DPTR
   \   000054   A3           INC     DPTR
   \   000055   F0           MOVX    @DPTR,A
    993          
    994            if ( Count )
   \   000056   6021         JZ      ??ZDP_EPRsp_3
    995            {
    996              len += Count;
   \   000058   7404         MOV     A,#0x4
   \   00005A   2C           ADD     A,R4
   \   00005B   F5..         MOV     ?V0,A
    997              osal_memcpy( pBuf, pEPList, Count );
   \   00005D                ; Setup parameters for call to function osal_memcpy
   \   00005D   7414         MOV     A,#0x14
   \   00005F   12....       LCALL   ?XSTACK_DISP0_8
   \   000062   12....       LCALL   ?Subroutine51 & 0xFFFF
    998            }
   \                     ??CrossCallReturnLabel_83:
   \   000065   12....       LCALL   ?PUSH_XSTACK_I_THREE
   \   000068   7D00         MOV     R5,#0x0
   \   00006A   EA           MOV     A,R2
   \   00006B   2404         ADD     A,#0x4
   \   00006D   FA           MOV     R2,A
   \   00006E   5001         JNC     ??ZDP_EPRsp_4
   \   000070   0B           INC     R3
   \                     ??ZDP_EPRsp_4:
   \   000071   12....       LCALL   `??osal_memcpy::?relay`; Banked call to: osal_memcpy
   \   000074   7403         MOV     A,#0x3
   \   000076   12....       LCALL   ?DEALLOC_XSTACK8
    999          
   1000            FillAndSendTxOptions( &TransSeq, dstAddr, MsgType, len, txOptions );
   \                     ??ZDP_EPRsp_3:
   \   000079   E5..         MOV     A,?V1
   \   00007B   90....       MOV     DPTR,#ZDP_TxOptions
   \   00007E   F0           MOVX    @DPTR,A
   \   00007F                ; Setup parameters for call to function fillAndSend
   \   00007F   78..         MOV     R0,#?V2
   \   000081   12....       LCALL   ?PUSH_XSTACK_I_TWO
   \   000084   A9..         MOV     R1,?V0
   \   000086   EE           MOV     A,R6
   \   000087   FC           MOV     R4,A
   \   000088   EF           MOV     A,R7
   \   000089   FD           MOV     R5,A
   \   00008A   7402         MOV     A,#0x2
   \   00008C   12....       LCALL   ?XSTACK_DISP101_8
   \   00008F   12....       LCALL   `??fillAndSend::?relay`; Banked call to: fillAndSend
   \   000092   7402         MOV     A,#0x2
   \   000094   12....       LCALL   ?DEALLOC_XSTACK8
   \   000097   E9           MOV     A,R1
   \   000098   F9           MOV     R1,A
   \   000099   90....       MOV     DPTR,#ZDP_TxOptions
   \   00009C   E4           CLR     A
   \   00009D   F0           MOVX    @DPTR,A
   \   00009E   04           INC     A
   \   00009F   02....       LJMP    ?Subroutine3 & 0xFFFF
   1001          }

   \                                 In  segment BANKED_CODE, align 1, keep-with-next
   \                     ?Subroutine58:
   \   000000   12....       LCALL   ?Subroutine77 & 0xFFFF
   \                     ??CrossCallReturnLabel_178:
   \   000003   FA           MOV     R2,A
   \   000004   E9           MOV     A,R1
   \   000005   FB           MOV     R3,A
   \   000006   22           RET

   \                                 In  segment BANKED_CODE, align 1, keep-with-next
   \                     ?Subroutine16:
   \   000000   12....       LCALL   ?Subroutine76 & 0xFFFF
   \                     ??CrossCallReturnLabel_136:
   \   000003   A3           INC     DPTR
   \   000004   12....       LCALL   ?Subroutine93 & 0xFFFF
   \                     ??CrossCallReturnLabel_158:
   \   000007   F0           MOVX    @DPTR,A
   \   000008   22           RET

   \                                 In  segment BANKED_CODE, align 1, keep-with-next
   \                     ?Subroutine62:
   \   000000   12....       LCALL   ?Subroutine95 & 0xFFFF
   \                     ??CrossCallReturnLabel_253:
   \   000003   F0           MOVX    @DPTR,A
   \   000004   22           RET

   \                                 In  segment BANKED_CODE, align 1, keep-with-next
   \                     ?Subroutine76:
   \   000000   12....       LCALL   ??Subroutine127_0 & 0xFFFF
   \                     ??CrossCallReturnLabel_276:
   \   000003   F9           MOV     R1,A
   \   000004   E8           MOV     A,R0
   \   000005   8A82         MOV     DPL,R2
   \   000007   8B83         MOV     DPH,R3
   \   000009   22           RET

   \                                 In  segment BANKED_CODE, align 1, keep-with-next
   \                     ?Subroutine51:
   \   000000   E0           MOVX    A,@DPTR
   \   000001   F5..         MOV     ?V4,A
   \   000003   A3           INC     DPTR
   \   000004   E0           MOVX    A,@DPTR
   \   000005   F5..         MOV     ?V5,A
   \   000007   75..00       MOV     ?V6,#0x0
   \   00000A   78..         MOV     R0,#?V4
   \   00000C   22           RET

   \                                 In  segment BANKED_CODE, align 1, keep-with-next
   \                     ?Subroutine93:
   \   000000   F0           MOVX    @DPTR,A
   \   000001   E9           MOV     A,R1
   \   000002   8A82         MOV     DPL,R2
   \   000004   8B83         MOV     DPH,R3
   \   000006   A3           INC     DPTR
   \   000007   A3           INC     DPTR
   \   000008   22           RET
   1002          
   1003          /*********************************************************************
   1004           * @fn          ZDP_UserDescRsp
   1005           *
   1006           * @brief       Build and send the User Decriptor Response.
   1007           *
   1008           *
   1009           * @param       dstAddr - destination address
   1010           * @param       nwkAddrOfInterest -
   1011           * @param       userDesc -
   1012           * @param       SecurityEnable - Security Options
   1013           *
   1014           * @return      ZStatus_t
   1015           */

   \                                 In  segment BANKED_CODE, align 1, keep-with-next
   1016          ZStatus_t ZDP_UserDescRsp( byte TransSeq, zAddrType_t *dstAddr,
   \                     ZDP_UserDescRsp:
   1017                          uint16 nwkAddrOfInterest, UserDescriptorFormat_t *userDesc,
   1018                          byte SecurityEnable )
   1019          {
   \   000000                REQUIRE ?V0
   \   000000                REQUIRE ?V1
   \   000000                REQUIRE ?V2
   \   000000                REQUIRE ?V4
   \   000000                REQUIRE ?V5
   \   000000                REQUIRE ?V6
   \   000000                REQUIRE ?V8
   \   000000                REQUIRE ?V9
   \   000000   74EE         MOV     A,#-0x12
   \   000002   12....       LCALL   ?BANKED_ENTER_XDATA
   \   000005                ; Saved register size: 18
   \   000005                ; Auto size: 1
   \   000005   74FF         MOV     A,#-0x1
   \   000007   12....       LCALL   ?ALLOC_XSTACK8
   \   00000A   E9           MOV     A,R1
   \   00000B   85..82       MOV     DPL,?XSP + 0
   \   00000E   85..83       MOV     DPH,?XSP + 1
   \   000011   F0           MOVX    @DPTR,A
   \   000012   12....       LCALL   ?Subroutine57 & 0xFFFF
   1020            uint8 *pBuf = ZDP_TmpBuf;
   \                     ??CrossCallReturnLabel_95:
   \   000015   7413         MOV     A,#0x13
   \   000017   12....       LCALL   ?XSTACK_DISP0_8
   \   00001A   12....       LCALL   ??Subroutine126_0 & 0xFFFF
   \                     ??CrossCallReturnLabel_261:
   \   00001D   88..         MOV     ?V8,R0
   \   00001F   89..         MOV     ?V9,R1
   1021            byte len = 1 + 2 + 1;  // Status + nwkAddr + descriptor length.
   1022          
   1023            (void)SecurityEnable;  // Intentionally unreferenced parameter
   1024          
   1025            len += userDesc->len;
   \   000021   8882         MOV     DPL,R0
   \   000023   F583         MOV     DPH,A
   \   000025   E0           MOVX    A,@DPTR
   \   000026   2404         ADD     A,#0x4
   \   000028   F5..         MOV     ?V2,A
   1026          
   1027            *pBuf++ = ZSUCCESS;
   \   00002A   85..82       MOV     DPL,?V0
   \   00002D   85..83       MOV     DPH,?V1
   \   000030   E4           CLR     A
   \   000031   F0           MOVX    @DPTR,A
   1028          
   1029            *pBuf++ = LO_UINT16( nwkAddrOfInterest );
   \   000032   EC           MOV     A,R4
   \   000033   A3           INC     DPTR
   \   000034   F0           MOVX    @DPTR,A
   1030            *pBuf++ = HI_UINT16( nwkAddrOfInterest );
   \   000035   ED           MOV     A,R5
   \   000036   85..82       MOV     DPL,?V0
   \   000039   85..83       MOV     DPH,?V1
   \   00003C   12....       LCALL   ?Subroutine32 & 0xFFFF
   1031          
   1032            *pBuf++ = userDesc->len;
   \                     ??CrossCallReturnLabel_188:
   \   00003F   85..82       MOV     DPL,?V0
   \   000042   85..83       MOV     DPH,?V1
   \   000045   A3           INC     DPTR
   \   000046   A3           INC     DPTR
   \   000047   A3           INC     DPTR
   \   000048   12....       LCALL   ?Subroutine10 & 0xFFFF
   1033            osal_memcpy( pBuf, userDesc->desc, userDesc->len );
   \                     ??CrossCallReturnLabel_1:
   \   00004B   12....       LCALL   ?PUSH_XSTACK_I_THREE
   \   00004E   85..82       MOV     DPL,?V8
   \   000051   85..83       MOV     DPH,?V9
   \   000054   E0           MOVX    A,@DPTR
   \   000055   FC           MOV     R4,A
   \   000056   7D00         MOV     R5,#0x0
   \   000058   E5..         MOV     A,?V0
   \   00005A   2404         ADD     A,#0x4
   \   00005C   FA           MOV     R2,A
   \   00005D   E4           CLR     A
   \   00005E   35..         ADDC    A,?V1
   \   000060   FB           MOV     R3,A
   \   000061   12....       LCALL   `??osal_memcpy::?relay`; Banked call to: osal_memcpy
   \   000064   7403         MOV     A,#0x3
   \   000066   12....       LCALL   ?DEALLOC_XSTACK8
   1034          
   1035            return (ZStatus_t)fillAndSend( &TransSeq, dstAddr, User_Desc_rsp, len );
   \   000069                ; Setup parameters for call to function fillAndSend
   \   000069   75..11       MOV     ?V0,#0x11
   \   00006C   75..80       MOV     ?V1,#-0x80
   \   00006F   78..         MOV     R0,#?V0
   \   000071   12....       LCALL   ?PUSH_XSTACK_I_TWO
   \   000074   A9..         MOV     R1,?V2
   \   000076   EE           MOV     A,R6
   \   000077   FC           MOV     R4,A
   \   000078   EF           MOV     A,R7
   \   000079   FD           MOV     R5,A
   \   00007A   7402         MOV     A,#0x2
   \   00007C   12....       LCALL   ?XSTACK_DISP101_8
   \   00007F   12....       LCALL   `??fillAndSend::?relay`; Banked call to: fillAndSend
   \   000082   7402         MOV     A,#0x2
   \   000084   12....       LCALL   ?DEALLOC_XSTACK8
   \   000087   02....       LJMP    ?Subroutine6 & 0xFFFF
   1036          }

   \                                 In  segment BANKED_CODE, align 1, keep-with-next
   \                     ?Subroutine6:
   \   000000   7401         MOV     A,#0x1
   \   000002   12....       LCALL   ?DEALLOC_XSTACK8
   \   000005                REQUIRE ??Subroutine117_0
   \   000005                ; // Fall through to label ??Subroutine117_0

   \                                 In  segment BANKED_CODE, align 1, keep-with-next
   \                     ??Subroutine117_0:
   \   000000   7F0A         MOV     R7,#0xa
   \   000002   02....       LJMP    ?BANKED_LEAVE_XDATA
   1037          
   1038          /*********************************************************************
   1039           * @fn          ZDP_ServerDiscRsp
   1040           *
   1041           * @brief       Build and send the Server_Discovery_rsp response.
   1042           *
   1043           * @param       transID - Transaction sequence number of request.
   1044           * @param       dstAddr - Network Destination Address.
   1045           * @param       status - Status of response to request.
   1046           * @param       aoi - Network Address of Interest of request.
   1047           * @param       serverMask - Bit map of service(s) being sought.
   1048           * @param       SecurityEnable - Security Options
   1049           *
   1050           * @return      ZStatus_t
   1051           */

   \                                 In  segment BANKED_CODE, align 1, keep-with-next
   1052          ZStatus_t ZDP_ServerDiscRsp( byte transID, zAddrType_t *dstAddr, byte status,
   \                     ZDP_ServerDiscRsp:
   1053                                     uint16 aoi, uint16 serverMask, byte SecurityEnable )
   1054          {
   \   000000                REQUIRE ?V0
   \   000000                REQUIRE ?V1
   \   000000   74F6         MOV     A,#-0xa
   \   000002   12....       LCALL   ?BANKED_ENTER_XDATA
   \   000005                ; Saved register size: 10
   \   000005                ; Auto size: 1
   \   000005   74FF         MOV     A,#-0x1
   \   000007   12....       LCALL   ?ALLOC_XSTACK8
   \   00000A   E9           MOV     A,R1
   \   00000B   85..82       MOV     DPL,?XSP + 0
   \   00000E   85..83       MOV     DPH,?XSP + 1
   \   000011   F0           MOVX    @DPTR,A
   \   000012   EC           MOV     A,R4
   \   000013   FE           MOV     R6,A
   1055            const byte len = 1  + 2;  // status + aoi + mask.
   1056            uint8 *pBuf = ZDP_TmpBuf;
   \   000014   90....       MOV     DPTR,#ZDP_TmpBuf
   \   000017   12....       LCALL   ?Subroutine59 & 0xFFFF
   1057            ZStatus_t stat;
   1058          
   1059            // Intentionally unreferenced parameters
   1060            (void)aoi;
   1061            (void)SecurityEnable;
   1062          
   1063            *pBuf++ = status;
   \                     ??CrossCallReturnLabel_98:
   \   00001A   EE           MOV     A,R6
   \   00001B   8C82         MOV     DPL,R4
   \   00001D   8D83         MOV     DPH,R5
   \   00001F   F0           MOVX    @DPTR,A
   \   000020   740D         MOV     A,#0xd
   \   000022   12....       LCALL   ?XSTACK_DISP0_8
   \   000025   12....       LCALL   ?Subroutine55 & 0xFFFF
   1064          
   1065            *pBuf++ = LO_UINT16( serverMask );
   \                     ??CrossCallReturnLabel_90:
   \   000028   A3           INC     DPTR
   \   000029   F0           MOVX    @DPTR,A
   1066            *pBuf++ = HI_UINT16( serverMask );
   \   00002A   E9           MOV     A,R1
   \   00002B   8C82         MOV     DPL,R4
   \   00002D   8D83         MOV     DPH,R5
   \   00002F   A3           INC     DPTR
   \   000030   A3           INC     DPTR
   \   000031   F0           MOVX    @DPTR,A
   1067          
   1068            ZDP_TxOptions = AF_MSG_ACK_REQUEST;
   \   000032   90....       MOV     DPTR,#ZDP_TxOptions
   \   000035   7410         MOV     A,#0x10
   \   000037   F0           MOVX    @DPTR,A
   1069            stat = fillAndSend( &transID, dstAddr, Server_Discovery_rsp, len );
   \   000038                ; Setup parameters for call to function fillAndSend
   \   000038   75..15       MOV     ?V0,#0x15
   \   00003B   75..80       MOV     ?V1,#-0x80
   \   00003E   78..         MOV     R0,#?V0
   \   000040   12....       LCALL   ?PUSH_XSTACK_I_TWO
   \   000043   7903         MOV     R1,#0x3
   \   000045   EA           MOV     A,R2
   \   000046   FC           MOV     R4,A
   \   000047   EB           MOV     A,R3
   \   000048   FD           MOV     R5,A
   \   000049   7402         MOV     A,#0x2
   \   00004B   12....       LCALL   ?XSTACK_DISP101_8
   \   00004E   12....       LCALL   `??fillAndSend::?relay`; Banked call to: fillAndSend
   \   000051   7402         MOV     A,#0x2
   \   000053   12....       LCALL   ?DEALLOC_XSTACK8
   \   000056   E9           MOV     A,R1
   \   000057   F9           MOV     R1,A
   1070            ZDP_TxOptions = AF_TX_OPTIONS_NONE;
   \   000058   90....       MOV     DPTR,#ZDP_TxOptions
   \   00005B   E4           CLR     A
   \   00005C   F0           MOVX    @DPTR,A
   1071          
   1072            return ( stat );
   \   00005D   04           INC     A
   \   00005E   02....       LJMP    ??Subroutine107_0 & 0xFFFF
   1073          }

   \                                 In  segment BANKED_CODE, align 1, keep-with-next
   \                     ?Subroutine59:
   \   000000   12....       LCALL   ?Subroutine77 & 0xFFFF
   \                     ??CrossCallReturnLabel_179:
   \   000003   FC           MOV     R4,A
   \   000004   E9           MOV     A,R1
   \   000005   FD           MOV     R5,A
   \   000006   22           RET

   \                                 In  segment BANKED_CODE, align 1, keep-with-next
   \                     ?Subroutine55:
   \   000000   12....       LCALL   ?Subroutine77 & 0xFFFF
   \                     ??CrossCallReturnLabel_177:
   \   000003   8C82         MOV     DPL,R4
   \   000005   8D83         MOV     DPH,R5
   \   000007   22           RET
   1074          
   1075          /*********************************************************************
   1076           * @fn          ZDP_GenericRsp
   1077           *
   1078           * @brief       Sends a response message with only the parameter status
   1079           *              byte and the addr of interest for data.
   1080           *              This function sends unicast message to the
   1081           *              requesting device.
   1082           *
   1083           * @param       dstAddr - destination address
   1084           * @param       status  - generic status for response
   1085           * @param       aoi     - address of interest
   1086           * @param       dstAddr - destination address
   1087           * @param       rspId   - response cluster ID
   1088           * @param       SecurityEnable - Security Options
   1089           *
   1090           * @return      afStatus_t
   1091           */

   \                                 In  segment BANKED_CODE, align 1, keep-with-next
   1092          afStatus_t ZDP_GenericRsp( byte TransSeq, zAddrType_t *dstAddr,
   \                     ZDP_GenericRsp:
